:020000040800F2
:1000000000C00020B504000889040008910400081D
:1000100093040008950400089704000800000000FD
:10002000000000000000000000000000990400082B
:100030009B040008000000009D0400089F040008C5
:10004000FD040008FD040008FD040008FD0400088C
:10005000FD040008FD040008FD040008FD0400087C
:10006000FD040008FD040008FD040008FD0400086C
:10007000FD040008FD040008FD040008FD0400085C
:10008000FD040008FD040008FD040008FD0400084C
:10009000A5040008FD040008FD040008FD04000894
:1000A000FD040008FD040008FD040008FD0400082C
:1000B000FD040008FD040008FD040008FD0400081C
:1000C000FD040008FD040008FD040008FD0400080C
:1000D000FD040008FD040008FD040008FD040008FC
:1000E000FD040008FD040008FD040008FD040008EC
:1000F000FD040008FD040008FD040008FD040008DC
:10010000FD040008FD040008FD040008FD040008CB
:10011000FD040008FD040008FD040008FD040008BB
:10012000FD040008FD040008FD040008FD040008AB
:1001300000000000000000000000000000000000BF
:1001400000000000000000000000000000000000AF
:10015000000000000000000000000000000000009F
:10016000000000000000000000000000000000008F
:10017000000000000000000000000000000000007F
:10018000000000000000000000000000000000006F
:10019000000000000000000000000000000000005F
:1001A000000000000000000000000000000000004F
:1001B000000000000000000000000000000000003F
:1001C000000000000000000000000000000000002F
:1001D000000000000000000000000000000000001F
:0401E0005FF8E0F1F3
:1001E40010B5054C237833B9044B13B10448AFF36D
:1001F40000800123237010BDE000002000000000F7
:10020400483C000808B5034B1BB103490348AFF34E
:10021400008008BD00000000E4000020483C000805
:1002240030B5102597B02A4600210FA803F002FD2F
:100234001422002101A803F0FDFC182200210DEB7B
:10024400020003F0F7FC02244FF480330122002162
:10025400CDE90C23CDE913434FF480130CA80E9180
:100264001092159301F0A4FB08B172B6FEE70F23B8
:10027400CDE901344FF480630390CDE90430214685
:1002840001A801F077FD08B172B6FEE70B9006A84D
:10029400069501F01DFE08B172B6FEE701F024FDDB
:1002A40017B030BD80B588B000F05CF9FFF7B8FF37
:1002B4001022584C00210DEB020003F0BBFCA36993
:1002C400002243F02003A361A3694FF4007103F0FB
:1002D40020030093009BA3694F4843F00803A361E4
:1002E400A369012503F008030193019BA369002777
:1002F40043F01003A361A369022603F010030293E1
:10030400029BA36943F00403A361A36903F00403FC
:100314000393039B00F05CFC00224FF480713F4880
:1003240000F056FC03233E4804A9CDE904370695A2
:1003340000F0E6FA4FF40073374804A9CDE9043518
:100344000695079600F0DCFA4FF48073334804A94D
:10035400CDE90435CDE9067600F0D2FA31463048CD
:1003640000F030FC00283CD02E4D2F4B2A6813405F
:10037400B3F1005F3BD10221294800F0ABFB01211E
:10038400274800F0A7FB4FF40071234800F0A2FBBC
:100394004FF48071214800F09DFBA36923F0100302
:1003A400A361A36923F02003A361A36923F00803D5
:1003B400A361A36923F00403A36101F08DFA00F0A3
:1003C4009DF80022194B1A605A609A60184B194A1A
:1003D4001B681360184A13602A6882F308889847D8
:1003E40005E029460E4800F0EDFB0028BCD103F0DF
:1003F400F7F901224FF48071084800F0E9FB064C3C
:1004040020464FF4007100F0E8FB642000F0CEF8C1
:10041400F6E700BF00100240001001400008014050
:10042400000C0140008000080000FC2F10E000E0F8
:10043400048000081C0600202006002072B6FEE797
:100444000E4B82B09A6942F001029A619A6902F0F5
:1004540001020092009ADA6942F08052DA61DB69A3
:10046400074A03F080530193019B536823F0E06330
:1004740043F00073536002B0704700BF00100240A5
:100484000000014008B501F013FDFEE7FEE7FEE7BA
:10049400FEE7FEE770477047704700F075B800004C
:1004A400014800F063BC00BF0C0B00207047000043
:1004B4000C480D490D4A002302E0D458C4500433BB
:1004C400C4188C42F9D30A4A0A4C002301E0136091
:1004D4000432A242FBD3FFF7E9FF03F087FBFFF7E7
:1004E400E1FE704700000020DC000020083D000809
:1004F400E0000020F80D0020FEE7704710B54FF033
:10050400FF320024044BDA601C61DA60DC60FFF720
:10051400F4FF204610BD00BF0010024038B50E4B5A
:10052400054618784FF47A73B3FBF0F30B4A10685E
:10053400B0FBF3F000F09EF8044658B90F2D09D82B
:10054400024629464FF0FF3000F054F82046044B91
:100554001D6038BD0120FCE70400002000000020DD
:1005640008000020074A08B51368032043F010036D
:10057400136000F02DF80020FFF7D0FFFFF760FFB5
:10058400002008BD00200240034A044B11681B7878
:100594000B441360704700BF2406002004000020B1
:1005A400014B1868704700BF2406002038B5044684
:1005B400FFF7F6FF0546631C1EBF044B1B78E418C7
:1005C400FFF7EEFF431BA342FAD338BD040000201B
:1005D40007490302CA6803F4E06322F4E0621204E8
:1005E400120C134343F0BF6343F40033CB607047F2
:1005F40000ED00E0164B30B5DC68C4F30224C4F10E
:100604000703251D042B28BF0423062D4FF0FF35B7
:1006140098BF002405FA03F388BF033C21EA0303CF
:10062400A34005FA04F422EA0402002843EA020380
:10063400ACBF00F16040074A4FEA0313DBB2ABBF23
:1006440000F5614000F00F0080F80033135430BD12
:1006540000ED00E014ED00E0002808DB012342096E
:1006640000F01F0003FA00F0014B43F8220070472A
:1006740000E100E00138B0F1807F0AD2F021064B9E
:10068400064A586082F823100020072298601A60F6
:1006940070470120704700BF10E000E000ED00E06B
:1006A400114AD36813F0100305D01049CB6943F005
:1006B4000203CB611023D268500706D50B4943F0DF
:1006C4000403CA6942F00102CA61074AD169C90731
:1006D40008D50648C16941F00401C161D16921F01E
:1006E4000101D161D3607047002002402806002038
:1006F400064B186910F0800007D0054A5A6002F1D1
:1007040088325A601869C0F3C01070470020024054
:1007140023016745034A0020136943F080031361F2
:10072400704700BF00200240F8B50446FFF738FFC9
:10073400114D07462E46EB68D80712D4EB6899068C
:1007440044BF2023EB60F368DA0606D4F369DB07C1
:1007540003D4F06810F0040007D0FFF7A1FF0120D4
:1007640003E0631CE7D00CB90320F8BDFFF718FFC2
:10077400C01BA042DFD9F7E7002002402DE9F84F63
:10078400254E1F46337E0546012B8846914640D0B0
:1007940001234CF250303376FFF7C6FFA8BB012D7E
:1007A40003D0022D0CBF022504254FF0000A534646
:1007B400DFF868B04FEA0A14C4F12001A4F1200262
:1007C40007FA01F129FA04F4F3610C4327FA02F25F
:1007D4001443DBF81020A4B242F00102CBF810203D
:1007E4004CF2503028F81A40FFF79EFFDBF8102037
:1007F40022F00102CBF8102038B90AF1010A5FFA9D
:100804008AF295424FF00003D4D800233376BDE832
:10081400F88F0220FBE700BF2806002000200240DA
:100824000022064BDA61064B1A6942F004021A618F
:100834001A6942F040021A61704700BF280600207E
:10084400002002400022064BDA61064B1A6942F08E
:1008540002021A6158611A6942F040021A61704733
:1008640028060020002002402DE9F041224E0546D2
:10087400337E8846012B3DD00124347603684CF244
:100884005030022B13D1FFF74FFF20B1012000237A
:100894003376BDE8F081FFF7C3FF4CF25030FFF729
:1008A40043FF164A136923F004031361EFE7FFF7CC
:1008B4003BFF0028EAD14FF0FF33C8F80030204650
:1008C400AF680E4CD5E9023203EBC223BB42DED93A
:1008D4003846FFF7B7FF4CF25030FFF725FF236986
:1008E40023F00203236110B1C8F80070CFE707F5C5
:1008F4000067E7E70220CCE728060020002002403A
:100904002DE9F74F002216466B4F6C4BDFF8B4C14C
:10091400DFF8B4E10C6834FA06F502D103B0BDE89F
:10092400F08F4FF0010808FA06F804EA080538EADF
:10093400040440F082804C68032C07D8013C022C4C
:1009440000F28D80DFE804F09EA3A900122C00F0D1
:10095400A18074D8112C00F09780FF2D98BF824697
:100964004FF00F0988BF00F1040A4FEA8604DAF851
:10097400008088BF203C09FA04FB28EA0B0802FA2D
:1009840004F448EA0404CAF80040D1F804A01AF0B8
:10099400805F52D0BC6926F0030844F00104BC61B6
:1009A400BC6908F1804804F00104019408F580381A
:1009B40006F0030B019C4FEA8B0BD8F8084009FAA8
:1009C4000BF924EA09093E4CA0426AD004F580647C
:1009D400A04268D004F58064A04266D004F5806427
:1009E400A04264D004F58064A04262D060450CBF8C
:1009F4000524062404FA0BF444EA0904C8F8084060
:100A04001C681AF4803F14BF2C43AC431C605C6820
:100A14001AF4003F14BF2C43AC435C609C681AF486
:100A2400801F14BF2C43AC439C60DC681AF4001F85
:100A340014BF254324EA0505DD6001366AE77445E1
:100A44000DD018D8DFF884904C4508D009F57029EA
:100A54004C4504D0A9F580194C457FF47EAF8A68D3
:100A6400EAB1012A08BFC0F810804FF0080218BF8D
:100A7400C0F8148071E7DFF858904C45EFD009F5C1
:100A84008039E9E7CA6868E7CA68043265E7CA6872
:100A9400083262E7CA680C325FE700225DE704228D
:100AA4005BE70024A6E70124A4E70224A2E70324C9
:100AB400A0E704249EE700BF0010024000040140A8
:100AC40000080140001C0140000022100000121028
:100AD400000031102DE9F04F00244FF0010A4FF0CF
:100AE4000F08354BDFF8D8B031FA04F201D1BDE874
:100AF400F08F0AFA04F70F4052D024F0030505F1F1
:100B040080452E4A05F5803504F0030CAE684FEAA3
:100B14008C0C08FA0CF9904209EA060E42D002F550
:100B24008062904240D002F5806290423ED002F54D
:100B3400806290423CD002F5806290423AD058459F
:100B44000CBF0522062202FA0CF272456FEA070670
:100B54000FD1AA6822EA0902AA601A6832401A6010
:100B64005A6832405A609A6832409A60DA68324071
:100B7400DA60FF2F98BF07464FEA840288BF071D3B
:100B84003D6888BF203A08FA02FC25EA0C054FF0BC
:100B9400040C0CFA02F22A433A60C2681640C6609A
:100BA4000134A1E70022CEE70122CCE70222CAE702
:100BB4000322C8E70422C6E70004014000080140FC
:100BC400001C01408368194214BF012000207047B3
:100BD4000AB1016170470904FBE7C36801EA030233
:100BE40021EA030141EA024101617047F0B504467C
:100BF40087B010B390F8A93203F0FF021BB980F854
:100C0400A82202F0DDFE032325466E4684F8A932AD
:100C140055F8100B01F0E4F90FCD0FC62B68271D12
:100C24003360264697E80E0056F8100B01F0C8F919
:100C3400054620B1022384F8A93201254CE001467F
:100C4400206801F0D7F929464FF0010E28250846FF
:100C5400D4F804C0CAB2944501F101011BD80023A1
:100C640028251946D8B2844503F1010320D8EC465F
:100C740035460FCDACE80F002B68CCF8003097E870
:100C84000E00206801F0B8F901230546E8B10222FC
:100C940084F8A922D1E705FB0243C3E90E0083F8D7
:100CA40029E083F82820DA8683F82B001864D1E73A
:100CB40005FB0042C2E95E1182F8691182F86801FD
:100CC40082F86B11C2F88011CCE784F82400206804
:100CD40084F8A93201F06FFB284607B0F0BD38B59F
:100CE40090F8A8320446012B10D0012580F8A852B0
:100CF400006801F06CF92946204602F076FF20686E
:100D040001F057FB002084F8A80238BD0220FCE75C
:100D140010B590F8A8320446012B10D0012380F8B6
:100D2400A832006801F05CF90021204602F05DFF62
:100D3400206801F040FB002084F8A80210BD0220C6
:100D4400FCE710B590F8A8220446012A0BD0012232
:100D540080F8241080F8A822006801F024FB002009
:100D640084F8A80210BD0220FCE700002DE9F04F32
:100D7400044685B0006801F020FB000409D5DFF8C3
:100D84008C99DFF88C892068B0F844301D0400F198
:100D9400C180206801F011FB41050FD5226820466F
:100DA400B2F8443023F480631B041B0CA2F84430D3
:100DB40002F041FE00212046FFF7C3FF206801F046
:100DC400FCFA410408D52268B2F8443023F4804385
:100DD4001B041B0CA2F84430206801F0EEFA8204D4
:100DE40008D52268B2F8443023F400531B041B0CCA
:100DF400A2F84430206801F0E0FAC3041CD522684C
:100E04002046B2F8403023F004031B041B0CA2F864
:100E14004030B2F8403023F008031B041B0CA2F846
:100E2400403002F02BFE2268B2F8443023F48053A1
:100E34001B041B0CA2F84430206801F0BEFA07051D
:100E440046D568462368064619461A4603F1200526
:100E540032F8047B954226F8027BF9D1B3F840209E
:100E640092B242F00102A3F84020B3F8402022F0ED
:100E740001021204120CA3F84020B3F844205605D2
:100E8400FBD5B3F8442022F480621204120CA3F8B8
:100E9400442030F8022B21F8042B8D42F9D1B3F809
:100EA4004020204692B242F00802A3F84020B3F852
:100EB400442022F400621204120CA3F84420B3F874
:100EC400402092B242F00402A3F8402002F0C6FD92
:100ED400206801F072FA82050BD522682046B2F828
:100EE400443023F400731B041B0CA2F8443002F0BA
:100EF4009EFD206801F061FAC30508D52268B2F8A6
:100F0400443023F480731B041B0CA2F8443005B056
:100F1400BDE8F08FB0F84460B1B216F00F0640F0AF
:100F2400BD8011F010012DD103889BB203EA09039F
:100F340043F400430380B0F8503094F828209BB267
:100F440003EBC20300EB4300B0F80434E26BC3F3D9
:100F5400090363641344E363204602F060FD94F8DC
:100F64002430002B3FF40FAF226C002A7FF40BAF28
:100F740094F82430216843F08003A1F84C3084F8BD
:100F8400242000E70588ABB215F4006521D0B0F841
:100F9400503094F868219BB203EBC20300EB430387
:100FA400B3F80C34B4F86E21C3F30903C4F88431E4
:100FB40004F52C7101F0A6FD22682046138823F065
:100FC40070031B051B0D43F08003138002F018FD12
:100FD400D9E61A047FF5D7AE038823F070031B0506
:100FE4001B0D43F080030380B0F8503094F868215F
:100FF4009BB203EBC20300EB4303B3F80C34C3F31B
:101004000903C4F884318BB1D4F87C1171B1B4F8FC
:101014006E2101F077FDD4F87C31D4F8842129467F
:1010240013442046C4F87C3102F0F0FC21680B889C
:101034001B053FF5A8AEB1F85030D4F878519BB2F7
:1010440001F20C40CDB9C25A22F4F8421204120C37
:10105400C252C25A92B242F40042C2520B8823F4E2
:10106400804323F070031B041B0C83F4405343F4AC
:10107400004343F080030B8085E63E2D06D86A08C2
:10108400EF0748BF0132920292B2E6E76A09EE0620
:1010940008BF02F1FF3248EA8222F5E730F8263031
:1010A4001D049FB240F1F880282130F8263001FB5E
:1010B400064123F070031B051B0D43F0800320F849
:1010C400263091F8743100F58065B3B9B0F850302A
:1010D40091F868219BB2063303EBC20335F8135031
:1010E400C5F30905002D00F0BB802B46B1F86E2135
:1010F400D1F87C1101F006FDB2E091F86B3191F862
:1011040068C1022B40F08B80B0F8503017F4804A4D
:10111400D1F880214FEACC0B9BB207F0400E40D0AF
:101124009B440BF1020B35F81B50C5F3090595429E
:1011340013D90023C1F8803130F82C3023F48043D4
:1011440023F070031B041B0C83F4005343F400438B
:1011540043F0800320F82C3004E0521BC1F88021B6
:10116400002AE9D0BEF1000F12D0282303FB064366
:1011740093F8682130F8223023F4E04323F070031D
:101184001B041B0C43F4004343F0C00320F822303B
:10119400002D65D0282101FB06412B46B1F87021B2
:1011A400A6E75B44063335F81350C5F309059542A9
:1011B40012D9C1F880A130F82C3023F4804323F0F5
:1011C40070031B041B0C83F4005343F4004343F0EB
:1011D400800320F82C3004E0521BC1F88021002A3F
:1011E400E9D0BEF1000F12D1282303FB064393F884
:1011F400682130F8223023F4E04323F070031B0409
:101204001B0C43F4004343F0C00320F822303DB3E9
:10121400282101FB06412B46B1F8722168E730F81A
:101224002C3023F4E04323F070031B041B0C43F421
:10123400004343F0C00320F82C3091F8683130F8B3
:101244002320DB0012F4804FB0F8502092B259D022
:101254000232134435F81350C5F30905002D9CD10F
:10126400282171436318D3F884212A44C3F88421C4
:10127400D3F87C212A44C3F87C21D3F880211AB105
:10128400D3F878319D4246D2282303FB06432046F7
:1012940093F8681102F0BAFB38067FF574AD28257F
:1012A400206805FB064530F826309BB203EA0903A3
:1012B40043F4004320F8263095F82B2095F8283085
:1012C400032A04D01AB1022A3DD1F9053BD42821BE
:1012D400B0F8502001FB064792B2023202EBC3037E
:1012E40000EB4303B3F800E4D7F840C0CEF3090E93
:1012F400F44517D800233B64204695F8281002F0E3
:101304008EFB40E50632134435F81350C5F3090546
:10131400002DA5D07FE701F5B4712068214401F0C8
:1013240063F8B9E7ACEB0E033B64002BE4D006FB97
:101334000111FA6B7B6C72447344FA637B6421443D
:1013440001F052F81FE5282202FB0642B0F85010C3
:101354004FEAC30A89B217F0400E126C00F5806C94
:10136400514407F4804700F0E98002313CF811C091
:101374002821CCF3090C944528BF002201FB064127
:1013840038BFA2EB0C020A64BFB2002A5CD195F804
:101394002910002942D1B0F850101B018AB200F282
:1013A40004411144CA5A22F4F8421204120CCA52DB
:1013B400CA5A92B242F40042CA5295F8292095F8CA
:1013C4002830AABBB0F8502000F20C4092B210446E
:1013D4001A01835A23F4F8431B041B0C8352835AC7
:1013E4009BB243F400438352204695F8281002F040
:1013F40016FB002F00F0EA8095F82810226832F8D6
:10140400213023F4E04323F070031B041B0C43F44A
:10141400404343F0800322F82130D7E00129CCD1A6
:10142400B0F850101B018EB200F204413144C3E7FE
:10143400012AD9D1B0F8502000F20C4092B21044E5
:1014440000221B01C252CFE76FB130F8232022F4EF
:10145400E04222F070021204120C42F4404242F0C4
:10146400800220F82320282303FB064393F84C2012
:10147400012A40F0AB805A6CD96B62449F6C5A6469
:101484009A6B61449742D96327D3BF1A9F6495F836
:10149400297093B2002F43D1B0F8507095F828C04A
:1014A400BFB200F2044E4FEA0C1C774402BB3CF876
:1014B400072022F4F8421204120C2CF807203CF8FE
:1014C400072092B242F400422CF80720282202FBA3
:1014D4000646328E00F077FF78E01FB9624683F843
:1014E4004C70D4E7002283F84C209A643A46CEE745
:1014F4003E2A0CD84FEA520ED20748BF0EF1010E15
:101504004FEA8E2E1FFA8EFE2CF807E0DEE74FEA34
:10151400521ED20608BF0EF1FF3E48EA8E2EF1E7B6
:10152400012FD3D1B0F8502095F828701FFA82FC0F
:1015340000F204423F016244BB52C7E706313CF863
:1015440011C02821CCF3090C944588BF724601FBD5
:10155400064198BFA2EB0C020A64BFB2002A5FD115
:1015640095F82910002945D1B0F850101B018AB212
:1015740000F204411144CA5A22F4F8421204120C33
:10158400CA52CA5A92B242F40042CA5295F8292069
:1015940095F82830002A37D1B0F8502000F20C40DA
:1015A40092B210441A01835A23F4F8431B041B0C0F
:1015B4008352835A9BB243F400438352204695F8E6
:1015C400281002F02CFA002F3FF416AF95F82810DB
:1015D400226832F821309BB223F4E04323F0400325
:1015E40083F0300343F4004343F0800322F82130B6
:1015F400FFF7C9BB0129C9D1B0F850101B018EB245
:1016040000F204413144C0E7012AD7D1B0F8502098
:1016140000F20C4092B2104400221B01C252CDE7EA
:101624006FB930F8232022F4E04222F07002120451
:10163400120C42F4404242F0800220F82320282376
:1016440003FB064393F84C20012ABFD15A6CD96B93
:1016540062449F6C5A649A6B61449742D96325D360
:10166400BF1A9F6495F8297093B2002F41D1B0F846
:1016740050C01FFA8CF700F20C4CBC4495F828704B
:101684003F01F2B93CF8072022F4F8421204120C8C
:101694002CF807203CF8072092B242F400422CF8C0
:1016A4000720282202FB0646728E13E71FB9624602
:1016B40083F84C70D6E700229A6483F84C203A46AB
:1016C400D0E73E2A0CD84FEA520ED20748BF0EF19B
:1016D400010E4FEA8E2E1FFA8EFE2CF807E0E0E78B
:1016E4004FEA521ED20608BF0EF1FF3E48EA8E2E84
:1016F400F1E7012FD5D1B0F85070BAB200F20C471F
:10170400174495F828201201BB52CAE70F8FFFFF38
:101714000080FFFF11F0800F70B5054601F007004F
:101724004FF028011CD0012400FB011129444C7006
:101734000A614A780870CB7002B1C881022B04BFD9
:1017440000230B7195F8A832012B13D001232868CC
:1017540085F8A83200F064FC002085F8A80270BD6A
:10176400002601FB00F404F5B4712C44294484F8E8
:101774006961DDE70220F2E770B52824002601F054
:1017840007014C43051985F8681104F5B471014447
:10179400C5E95F23C5F8846185F86961006800F0D4
:1017A40023FE304670BD70B501F00705282101FB0A
:1017B40005040026C4E90F23012205FB011184F866
:1017C4004C200144A364666484F8292084F82850DA
:1017D400006800F009FE304670BD38B5436801F07A
:1017E40007059D42044628D811F0800F4FF02803C6
:1017F4001AD005FB0333C11801234B7001230D706C
:101804008B7094F8A8229A4219D0206884F8A832E0
:1018140000F05EFD25B9206804F52C7100F0D1FDBF
:10182400002084F8A80238BD00224B4303F5B471AC
:101834000344014483F86921E0E70120F3E702202F
:10184400F1E738B5436801F00F029A42044626D8FE
:1018540011F0800F01F007024FF0280115D0012389
:1018640002FB011101444B7000250A708D7094F83D
:10187400A832012B15D00123206884F8A83200F087
:1018840047FD284684F8A85238BD01FB02F303F54E
:10189400B47101440344002083F86901E4E70120A2
:1018A400F2E70220F0E710B5282411F0800F1BBFE7
:1018B40001F0070101FB044104FB0100401808BFCB
:1018C40000F5B47099B21AB90273C180002010BD3A
:1018D400012283600273F9E770B5FEF761FE0546E5
:1018E4002F4C236843F00103236023689B073BD5F7
:1018F400236841F2883623F0F80343F08003236021
:10190400FEF74EFE002305466360636813F00C0F78
:1019140032D1244B244A1A60244B1868FEF7FEFD8A
:10192400054600283AD1FEF73BFE0646236823F01D
:1019340080732360236813F0007323D16360FEF780
:101944002FFE0646236823F410232360236813F430
:1019540000331DD1226822F480222260626A42F0A0
:1019640080726262A36005E0FEF71AFE401B022843
:10197400BBD90325284670BDFEF712FE401BB042BA
:10198400C3D9F6E7FEF70CFE801B0228D2D9F0E794
:10199400FEF706FE801B6428D8D9EAE70125E9E7AB
:1019A400001002400000002000127A00080000200D
:1019B4002DE9F341054638B30368DB0710D42B68DF
:1019C4009F075ED42B68190700F195802B685A078E
:1019D40000F1BF80E869002840F02C81002029E054
:1019E4008F4C636803F00C03042B07D0636803F087
:1019F4000C03082B0AD16368DE0307D523689C0314
:101A0400DDD56B68002BDAD1012013E06B68B3F5E8
:101A1400803F12D1236843F480332360FEF7C0FD76
:101A2400064623689803CAD4FEF7BAFD801B6428CF
:101A3400F7D9032002B0BDE8F0819BB9236823F4F1
:101A440080332360236823F480232360FEF7A8FDFA
:101A5400064623689903B2D5FEF7A2FD801B6428CD
:101A6400F7D9E6E7B3F5A02F236803D143F4802325
:101A74002360CFE723F480332360236823F4802397
:101A8400CBE7674C636813F00C0F07D0636803F06F
:101A94000C03082B10D16368DA030DD423689B0769
:101AA40002D52B69012BAFD123686A6923F0F803AF
:101AB40043EAC203236085E72A695A4B6AB10122CB
:101AC4001A60FEF76DFD064623689F07ECD4FEF707
:101AD40067FD801B0228F7D9ABE71A60FEF760FDAB
:101AE4000646236898077FF56DAFFEF759FD801B06
:101AF4000228F6D99DE7AA69494E4B4BDAB1012277
:101B04001A60FEF74DFD0446736A9B070DD54FF42A
:101B1400FA52464B1B68B3FBF2F3019300BF019BDF
:101B24005A1E0192002BF9D150E7FEF739FD001B34
:101B34000228E9D97DE71A60FEF732FD0446736A8C
:101B44009F077FF543AFFEF72BFD001B0228F6D954
:101B54006FE7334CE369D80024D40127E36943F0E9
:101B64008053E361E36903F080530093009B304E9C
:101B74003368D90518D5EB68012B26D1236A43F0C5
:101B840001032362FEF70CFD41F288380646236AFE
:101B94009B073FD5002F3FF41DAFE36923F080532B
:101BA400E36117E70027E2E7336843F480733360A7
:101BB400FEF7F6FC80463368DA05DCD4FEF7F0FC69
:101BC400A0EB08006428F6D933E7ABB9236A41F2E5
:101BD400883823F001032362236A23F00403236279
:101BE400FEF7DEFC0646236A9807D3D5FEF7D8FC39
:101BF400801B4045F7D91CE7052B236A03D143F02A
:101C040004032362BAE723F001032362236A23F067
:101C14000403B6E7FEF7C4FC801B4045B7D908E7C8
:101C240000100240000042428004424200000020B2
:101C3400007000402A4B5A681C4602F00C02082A25
:101C44003DD00023274E022833602BD1FEF7A8FC99
:101C54000746236899011FD42B6AB3F5803F05D149
:101C64006268A96822F400320A436260696A6268A1
:101C74000B4322F474121343636001233360FEF7B1
:101C84008FFC054623689A013FF5A8AEFEF788FC51
:101C9400401B0228F6D9CCE6FEF782FCC01B0228C2
:101CA400D7D9C6E6FEF77CFC054623689B017FF581
:101CB40095AEFEF775FC401B0228F6D9B9E601285B
:101CC4003FF4B8AE5B682A6A03F4803191427FF432
:101CD4009BAE6A6A03F4701393423FF47FAE93E6BB
:101CE40000100240600042420122014B1A6070471A
:101CF4004C00424230B51A4B87B002AC03F11005D8
:101D0400224618685968083303C2AB421446F7D117
:101D140040F201231349ADF804304B6803F00C0280
:101D2400042A19D0082A19D1C3F3834206A802440D
:101D3400DB0312F8102C0CD54B680B48C3F340435B
:101D4400504306AA134413F8143CB0FBF3F007B055
:101D540030BD06485043FAE70348F8E70448F6E77D
:101D6400703C000800100240001BB70000093D0051
:101D740000127A002DE9F0410D46044610B9012005
:101D8400BDE8F081444A136803F007038B4228D36B
:101D940021688E0730D4CA0743D43F4A136803F03E
:101DA4000703AB4265D822683C4D12F0040F6CD196
:101DB400130706D56B68226923F4605343EAC20310
:101DC4006B60FFF797FF6B68354AC3F30313D35C6B
:101DD400D840344B1860344B1868FEF79FFB002042
:101DE400CEE7136823F007030B431360136803F073
:101DF40007038B42C3D1CBE7284B11F0040F1EBF5E
:101E04005A6842F4E0625A60080742BF5A6842F4D2
:101E140060525A605A68A06822F0F00202435A6085
:101E2400B9E762681D4E012A33681AD113F4003FE2
:101E3400A5D0736841F2883823F003031343736019
:101E4400FEF7AEFB07467368626803F00C03B3EB5E
:101E5400820FA2D0FEF7A4FBC01B4045F3D9032098
:101E64008EE7022A02D113F0007FE1E713F0020F9C
:101E7400DEE7136823F007032B431360136803F0B2
:101E84000703AB427FF47BAF8DE76B68E16823F413
:101E9400E0630B436B608BE70020024000100240BC
:101EA400603C00080000002008000020704700008B
:101EB40008B5054B9B681B0604D5FFF7F7FF802286
:101EC400024B1A7008BD00BF001002400A10024005
:101ED40003682DE9F341D907054620D5354CE3695C
:101EE400DA0032D40127E36943F08053E361E36904
:101EF40003F080530193019B2F4E3368DB0526D5F5
:101F0400236A13F4407336D1236A6A6823F4407356
:101F1400134323621FB1E36923F08053E36128680C
:101F2400830706D52349AB684A6822F440421A4322
:101F34004A6010F010001BD01E4A696953680020E3
:101F440023F480030B43536012E00027D4E7336883
:101F540043F480733360FEF723FB80463368D8056F
:101F6400CED4FEF71DFBA0EB08006428F6D90320AD
:101F740002B0BDE8F0816A6802F440729A42C3D0AC
:101F840001200E4A236A1060002023F4407110607F
:101F94002162D907B8D5FEF703FB41F2883806461B
:101FA400236A9A07B0D4FEF7FBFA801B4045F7D9A1
:101FB400DDE700BF001002400070004040044242D0
:101FC40084B001A880E80E0004B0002070470346E6
:101FD4004FF43F420020A3F84400A3F84020704788
:101FE400B0F8403023F47C535B045B0CA0F8403021
:101FF400002070470020704784B010B5044603A841
:1020040080E80E0000200123A4F84030A4F840002A
:10201400A4F84400A4F85000BDE8104004B0704790
:10202400F0B50D78034630F82520C87822F4EC4248
:1020340022F070021204120C03284FD8DFE800F0DB
:10204400024B494742F4007248F28004224323F8C9
:1020540025200E789B4D33F8262092B22A40324335
:10206400224323F826200C7B0A78002C40F0898038
:10207400CC884E786408640003EB021286B3B3F88C
:102084005060B6B23244A2F800440C7833F82420ED
:10209400520609D533F8242092B22A4042F4004271
:1020A40042F0C00223F82420CA780C78012A33F8BD
:1020B4002420854992B202EA010218BF82F020026C
:1020C40042F4004242F0800223F82420F0BD42F49E
:1020D400C0620020B8E742F48062FAE70120B3E767
:1020E400B3F850500E69ADB22A44A2F808440A78F5
:1020F400B3F8504003EB0212A4B202F20C427EBBCE
:10210400155B25F4F8452D042D0C1553155B6FEA6A
:1021140045456FEA5545ADB215530C7833F8242084
:1021240055040DD533F8242022F4E04222F0700245
:102134001204120C42F4404242F0800223F824209C
:10214400097833F8212022F4804222F0700212042C
:10215400120C82F4405242F4004242F0800271E0D8
:102164003E2E05D87508F70748BF0135AD02D2E702
:102174007709564DF60608BF07F1FF3745EA87256C
:10218400C9E733F82240A4B22C4044F4014444F09B
:10219400800423F822400A780C89B3F8506003EBDA
:1021A40002126408B6B202F58062640094530A789D
:1021B4004C89B3F8506003EB0212640802F58162A3
:1021C4006400B6B294534A780C78002A3DD133F8AF
:1021D4002420520409D533F8242092B22A4042F430
:1021E400404242F0800223F824200C7833F8242063
:1021F40057060DD533F8242022F4E04222F0700271
:102204001204120C42F4004242F0C00223F82420CB
:1022140048F280040D7833F8252022F4804222F01D
:1022240070021204120C82F44052224323F8252037
:10223400097833F8212022F4E04222F0400212040B
:10224400120C224323F8212040E733F824205604BB
:1022540009D533F8242092B22A4042F4404242F095
:10226400800223F824200C7833F8242052060DD55C
:1022740033F8242022F4E04222F070021204120CFB
:1022840042F4004242F0C00223F82420CA780C78B9
:10229400012A33F824200C4D92B202EA050218BF39
:1022A40082F0200242F4004242F0800223F824200B
:1022B400097833F8212022F4804222F070021204BB
:1022C400120C48E78F8FFFFFBF8FFFFF0080FFFFD7
:1022D4004B780A788BB130F8223023F4E04323F0B2
:1022E40040031B041B0C83F0100343F4004343F02E
:1022F400800320F822300020704730F8223023F485
:10230400804323F070031B041B0C83F48053ECE71D
:102314000B7B43BB4B780A783BB330F822305B0627
:102324000DD530F8223023F4E04323F070031B046E
:102334001B0C43F4004343F0C00320F82230CB7855
:10234400012B10D00A7830F8223023F4E04323F034
:1023540040031B041B0C83F0200343F4004343F0AD
:10236400800320F822300020704730F822305B04CC
:102374000DD530F8223023F4E04323F070031B041E
:102384001B0C43F4404343F0800320F822300A78C6
:1023940030F8223023F4804323F070031B041B0C19
:1023A40083F44053D9E711B98023A0F84C300020BE
:1023B40070470020704700207047B0F8440080B296
:1023C40070470020704700EB4202013302F580623F
:1023D4005B0802EB83039A4200D1704731F8020B89
:1023E40022F8040BF7E70000F8B50C4649780546D7
:1023F4000129227B40F05582D4F810C0A669616996
:10240400664528BF664602BBB6B2E2883346FFF78C
:10241400DAFFB5F85020217890B205F204420901A0
:1024240002448E52227835F8223023F4E04323F01C
:1024340040031B041B0C83F03003002043F40043CF
:1024440043F0800325F82230F8BDE2782778022A89
:10245400236A30F8272040F01E819C4580F00181DA
:1024640022F4E04222F070021204120C42F40142FF
:1024740042F0800220F8272022789B1B30F82200AB
:10248400236210F0400FB3B2607875D0002853D1A6
:10249400B5F8500005F20C4780B238441201002E02
:1024A40037D1875A27F4F8473F043F0C8752875A9D
:1024B4006FEA47476FEA5747BFB287522846628997
:1024C400FFF781FF226A236961699A428ABF931BDD
:1024D40000233246607831442362616193B200285C
:1024E40040F05981B5F85000267880B205F20447CF
:1024F400360138445ABB325A22F4F8421204120C00
:102504003252325A6FEA42426FEA524292B2325225
:1025140026E03E2E06D8770816F0010F18BF0137C3
:10252400BF02C9E74FEA561CF706A14F08BF0CF1DA
:10253400FF3C47EA8C27BFE70128BFD1B5F850001C
:10254400120187B205F20C4038448352B6E73E2AA2
:1025540009D85708D20748BF0137BF02BFB2375264
:102564002289284694E05709D206914A08BF07F108
:10257400FF3742EA8722C9E7002853D1B5F8500053
:1025840005F2044780B238441201002E37D1875A2D
:1025940027F4F8473F043F0C8752875A6FEA4747AE
:1025A4006FEA5747BFB2875228462289FFF70BFFCD
:1025B400226A236961699A428ABF931B00233246C7
:1025C400607831442362616193B2002840F05C81F9
:1025D400B5F85000267880B205F20C47360138442D
:1025E4005ABB325A22F4F8421204120C3252325AB2
:1025F4006FEA42426FEA524292B2325226E03E2ED3
:1026040006D8770816F0010F18BF0137BF02C9E7D3
:102614004FEA561CF706664F08BF0CF1FF3C47EA29
:102624008C27BFE70128BFD1B5F85000120187B24B
:1026340005F2044038448352B6E73E2A08D85708C6
:10264400D20748BF0137BF02BFB23752628988E759
:102654005709D206564A08BF07F1FF3742EA8722D4
:10266400CAE722F4E24222F070021204120C42F48D
:10267400004242F0800220F82720B0F8502026784B
:1026840097B200F204423A4436019BB2B352228913
:10269400FFF799FEC6E622F4E04222F0700212042B
:1026A400120C42F4014242F0800220F827202278E2
:1026B4009B1B30F82200236210F0400FB3B2607805
:1026C40078D0002851D1B5F8500005F20C4780B2FB
:1026D40038441201002E35D1875A27F4F8473F04B5
:1026E4003F0C8752875A6FEA47476FEA5747BFB292
:1026F400875262892846FFF766FE226A2369616968
:102704009A428ABF931B002332463144616123629B
:10271400002A3FF487AE607893B200283BD1B5F825
:1027240050602778B0B23E2A05F204464FEA0717F4
:10273400064425D85008D20748BF0130800280B231
:10274400B8530DE73E2E06D8770816F0010F18BFD0
:102754000137BF02CBE74FEA561CF706144F08BFF8
:102764000CF1FF3C47EA8C27C1E70128C1D1B5F839
:102774005000120187B205F20C4038448352B8E786
:102784005009D2060A4A08BF00F1FF3042EA80220B
:1027940092B2BA53E4E601287FF4E2AEB5F85020D1
:1027A400207896B205F20442000132448352D7E6FF
:1027B4000080FFFF002851D1B5F8500005F204470E
:1027C40080B238441201002E35D1875A27F4F847D5
:1027D4003F043F0C8752875A6FEA47476FEA5747CF
:1027E400BFB2875222892846FFF7EDFD226A23698A
:1027F40061699A428ABF931B002332463144616166
:102804002362002A3FF40EAE607893B200283BD1D5
:10281400B5F850602778B0B23E2A05F20C464FEA6C
:102824000717064425D85008D20748BF0130800254
:1028340080B2B8530AE73E2E06D8770816F0010F87
:1028440018BF0137BF02CBE74FEA561CF706AC4F5F
:1028540008BF0CF1FF3C47EA8C27C1E70128C1D12E
:10286400B5F85000120187B205F20440384483528F
:10287400B8E75009D206A24A08BF00F1FF3042EA85
:10288400802292B2BA53E1E601287FF4DFAEB5F8B4
:102894005020207896B205F20C4200013244835253
:1028A400D4E6002A3BD1A36921698B4284BF5A1A1A
:1028B4000B46B0F850102078A2618AB205F20C41A0
:1028C400000111446BB9435A23F4F8431B041B0C55
:1028D4004352435A6FEA43436FEA53439BB2435212
:1028E40008E03E2B12D85A08DF0748BF0132920293
:1028F40092B24252227835F8223023F4804323F0F6
:1029040070031B041B0C83F4405396E55A09DE063E
:102914007B4B08BF02F1FF3243EA8223DEE7E37810
:10292400022B7ED1B9B9B0F85020217893B200F2CD
:102934000442206909011A44002844D18B5A23F423
:10294400F8431B041B0C8B528B5A6FEA43436FEA08
:1029540053439BB28B5262782378002A55D1B5F841
:10296400501020698AB205F20C4111441B01002861
:102974003AD1CA5A22F4F8421204120CCA52CA5A60
:102984006FEA42426FEA524292B2CA52E369002BA2
:10299400B0D044F24003227835F8221003EA010053
:1029A4008B4301D00028A5D135F8223023F4E0432D
:1029B40023F070031B041B0C43F4004343F0C003D7
:1029C40025F8223096E73E2805D84308C00748BFBB
:1029D40001339B02BDE74609494BC70608BF06F110
:1029E400FF3643EA8623B4E73E2805D84208C007E9
:1029F40048BF01329202C7E74609414AC70608BFE9
:102A040006F1FF3642EA8622BEE7012ABED1B5F8B6
:102A140050201B0191B205F20C420A44218AD15282
:102A2400B4E7012B6AD1A3692269934294BF0020C1
:102A3400981AA06188BF1346A9B9B5F85010207838
:102A44008AB205F204410001114433BB425A22F414
:102A5400F8421204120C4252425A6FEA42426FEA9E
:102A6400524292B2425261782278002939D1B5F8A3
:102A74005000120181B205F20C400844F3B9835AA4
:102A840023F4F8431B041B0C8352835A6FEA434319
:102A94006FEA53439BB283522CE73E2B05D85A0866
:102AA400DE0748BF01329202DBE75E09144ADF0603
:102AB40008BF06F1FF3642EA8622D2E73E2B07D84A
:102AC4005908DE0748BF0131890289B2815211E7F2
:102AD4005909DB060A4B08BF01F1FF3143EA8123A0
:102AE400D8E701297FF406AFB5F85010120188B277
:102AF40005F20C4101449BB28B52FBE60120A3E496
:102B04000080FFFF00EB4202F0B502F580625D0831
:102B14000C4617462E46023436B9DB0744BF32F85A
:102B2400253001F81530F0BD37F8040B013E80B2B2
:102B340004F8020C000A04F8010CECE71B230380E0
:102B4400004870474800002000207047002070476C
:102B54000A230380004870476400002037B5D0F88A
:102B6400B842054694F81834042B64D1D4F8001400
:102B7400002951D123789BB9D4F80434012B3CD1DA
:102B840000200323C4F80404C4F8000484F81834AF
:102B940084F81104A4F8120484F8143403B030BD8A
:102BA400212B10D1D4F80434052B26D1E378A27854
:102BB4001B0403EB022362781344227903EB0263C0
:102BC400C4F80834DCE7412B17D1D4F80434052BBE
:102BD40013D1E378A0781B0403EB0023607803444B
:102BE400207903EB0060D5F8BC32C4F80804DB6834
:102BF40098470028C4D00220D0E70023C4F8043446
:102C0400C4F800348DF80030012369462846ADF835
:102C1400063000F07DFDB3E70129B1D9D4F80804EA
:102C2400D5F8BC32023900EB81211B692046D4F867
:102C340004249847DDE7072B4FF000030FD1174A10
:102C440084F81934127D12F004020AD0062284F8A2
:102C5400113484F81824A4F8123484F8142418467F
:102C64009CE7082384F8112484F81834A4F8122467
:102C740084F8143400F024FAD5F8BC329B689847E1
:102C8400BFF34F8F0649074BCA6802F4E06213434F
:102C9400CB60BFF34F8F00BFFDE700BF48000020AB
:102CA40000ED00E00400FA0538B5022200250446D0
:102CB400D0F8B83283F8182483F8142483F8105415
:102CC400C3F80054C3F80454D0F8BC329B68984746
:102CD400D4F8B80200F088FF2846C4F8B85238BDCA
:102CE40010B5044640F21C4000F07AFFC4F8B80264
:102CF400A8B100230222C0F81034A0F81824A0F8C8
:102D040014240849C0F80034C0F80434C0F80C3462
:102D1400D4F8BC32C0F808145B68984700B10220AC
:102D240010BD00BF00800008062908B507D8D0F8F8
:102D3400BC320449186800F0F6FC024808BD0020C3
:102D4400FCE700BFFC00002000232DE9F3410D78CF
:102D5400064615F06005D0F8B842ADF8063000F02C
:102D64004381202D40F0568191F80180B8F1060F7F
:102D740000F25081DFE818F01101070037009800D5
:102D8400DE00F400F800CA8894F81834BAB1022BB3
:102D940001D0052B0FD14B883046C4F800340323EF
:102DA4002146C4F8042484F8183484F8143400F058
:102DB400EBFC002513E0304600F0AAFCF9E7052BF4
:102DC40001D0022BF7D14FF483730025A4F81834F3
:102DD400062384F81154A4F8125484F814342846B1
:102DE40002B0BDE8F081CA88002A53D094F81834A0
:102DF400022B01D0092B47D14F88C4F80424C4F80E
:102E04000074B7B94FF40453032A98BF4FF009086C
:102E1400238041230322214684F8188484F8117402
:102E2400A4F8127484F81484A370304600F097FC5C
:102E3400BFE7012F4FF0000519D0092384F811547E
:102E440084F81834A4F8125484F81434D4F8080418
:102E5400D6F8BC32023F21465B6900EB87209847D5
:102E64000146B4F80424304600F079FCB7E70F2398
:102E740084F8115484F81834A4F8125484F81434DF
:102E8400304600F045FCAAE70025C4F80454C4F811
:102E94000054F5E7022384F8112484F81834A4F8C4
:102EA400122484F8143484E794F8183404F5826501
:102EB400032B04D0062B26D006222946B5E7D4F8E6
:102EC4000434D3B10423002284F8183484F8112480
:102ED400A4F8122484F81434D0F8BC32D4F80014C2
:102EE4009B69D4F8080429B92278412A02D12A46D8
:102EF4009847E1E72A460121FAE7052284F81824D5
:102F040084F8113409E094F81934012B0AD107220A
:102F140084F81134002384F81824A4F8123484F8B3
:102F24001424C9E7002BC7D14C4A127D5207C3D5DC
:102F34000222E3E794F818340A2B08D1022300256F
:102F440084F81834C4F81054A4F8143447E70A2356
:102F54000E2284F81834C4F81024A4F8143428E792
:102F6400012204F5836160E794F81834092B3FF6D5
:102F740020AF4FF41B75DD40ED4315F001057FF4E0
:102F840018AF0223C4F8105484F81834A4F8143485
:102F9400C4F80054C4F8045421E794F81824092A06
:102FA40011D84FF41B73D340DB4313F001030AD150
:102FB4000222C4F8103484F81824A4F81424C4F8A1
:102FC4000034C4F80434254B5D7D15F0100507D09A
:102FD400304600F075F8304600F06DF84546FEE6E0
:102FE4004888FDF7E3FAFAE64F780B2F12D8DFE8AA
:102FF40007F006111111111116111111232B90F85C
:103004009C32032B06D102220DF1060100F0A7FB2E
:103014003D46E4E6304600F07BFB0225DFE64B88C4
:103024001B0A212B05D1CA880D49092A28BF092268
:1030340019E70022114616E790F89C32032BE9D1D8
:10304400012204F20C410EE78D78002DE2D190F8B4
:103054009C32032BDED1C4F80C54C0E64800002097
:103064005A0000200020704700207047002070475D
:103074000020704709B1C0F8BC120020704708B5A1
:1030840080B1D0F8B43213B10023C0F8B43209B11E
:10309400C0F8B0120123027080F89C3200F0F2FCF8
:1030A400002008BD0220FCE719B1C0F8B4120020CA
:1030B40070470220704708B500F00EFD002008BDDF
:1030C40010B50446D0F8B43201795B6898472046BD
:1030D40000F010FD002010BD08B5D0F8B4320BB9D3
:1030E400022008BD1B6898470028FAD0F8E708B505
:1030F400D0F8B4325B689847002008BD38B500F5B5
:103104002A750446284600F0EFFA012394F8A81221
:10311400C4F89432B4F8AE32C4F8983201F01F0304
:10312400012B08D0022B0BD07BB92946204600F096
:10313400FBF8002038BD2946204600F027FAF8E7BE
:103144002946204600F046FAF3E7204601F08001C4
:1031540000F0EEFCEDE770B5044616460D4639BBAB
:10316400D0F89432032B1CD1D0E9581291420BD9D8
:10317400891A8A42C0F860118CBF8AB292B2314671
:1031840000F00FFB284670BDD0F8B4321B6923B1A0
:1031940090F89C22032A00D19847204600F009FBAE
:1031A400F0E7052BEED1C4F8941200F0C1FCE9E776
:1031B400D0F8B4329B6933B190F89C22032A02D12F
:1031C40098470025DEE70225DCE7F8B504461746F4
:1031D4000D46002947D1D0F89432022B3CD1D0E9D6
:1031E40008639E4214D9F31A394603629AB200F076
:1031F400C3FA2B462A462946204600F0E3FC94F8FD
:10320400A032012B02D1002384F8A0322846F8BD55
:10321400C269B2FBF3F603FB16265EB9934209D8E2
:10322400D0F898329A4205D20A4600F0A5FAC4F8BA
:103234009852DEE7D4F8B432DB682BB194F89C22C0
:10324400032A01D1204698478021204600F070FCD3
:10325400204600F0B9FAD2E733F00403CFD180213D
:1032640000F066FCCBE7D0F8B4325B6933B190F878
:103274009C22032A02D198470025C7E70225C5E707
:10328400002270B50446012540261146402300F073
:103294003FFC3346802100222046C4F85851C4F82C
:1032A400646100F035FC0021D4F8B832A56166628F
:1032B40084F89C52C4F894126160C4F8A41223B137
:1032C400D4F8B43220465B689847002070BD01747E
:1032D4000020704790F89C3280F89D32042380F8D7
:1032E4009C320020704790F89C32042B04BF90F865
:1032F4009D3280F89C320020704708B590F89C22DB
:10330400032A04D1D0F8B432DB6903B19847002012
:1033140008BD10B50446802100F00AFC2046BDE833
:103324001040002100F004BC37B50B78044603F0CC
:103334006003202B0D4612D0402B10D0002B51D10E
:103344004B78092B4ED8DFE813F0F70013014D003A
:103354000C014D00900013004D00DF00AC00D4F8C8
:10336400B432294620469B689847002003B030BDFC
:1033740000234988ADF806300B0A013B062B31D8EF
:10338400DFE803F00416233030515B00D0F8B0328C
:103394001B68207C0DF106019847BDF80620002A21
:1033A4005FD0EB88002B53D1204600F002FADCE713
:1033B400027CD0F8B43232B99B6A0DF1060098470A
:1033C40002234370E9E7DB6AF7E7C9B2052921D88C
:1033D400DFE801F0030C1014181CD0F8B0325B685D
:1033E400002BD6D12046FFF794FFBEE7D0F8B032C9
:1033F4009B68F5E7D0F8B032DB68F1E7D0F8B0327B
:103404001B69EDE7D0F8B0325B69E9E7D0F8B03278
:103414009B69E5E7D0F8B4329B6B002BE2D00DF149
:1034240006029847B9E7037C002BDBD1D0F8B4320D
:103434000DF106005B6B9847AFE7037C002BD1D1FD
:10344400D0F8B4320DF106001B6B98470723B8E798
:103454009A4228BF1A4601462046ADF8062000F0DD
:103464007EF9EB88002B80D19EE78B88002BB9D1A5
:10347400CB88002BB6D14D887F2DB3D890F89C32E1
:10348400032BAFD0E9B280F89E1200F07FFB2046F8
:1034940000F08FF91DB1022384F89C3265E7012303
:1034A400FAE78978384D012929709BD890F89C3225
:1034B400022B08D0032B15D0FFF72BFF20462978C9
:1034C400FFF715FE51E700293FF46EAF01210323F6
:1034D400416080F89C322046FFF7FEFD02287FF40D
:1034E40063AF7FE731B90223416080F89C32FFF774
:1034F400FEFD59E7416801293FF456AFC9B2FFF711
:10350400F6FD29786160E6E7CA88012A7FF46AAF8C
:1035140090F89C32022B0AD8002B3FF463AF01468B
:10352400002341F8083F204600F019F91DE7032B5A
:103534007FF458AF011DF6E790F89C32013B022B53
:103544003FF650AFCB88022B7FF44CAF0123C3600E
:10355400D0F8A4320BB10323C360022204F10C019E
:10356400E1E74B88012B7FF400AFC4F8A4321BE7DA
:1035740090F89C32013B022B3FF634AF4B88012B71
:103584007FF4F3AE0023F0E7FB01002038B50B789D
:10359400044603F06002402A0D4601D05B0615D4B0
:1035A40094F89C32013B022B10D82B79012B0DD8B7
:1035B400D4F8B43229469B6820469847EB881BB957
:1035C40010B9204600F0F5F8002038BD2046FFF77A
:1035D400A0FEF9E738B50A78044602F06002202A12
:1035E4000B4627D0402A25D092BB5A788D88012AD1
:1035F40009793DD0032A25D052BB90F89C32022B86
:103604004DD0032B24D1142201F00F0315F0800FA9
:1036140002FB030354D09B69D3B1142301F07F054B
:1036240005FB0333C51811F07F0355D12B6002222B
:10363400294641E0D4F8B4221946204692689047BE
:10364400002038BD90F89C22022A1FD0032A03D000
:103654002046FFF75EFEF3E75A882AB94A0603D0EC
:10366400DB880BB900F064FA204600F0A2F8E7E723
:1036740090F89C22022A09D0032AE9D15B88002B06
:10368400DED14D06F0D000F061FAEDE74B06DFD055
:1036940000F04EFA8021204600F04AFAD0E74A06AC
:1036A400D6D12B064FF000034FF002024CBF00F1BD
:1036B400140100F5AA710B60204600F050F8BFE732
:1036C400D3F85831002BC3D0142301F07F0503FB3A
:1036D400050505F5AA75A6E7204600F045FA08B1E8
:1036E4000123A3E72860A2E70B7803704B784370AB
:1036F400CA788B7803EB022343804A790B7903EB76
:1037040002238380CA798B7903EB0223C380704739
:1037140010B50446802100F00BFA2046BDE81040A5
:10372400002100F005BA30B588B1002501382B46D8
:103734000135445D002CFAD1DBB201335B00138008
:103744000B7003234B70022310F8015F05B930BDE1
:103754005A1CCD54D2B20233DBB28C54F4E7134674
:10376400022210B5C0E90733C0F894220A460021AA
:1037740000F01AFA002010BD08B513460A460021CD
:1037840000F012FA002008BD1346032210B5C0E968
:103794005733C0F894220A46002100F013FA00209F
:1037A40010BD08B513460A46002100F00BFA0020AC
:1037B40008BD08B50423C0F8943200231A461946FC
:1037C40000F0F2F9002008BD08B50523C0F89432D2
:1037D40000231A46194600F0F5F9002008BD000040
:1037E40008B500220E490F48FFF749FC08B1FCF761
:1037F40025FE0D490B48FFF757FC08B1FCF71EFEE8
:103804000A490848FFF736FC08B1FCF717FE0548DB
:10381400FFF751FC18B1BDE80840FCF70FBE08BD26
:1038240070000020480600200C000020C00000208A
:10383400122301480B8070478C00002004230148A8
:103844000B807047A0000020002370B51E464D1C5D
:10385400040FB0F1204F34BF3034373401F8134033
:1038640005F813600133DCB2A2424FEA0010EFD82E
:1038740070BD00001A2310B50B80094B186808337B
:103884001B68C0180AD0074B08221C680649FFF7BA
:10389400DBFF042220460549FFF7D6FF044810BD8C
:1038A400E8F7FF1FECF7FF1FA6000020B60000207A
:1038B400A400002010B5044C0A4604482146FFF732
:1038C40032FF204610BD00BF0C090020813C0008D7
:1038D40010B5044C0A4604482146FFF724FF20464D
:1038E40010BD00BF0C090020933C000810B5044C27
:1038F4000A4604482146FFF716FF204610BD00BFC4
:103904000C090020A13C000810B5044C0A460448E8
:103914002146FFF708FF204610BD00BF0C09002018
:10392400AC3C0008034610B508461A4401399342DA
:1039340000D110BD13F8014B01F8014FF7E7002047
:10394400322390705370D0707047F8B517460D4607
:10395400061FC0F10404A3199F4201D80020F8BD3A
:103964000023294602207268FCF708FF38B955F88D
:10397400043B56F8042F9A42EDD00220EFE70120D1
:10398400EDE700007FB50023CDE90133F023064ABB
:1039940001A902A8CDE90423FCF766FF003818BF8B
:1039A400012007B05DF804FB0080000808B5FCF7AF
:1039B400B1FE002008BD08B5FCF79AFE002008BD42
:1039C40007B50E4B02689A4215D103F5DA33DA696A
:1039D400012142F40002DA61DB69002203F40003EE
:1039E40001931420019BFCF705FE142003B05DF83D
:1039F40004EBFCF731BE03B05DF804FB005C00404F
:103A040000F52C71D0F8E802FFF778BB282303FBFC
:103A14000103D0F8E802D3F87C21FFF79CBB2823EC
:103A240003FB0103D0F8E802DA6BFFF7CEBBD0F852
:103A3400E802FFF762BC836810B5022B044601D08C
:103A4400FCF7FCFCD4F8E8020121FFF740FCD4F8B1
:103A5400E802BDE81040FFF713BC000010B50446AF
:103A6400D0F8E802FFF736FCA36923B1024A1369D0
:103A740043F00603136110BD00ED00E0D0F8E80246
:103A8400FFF731BC082310B5114A04461148C0E9B8
:103A94000023022383600023C0F8E842C4F8C00274
:103AA400C0E906330362FDF7A1F808B1FCF7C6FCD0
:103AB400002218231146D4F8C002FDF7F4FE58235F
:103AC40000228021D4F8C002FDF7EDFE002010BDD5
:103AD400005C00400C0B002008B5D0F8C002FDF7D4
:103AE400FEF8032896BF024B0220185C08BD00BFF5
:103AF400FB3C000808B5D0F8C002FDF709F903281B
:103B040096BF024B0220185C08BD00BFFB3C0008B6
:103B140010B51446D0F8C0021A462346FDF7FAFD44
:103B2400032896BF014B0220185C10BDFB3C000823
:103B340008B5D0F8C002FDF750FE032896BF024B2B
:103B44000220185C08BD00BFFB3C000808B5D0F893
:103B5400C002FDF776FE032896BF024B0220185CD4
:103B640008BD00BFFB3C0008282311F0800FD0F8EB
:103B7400C0221BBF01F07F0101FB033103FB0121C4
:103B8400891814BF887891F86A01704708B5D0F88D
:103B9400C002FDF7D6F8032896BF024B0220185C3A
:103BA40008BD00BFFB3C000808B5D0F8C002FDF713
:103BB400FAFD032896BF024B0220185C08BD00BF23
:103BC400FB3C000808B5D0F8C002FDF7D5FD03287A
:103BD40096BF024B0220185C08BD00BFFB3C0008E6
:103BE40000487047FC0100207047704770B50026FC
:103BF4000C4D0D4C641BA410A64209D100F022F810
:103C040000260A4D0A4C641BA410A64205D170BDBF
:103C140055F8043B98470136EEE755F8043B9847BE
:103C24000136F2E7003D0008003D0008003D0008B1
:103C3400043D000803460244934200D1704703F850
:103C4400011BF9E7F8B500BFF8BC08BC9E467047F5
:0C3C5400F8B500BFF8BC08BC9E467047E5
:103C6000000000000000000001020304060708092C
:103C700002030405060708090A0B0C0D0E0F1010AD
:103C800000656E6E612053797374656D7320476DA6
:103C9000624800656E6E6120446F636B2044465538
:103CA0000044465520436F6E6669670044465520C0
:103CB000496E746572666163650040496E74657231
:103CC0006E616C20466C6173682020202F30783044
:103CD000383030303030302F30322A31364B612C92
:103CE00030312A3132384B672C30312A3036344B60
:103CF000672C30322A3031364B6700000201020057
:043D000009020008AC
:043D0400E5010008CD
:103D08000024F4000100000010000000E52C000869
:103D1800AD2C00084D2D0008612B0008512B000820
:103D28004D2B00086D300008753000087130000810
:103D380069300008412B0008412B0008412B00087E
:103D4800552B00082D2D000809021B00010102C097
:103D5800320904000000FE01020609210BFF0000E1
:103D6800041A01000A0600020000004001000000D9
:103D78003538000841380008B9380008D538000837
:103D880079380008F13800080D39000812010002DE
:103D980000000040830411DF00020102030100005B
:103DA800040307041A0300000000000000000000DC
:103DB80000000000000000000000000000000000FB
:103DC800BA3C0008BB390008B13900088939000835
:0C3DD8004F390008293900084339000861
:04000005080004B536
:00000001FF
