:020000040800F2
:1000000000C00020C90400089104000899040008F9
:100010009D040008A1040008A504000800000000D9
:10002000000000000000000000000000A90400081B
:10003000AD04000800000000B1040008B504000889
:100040001105000811050008110500081105000838
:100050001105000811050008110500081105000828
:100060001105000811050008110500081105000818
:100070001105000811050008110500081105000808
:1000800011050008110500081105000811050008F8
:10009000B904000811050008110500081105000841
:1000A00011050008110500081105000811050008D8
:1000B00011050008110500081105000811050008C8
:1000C00011050008110500081105000811050008B8
:1000D00011050008110500081105000811050008A8
:1000E0001105000811050008110500081105000898
:1000F0001105000811050008110500081105000888
:100100001105000811050008110500081105000877
:100110001105000811050008110500081105000867
:100120001105000811050008110500081105000857
:1001300000000000000000000000000000000000BF
:1001400000000000000000000000000000000000AF
:10015000000000000000000000000000000000009F
:10016000000000000000000000000000000000008F
:10017000000000000000000000000000000000007F
:10018000000000000000000000000000000000006F
:10019000000000000000000000000000000000005F
:1001A000000000000000000000000000000000004F
:1001B000000000000000000000000000000000003F
:1001C000000000000000000000000000000000002F
:1001D000000000000000000000000000000000001F
:0401E0005FF8E0F1F3
:1001E40010B5054C237833B9044B13B10448AFF36D
:1001F40000800123237010BDE000002000000000F7
:100204000C43000808B5034B1BB103490348AFF383
:10021400008008BD00000000E40000200C4300083A
:100224000023012210B5012096B04FF4803102243E
:10023400CDE91133CDE90133CDE90333CDE90733FA
:10024400CDE909330E930093069310920F934FF464
:1002540080320B934FF48013CDE90C010CA8139456
:100264001492159301F098FD08B172B6FEE70F22BF
:100274000223CDE900234FF4806300220490214639
:100284006846CDE9022301F077FF034608B172B650
:10029400FEE7102206A80B93069202F059F808B163
:1002A40072B6FEE702F03EF816B010BD002480B529
:1002B40088B000F063F9FFF7B3FFCDE90444CDE95A
:1002C4000644584B4FF400719A69574842F0200293
:1002D4009A619A69012502F020020092009A9A69B3
:1002E400012642F008029A619A69022702F0080284
:1002F4000192019A9A6942F010029A619A6902F095
:1003040010020292029A9A6942F004029A619B696D
:10031400224603F004030393039B00F067FD224687
:100324004FF48071414800F061FD032200234048EE
:1003340004A9CDE90423069500F08CFB4FF4007268
:100344000123394804A9CDE90667CDE90423002631
:1003540000F080FB02274FF480720123334804A984
:10036400CDE90667CDE9042300F074FB022130488F
:1003740000F036FDC0B12F4C2F4B22681340B3F16F
:10038400005F18D003F0EAFC01224FF48071274883
:1003940000F02CFD244C20464FF4007100F02AFD9F
:1003A400642000F00FF9F6E72946214800F018FD13
:1003B4000028E0D1E6E702211D4800F073FC01218A
:1003C4001B4800F06FFC4FF40071174800F06AFC02
:1003D4004FF48071154800F065FC124B9A6922F0C5
:1003E40010029A619A6922F020029A619A6922F0B5
:1003F40008029A619A6922F004029A6101F05CFC95
:1004040000F088F84FF0E02300221A615A619A61E3
:1004140063680A480A49036022680B6082F308880B
:100424009847AFE700100240001001400008014067
:10043400000C0140008000080000FC2FFC0000209C
:100444000001002072B6FEE70E4B82B09A690E4995
:1004540042F001029A619A6902F001020092009A44
:10046400DA6942F08052DA61DB6903F08053019368
:10047400019B4B6823F0E06343F000734B6002B0D0
:10048400704700BF001002400000014008B501F0B1
:1004940051FFFEE7FEE700BFFEE700BFFEE700BF37
:1004A400FEE700BF704700BF704700BF704700BF42
:1004B40000F076B8014800F059BD00BFF0060020F6
:1004C400704700BF0C480D490D4A002302E0D45880
:1004D400C4500433C4188C42F9D30A4A0A4C00238A
:1004E40001E013600432A242FBD3FFF7E9FF03F0FB
:1004F400E7FEFFF7DBFE704700000020DC00002071
:10050400D8430008E0000020FC0D0020FEE70000B6
:10051400704700BF10B54FF0FF320024044BDA607F
:100524001C61DA60DC60FFF7F3FF204610BD00BFFA
:100534000010024038B54FF47A730D4A054611781D
:100544000C4AB3FBF1F31268B2FBF3F000F0AAF823
:1005540008B90F2D01D9012038BD044602462946A9
:100564004FF0FF3000F052F8034B20461D6038BDB9
:10057400040000200000002008000020074A08B5FD
:100584001368032043F01003136000F02DF80020DB
:10059400FFF7D0FFFFF758FF002008BD00200240FE
:1005A400034A044B11681B780B441360704700BF67
:1005B4000401002004000020014B1868704700BFAC
:1005C4000401002038B50446FFF7F6FF631C054616
:1005D40002D0044B1B781C44FFF7EEFF401BA042E3
:1005E400FAD338BD040000204FF6FF0C064903027D
:1005F400CA6803F4E06302EA0C02134343F0BF63E6
:1006040043F40033CB60704700ED00E01C4B00B5B1
:10061400DB68C3F30223C3F1070EBEF1040F03F139
:10062400040C28BF4FF0040EBCF1060F1BD94FF089
:10063400FF3C033B0CFA03FC22EA0C024FF0FF3CA4
:100644000CFA0EFC21EA0C019940002841EA02014F
:100654000CDB090100F16040C9B200F5614080F88B
:1006640000135DF804FB00221346E7E7054B00F096
:100674000F000901C9B2034419765DF804FB00BFF9
:1006840000ED00E0FCEC00E0002807DB012300F0B3
:100694001F01034A40098B4042F82030704700BFD5
:1006A40000E100E00138B0F1807F0FD24FF0E02389
:1006B4004FF0F00C0022072110B4054C586184F867
:1006C40023C010469A6110BC19617047012070471D
:1006D40000ED00E02DE9F04FDFF8C49183B099F804
:1006E4001840012C00F0CF809A4601230646884624
:1006F400934689F81830FFF75FFF4CF250370446F1
:10070400684D05E0FFF758FF001BB84200F2B980BE
:10071400EB68DA07F6D4EB689B0644BF2023EB6052
:10072400604BDA68D70653D4DA69D50750D4DF684A
:1007340017F004074CD1012E03D0022E0CBF022661
:10074400042608EB46034CF25036564C0193C7F18D
:1007540020010AFA01F12BFA07F30B430021A7F158
:100764002002C9F81C102AFA02F2134322699BB230
:1007740042F001022261A8F80030FFF71DFF054690
:1007840004E0FFF719FF401BB04272D8E368D907B1
:10079400F7D4E3689A0644BF2023E360E368DB06EA
:1007A40039D4E369DD0736D4E06810F0040032D1AF
:1007B400236908F1020823F001032361019B103728
:1007C4009845C4D1002389F8183003B0BDE8F08FF0
:1007D400344BDB6813F0100359D10421314AD26839
:1007E400540706D50B46D9F81C2042F00102C9F87B
:1007F4001C202C4AD169C80709D5D9F81C1041F02E
:100804000401C9F81C10D16921F00101D161254A04
:100814000120D360D6E7234BDA6812F010022ED001
:1008240014211022D9F81C3043F00203C9F81C30FB
:100834001C4BDB68580706D50A46D9F81C3043F030
:100844000103C9F81C30174BD969C90709D5D9F870
:100854001C1041F00401C9F81C10D96921F00101F0
:10086400D961104B0120DA601A6922F001021A6181
:10087400A8E72369032023F001032361A2E70421ED
:10088400D6E703209EE7022003B0BDE8F08FD9F835
:100894001C20142142F002021023C9F81C209DE7F9
:1008A4000801002000200240064B186910F0800067
:1008B40006D00549054A59605A601869C0F3C0104A
:1008C400704700BF0020024023016745AB89EFCD8C
:1008D400034A0020136943F080031361704700BF8B
:1008E4000020024070B50446FFF766FE0546264E1A
:1008F400601C36D1244AD368D907FCD4224BDA6869
:10090400960644BF2022DA601F4BDA68D50607D466
:10091400DA69D40704D4D86810F0040000D170BD9B
:10092400194BDB6813F0100326D10421164AD26850
:10093400500705D50B461549CA6942F00102CA6140
:10094400114AD169C90708D51048C16941F00401A9
:10095400C161D16921F00101D1610B4A0120D36049
:1009640070BDF368DB07C9D524B1FFF725FE401B32
:10097400A042BDD9032070BD04481421C2691023CC
:1009840042F00202C261D1E70020024008010020C7
:100994002DE9F8432D4E337E012B54D001233376B9
:1009A40003688146022B31D04CF250308846FFF761
:1009B40099FF074678BB4FF0FF33C8F80030D9E9F8
:1009C400025305EBC3239D4225D2214C07E005F5D4
:1009D4000065D9E9023203EBC223AB421CD9F761AB
:1009E40023694CF2503043F00203236165612369AB
:1009F40043F040032361FFF775FF236923F00203EB
:100A040023610028E3D0C8F8005005E04CF25030D0
:100A1400FFF768FF20B1012000233376BDE8F88397
:100A24000B4CF06123694CF2503043F00403236112
:100A3400236943F040032361FFF754FF236923F044
:100A440004032361E8E70220BDE8F88308010020DD
:100A5400002002402DE9F04F0E6883B0002E00F014
:100A6400BE800022854F92461346854DDFF81482DE
:100A740006E0013336FA03F402F1040200F0AF8019
:100A840001249C4034EA060E04EA060CF1D14E68B7
:100A9400122E00F2A780122E1AD8DFE806F0B0C298
:100AA400BED719191919191919191919191919BAAE
:100AB400C500DFF8D4E1764500F0A1800EF5702E74
:100AC400764500F09C80AEF5801E764500F0978058
:100AD400BCF1FF0F9CBF864693464FF00F0684BFC0
:100AE40000F1040EA2F1200BDEF800400AFA0BF923
:100AF40006FA0BFB24EA0B0444EA0904CEF800408E
:100B04004C6814F0805F00F08280D7F818E003F09E
:100B140003094EF0010EC7F818E0D7F818E04FEAC1
:100B240089090EF0010ECDF804E0DDF804E023F0AD
:100B3400030E0EF1804E0EF5803EDEF808B006FA84
:100B440009F62BEA0606DFF844B158451BD00BF52D
:100B5400806B584573D0DFF838B1584568D0DFF85A
:100B640034B158457CD0DFF830B158457FD0DFF838
:100B74002CB158450CBF4FF0050B4FF0060B0BFA88
:100B840009F946EA0906CEF808602E6814F4803F95
:100B940014BF46EA0C0626EA0C062E606E6814F4AE
:100BA400003F14BF46EA0C0626EA0C066E60AE68E7
:100BB40014F4801F14BF46EA0C0626EA0C06AE6045
:100BC40014F4001FEC681FD044EA0C04EC600E68B7
:100BD400013336FA03F402F104027FF451AF03B097
:100BE400BDE8F08F46450AD07FF663AFDFF8B0E08A
:100BF400764504D00EF5803E76457FF469AF8E6865
:100C04003EBB4FF0040A63E724EA0C04EC600E6870
:100C14002FE7CC6804F1040A5AE7CC6804F1080A07
:100C240056E7D1F80CA053E7CC6804F10C0A4FE75F
:100C34004FF0020B0BFA09F946EA0906A3E74FF055
:100C4400010B0BFA09F946EA09069CE74FF0000A82
:100C54003EE7012E4FF0080A0CBF0461446137E7F8
:100C64004FF0030B0BFA09F946EA09068BE74FF03C
:100C7400040B0BFA09F946EA090684E7001002405E
:100C8400000401400000221000001210000801407E
:100C9400001001400014014000180140001C0140F4
:100CA40000003110002900F08C802DE9F04F002461
:100CB40001274FF00F082246DFF80891424E54E016
:100CC400DFF808B158456AD0DFF804B1584569D057
:100CD400DFF800B158456AD0DFF8FCB058456BD056
:100CE400DFF8F8B0584514BF4FF0060B4FF0050B72
:100CF4000BFA03F39E456FEA050E15D1DCF80830B4
:100D040023EA0A03CCF80830336823EA0503336086
:100D1400736823EA05037360B36823EA0503B360C9
:100D2400F36823EA0503F360FF2D9CBF8446A246C3
:100D34004FF0040588BF00F1040CDCF8003088BFD4
:100D4400A4F1200A08FA0AFB23EA0B0305FA0AF5C0
:100D54002B43CCF80030C36803EA0E03C3600132AE
:100D640031FA02F304F1040417D007FA02F313EA88
:100D74000105F4D022F0030C0CF1804C0CF5803CFE
:100D840002F00303DCF808E09B0008FA03FA484584
:100D94000AEA0E0E94D10023ACE7BDE8F08F07FAFF
:100DA40003F3A7E74FF0020B0BFA03F3A2E74FF0AC
:100DB400030B0BFA03F39DE74FF0040B0BFA03F359
:100DC40098E770470008014000040140000C01400E
:100DD400001001400014014000180140001C0140B3
:100DE4008368194214BF01200020704702B9090426
:100DF40001617047C36801EA030221EA030141EA81
:100E040002410161704700BFF0B587B0002874D07B
:100E140090F8A932054603F0FF02002B68D00323A3
:100E24002E4685F8A932286801F026FB56F810EB07
:100E34006C46B446BCE80F000FC4DCF800302F1D2C
:100E44002360704697E80E0001F004FB044630B1BD
:100E540001240223204685F8A93207B0F0BD0146DB
:100E6400286801F013FB686850B322464FF0010E66
:100E7400214602EB820305EBC30302F1010C83F864
:100E84002820DA865FFA8CF28242C3E90E1183F8D5
:100E940029E083F82B101964EBD3002204EB8403BC
:100EA40005EBC303611C83F86841CCB28442C3E9F7
:100EB4005E2283F8692183F86B21C3F88021EDD386
:100EC4000FCE6C460FC433682868236097E80E0081
:100ED40001F0DEFA04460028BAD1012385F8240083
:100EE400286885F8A93201F0E5FF204607B0F0BD77
:100EF40080F8A82203F0C2F891E70124204607B045
:100F0400F0BD00BF38B590F8A832012B12D00446CA
:100F14000125006884F8A85201F0A4FA2946204665
:100F240003F0CCF9206801F0C3FF002384F8A83251
:100F3400184638BD022038BD90F8A832012B13D0D2
:100F440010B501230446006884F8A83201F094FA2D
:100F54000021204603F0B2F9206801F0ABFF002322
:100F640084F8A832184610BD022070472DE9F84FC6
:100F74000446006801F0A0FF030400F19980206892
:100F840001F09AFF450500F1D581206801F094FF36
:100F940010F4804F206807D0B0F8443023F4804325
:100FA4001B041B0CA0F8443001F086FF10F4005F12
:100FB400206807D0B0F8443023F400531B041B0C02
:100FC400A0F8443001F078FFC00400F130822068BA
:100FD40001F072FF010555D52368B3F80080B3F81A
:100FE40004E0B3F808C09F891E8A9D8A188B998BE8
:100FF400B3F840201FFA88F892B242F00102A3F835
:101004004020B3F840201FFA8EFE22F001021204A1
:10101400120C1FFA8CFCBFB2B6B2ADB280B289B268
:10102400A3F84020B3F844205205FBD5B3F844207C
:1010340022F480621204120CA3F84420A3F8008066
:10104400A3F804E0A3F808C09F811E829D82188340
:101054009983B3F84020204692B242F00802A3F8E4
:101064004020B3F8442022F400621204120CA3F8C6
:101074004420B3F8402092B242F00402A3F8402086
:1010840003F04EF8206801F017FF820500F1C281D9
:10109400206801F011FFC30508D52268B2F8443076
:1010A40023F480731B041B0CA2F84430BDE8F88FB2
:1010B4002268B2F8443010461F047FF561AFDFF8B0
:1010C4004C93DFF84CA311E011F0100100F05081B3
:1010D400018811F400658BB240F075811E0400F1A3
:1010E400FF81B0F844301E0440F11E81B0F8445032
:1010F400A9B215F00F05E7D030F82530AE00190479
:101104001FFA83F800F19F8018F0800FE9D030F8BF
:10111400253077199BB203EA090343F4004320F80E
:10112400253004EBC70797F82B30032B00F0CF8052
:10113400002B00F0CC80022B03D118F4807F00F048
:10114400C680B0F8503097F828109BB203EBC10367
:1011540018F0400C00EB430300F0398206EB050C59
:10116400B3F8043404EBCC0CDCF840E0C3F309031B
:101174009E4540F23483AEEB030ECCF840E0BEF162
:10118400000F00F02F8318F4804F0FD030F821C0E7
:101194002CF4E04C2CF0700C4FEA0C4C4FEA1C4C35
:1011A4004CF4404C4CF0800C20F821C006EB050EAA
:1011B40004EBCE0E9EF84CC0BCF1010F40F0FF8250
:1011C400DEF83C20DEF8488002EB030CDEF8442015
:1011D400CEF83CC01A44CEF84420DEF838209045BE
:1011E400C0F0CE83A8EB0203CEF8483093B297F850
:1011F40029E0BEF1000F40F0B683B0F850E000EBF8
:10120400011101F204481FFA8EFE08EB0E01002AB8
:1012140040F0E88338F80E2022F4F8421204120C4D
:1012240028F80E2038F80E2092B242F4004228F832
:101234000E20721904EBC202128E614601F042FEC6
:1012440020680246BBE240F68F7330F825207119FE
:10125400134043F0800320F8253004EBC10191F8DA
:101264007431002B40F00181B0F8503091F86821BE
:101274009BB2063303EBC20300EB4303B3F8003421
:10128400C3F309031F46002B40F09181711904EB4D
:10129400C103D3F88421C9003A44C3F88421D3F8A4
:1012A4007C213A44C3F87C21D3F8802122B1D3F8BD
:1012B4007831BB4240F28281731904EBC3032046A8
:1012C40093F8681102F002FF206802461CE7B0F8A8
:1012D400503097F828109BB203EBC1032E4400EB67
:1012E4004303B3F8043404EBC606326CC3F30903B6
:1012F4009A4240F2ED80D21A3264002A00F0EA8069
:10130400F26B01351A44F263726C05EB85051344E4
:10131400736404EBC50101F043FA2068B0F844306B
:1013240002461E043FF5E2AE104601F0C5FD450538
:101334007FF52BAE22682046B2F8443023F4806354
:101344001B041B0CA2F8443002F0D8FE94F8A83217
:10135400012B3FF41AAE002501232946206884F8A6
:10136400A83284F8245001F09DFD84F8A8520CE6BC
:1013740003889BB203EA090343F400430380B0F8F3
:10138400503094F828209BB203EBC20300EB4300D7
:10139400B0F80434E26BC3F3090363641344E363F6
:1013A400204602F09DFE94F8243063B3236C53BBB3
:1013B40094F82420206842F08002A0F84C200246D1
:1013C40084F824308DE6B0F8503094F868219BB24C
:1013D40003EBC20300EB4303B3F80C34B4F86E21FF
:1013E400C3F30903C4F8843104F52C7101F07AFDC8
:1013F40040F68F732268204611880B4043F0800327
:10140400138002F05BFE206802466AE60F8FFFFF3E
:10141400BF8FFFFF22682046B2F8443023F40073E4
:101424001B041B0CA2F8443002F064FE30E6226870
:101434002046B2F8403023F004031B041B0CA2F82E
:101444004030B2F8403023F008031B041B0CA2F810
:10145400403002F075FE2068B0F8443023F4805325
:101464001B041B0CA0F84430B2E591F86B31022B3D
:1014740000F0258191F8682130F8223023F4E0430C
:1014840023F070031B041B0C43F4004343F0C0031C
:1014940020F8223091F8682130F8223013F4804F7C
:1014A400B0F850309BB26ED0023303EBC20300EBB2
:1014B4004303B3F80034C3F309031F46002B3FF47E
:1014C400E5AEB1F87021D1F87C1101F00BFDDDE639
:1014D40000233364204602F003FE2068024600E63F
:1014E40040F68F730288134043F080030380B0F802
:1014F400503094F868219BB203EBC20300EB430322
:10150400B3F80C34C3F30903C4F8843193B1D4F8A9
:101514007C1179B1B4F86E2101F0E4FCD4F87C318B
:10152400D4F88421204613442946C4F87C3102F0BF
:10153400CDFD2068038802461D053FF5D2ADB0F805
:101544005030D4F878119BB200F20C45002940F0D9
:10155400AB80E95A21F4F8410904090CE952E95A2B
:1015640089B241F40041E952038823F4804323F013
:1015740070031B041B0C83F4405343F4004343F0F7
:1015840080030380ADE5063303EBC20300EB4303A2
:10159400B3F80034C3F309031F46002B3FF476AEBF
:1015A400B1F87221D1F87C1101F09CFC6EE6B1F81F
:1015B4006E21D1F87C1101F095FC67E601F5B47158
:1015C4002068214401F0ECF8206802469CE5B3F859
:1015D4000CE4731904EBC303D3F840B0CEF3090E43
:1015E400F345C0F0AA80ABEB0E0CC3F840C0BCF1CD
:1015F400000F00F0A48018F4804F0DD130F8213092
:1016040023F4E04323F070031B041B0C43F4404316
:1016140043F0800320F82130731904EBC30393F8DB
:101624004CC0BCF1010F40F0CA80DA6BD3F848809B
:1016340002EB0E0C5A6CC3F83CC072445A649A6BA9
:101644009045C0F0B381A8EB0208C3F848801FFAA4
:1016540082FE97F82930002B40F09B8100EB0111AA
:1016640001F20C48B0F8501089B208EB0103002ACB
:1016740040F0D88138F8013023F4F8431B041B0CE4
:1016840028F8013038F801309BB243F4004328F8BD
:101694000130721904EBC20273466146528E01F0A6
:1016A40011FC206802468AE03E2900F2CB804E08F5
:1016B400C90748BF0136B10289B2E95254E7B0F80C
:1016C400503018F4804C9BB200F0C78091F8682128
:1016D400023303EBC20300EB4303B3F80034D1F845
:1016E40080C1C3F309039C451F46C0F01281ACEBD3
:1016F400030CC1F880C1BCF1000F00F00E8118F09A
:10170400400F0DD030F8221021F4E04121F0700197
:101714000904090C41F4004141F0C00120F82210F1
:10172400002B00F0C380711904EBC101B1F87021E2
:10173400D1F87C1101F0D6FBA8E5C3F840C097F8B6
:101744002930002B40F0BE80B0F850500B0103F25A
:1017540004460644ADB2725B03F20C4322F4F84231
:101764001204120C7253725B034492B242F40042AC
:101774007253B0F8500080B21A5A22F4F84212049C
:10178400120C1A521A5A92B242F400421A522046C9
:1017940002F0A6FC18F4804F206883D1024697F823
:1017A400281030F8213023F4E04323F070031B04A5
:1017B4001B0C43F4404343F0800320F8213097F896
:1017C400281030F821309BB203EA0A0383F0300377
:1017D40043F4004343F0800320F8213081E40023E4
:1017E400CCF8403097F82930002B7FD1B0F8505016
:1017F4000B0103F204460644ADB2725B03F20C43E0
:1018040022F4F8421204120C7253725B034492B233
:1018140042F400427253B0F8500080B21A5A22F4D3
:10182400F8421204120C1A521A5A92B242F40042AA
:101834001A52204602F054FC18F4804F2068ADD1AF
:101844000246BCE74E09CF06874908BF06F1FF36BA
:1018540041EA862189B2E95286E691F86821063385
:1018640003EBC20300EB4303B3F80034D1F880E187
:10187400C3F309039E451F4660D3AEEB030EC1F8C4
:1018840080E1BEF1000F5BD018F0400F0DD130F8AD
:10189400221021F4E04121F070010904090C41F403
:1018A400004141F0C00120F822100BB91F46EDE4BD
:1018B400711904EBC101B1F87221D1F87C1101F066
:1018C40011FBE3E4012B7FF462AF0025B0F8502054
:1018D4000B0103F2044692B20644B552B0F850200C
:1018E40003F20C43034492B29D5250E7012BA0D162
:1018F4000025B0F850200B0103F2044692B20644CE
:10190400B552B0F8502003F20C43034492B29D52F6
:101914008FE74FF0000CC1F880C130F8221021F499
:10192400804121F070010904090C81F4005141F453
:10193400004141F0800120F82210E0E6C1F880C1A6
:1019440030F8221021F4804121F070010904090CBF
:1019540081F4005141F4004141F0800120F822104B
:1019640092E71FFA88F3BEF1010F7FF462ACB0F87E
:10197400502000EB011101F2044192B28B5258E461
:10198400B8F1000F19D11A468EF84C802FE41FFAD3
:1019940088FE012B7FF47DAEB0F8503000EB0112CD
:1019A40002F20C429BB222F803E072E6B8F1000F97
:1019B40025D1724683F84C804BE600238EF84C30D8
:1019C400CEF8483097F829E0BEF1000FC9D142465D
:1019D400B0F8503000EB01119BB201F204411944FC
:1019E4001FFA88F33E2A27D84FEA520ED20748BF7F
:1019F4000EF1010E4FEA8E2292B20A8019E40022FF
:101A04009A6483F84C2097F82930002BBFD100EB5F
:101A1400011303F20C42B0F850301FFA88FE9BB257
:101A2400134442463E2A14D85108D20748BF013114
:101A34008A0292B21A802CE64FEA521ED2060A4A51
:101A440008BF0EF1FF3E42EA8E2292B20A80FFF7EF
:101A5400F0BB5109D206044A08BF01F1FF3142EA42
:101A6400812292B21A8014E60080FFFF90F8A82227
:101A7400012A0ED010B501220446006884F824100F
:101A840084F8A82201F00EFA002384F8A83218463C
:101A940010BD0220704700BF01F0070C090610B505
:101AA400044625D44FF0000E0CEB8C00C00000F56A
:101AB400B471204480F869E121440A614A7881F8CC
:101AC40000C0CB700AB1A1F80EC0022B04BF0023E2
:101AD4000B7194F8A832012B19D00123206884F8E3
:101AE400A83200F0E9FC002384F8A832184610BD9F
:101AF4000CF1010101EB810100EBC10101204870EF
:101B04000CEB000101EB810104EBC101D5E70220DC
:101B140010BD00BF10B5002401F0070E0EEB8E01BE
:101B240000EBC10CCCE95F2300680CF5B471CCF870
:101B340084418CF869418CF868E100F031FE20465C
:101B440010BD00BF70B501260025044601F0070E44
:101B54000EEB8E0C0EEB060100EBCC0C01EB8101BD
:101B6400CCF83C208CF828E0CCF84030CCF8483055
:101B74008CF84C60CCF844508CF8296004EBC1011B
:101B8400006800F00DFE284670BD00BF38B54368FC
:101B940001F007059D422FD80B0604461BD401EB28
:101BA4008101C90001F5B47243188118002283F839
:101BB400692101230D708B7094F8A8229A4219D0E0
:101BC400206884F8A83201F0F5F8BDB1002384F848
:101BD400A832184638BD0122AB1803EB830300EB8F
:101BE400C3035A70194601230D708B7094F8A82210
:101BF4009A42E5D1022038BD012038BD206804F5A1
:101C04002C7101F05DF9E1E738B5436801F00F028A
:101C14009A4232D80B0604461CD401F0070303EBA6
:101C24008302D20002F5B47101440244002500206D
:101C340082F869010B708D7094F8A832012B1AD0C8
:101C44000123206884F8A83201F0DCF884F8A85253
:101C5400284638BD012001F007031A1802EB82025E
:101C640004EBC2021146002550700B708D7094F87D
:101C7400A832012BE4D1022038BD012038BD00BFB9
:101C840011F0800F0BD001F00701013101EB81014C
:101C940000EBC1015AB90020CB800A73704701EBF5
:101CA400810100EBC10101F5B471002AF3D00122D6
:101CB40000208B600A737047F8B5FEF77DFC324C48
:101CC4000546236843F00103236004E0FEF774FC37
:101CD400401B022826D823689B07F7D5236841F2C6
:101CE400883723F0F80343F080032360FEF764FC95
:101CF40000230546244E636004E0FEF75DFC401BB0
:101D0400B8420FD8736813F00C0FF6D11F49204B5B
:101D1400204A08681A60FEF70DFC044628B1012425
:101D24002046F8BD03242046F8BDFEF745FC336881
:101D3400154D23F080733360064604E0FEF73CFC47
:101D4400831B022BEED82B6813F00073F6D16B6063
:101D5400FEF732FC2B680C4E23F410232B6005464F
:101D640004E0FEF729FC401B6428DBD8336813F435
:101D74000033F6D1326822F480223260726A42F073
:101D840080727262B360CEE7001002400800002047
:101D94000000002000127A00002800F0B6812DE92E
:101DA400F04103680446DD0782B035D59A494A6894
:101DB40002F00C02042A00F0EF804A6802F00C02E0
:101DC400082A00F0E5806368B3F5803F10D0002B4B
:101DD40000F00C81B3F5A02F00F082818E4B1A68BD
:101DE40022F480321A601A6822F480221A6004E015
:101DF400894A136843F480331360FEF7DDFB864E93
:101E0400054605E0FEF7D8FB401B642800F2EA8093
:101E140033689A03F6D523689F0728D57E4A51680C
:101E240011F00C0F00F08D80516801F00C010829AD
:101E340000F083802369002B00F018810122774B86
:101E4400754E1A60FEF7B8FB054605E0FEF7B4FBD5
:101E5400401B022800F2C68033689807F6D5336821
:101E6400626923F0F80343EAC203336023681A0764
:101E74001FD45D0742D5684BDA69D0007DD50025B3
:101E8400674E3368D90540F19D80E368012B00F06B
:101E9400FE80002B00F0CA80052B5F4B1A6A00F00D
:101EA4002C8122F001021A621A6A22F004021A62D8
:101EB400F2E0A369002B4FD00122584B564EC3F8D1
:101EC4008024FEF779FB054605E0FEF775FB401B11
:101ED400022800F28780736A9B07F6D5514B524A59
:101EE4001B68A2FB03235B0A019300BF019B5A1EDC
:101EF4000192002BF9D123685D07BCD4E069C0B11D
:101F0400454D6B6803F00C03082B00F0D8800022C9
:101F1400424B02281A6600F0FA80FEF74DFB044695
:101F240004E0FEF749FB001B02285BD82B689B01E9
:101F3400F7D4002002B0BDE8F0815268D6033FF523
:101F440079AF354A1268950730D52269012A2DD018
:101F5400012002B0BDE8F081304A2F4EC2F880342F
:101F6400FEF72AFB054604E0FEF726FB401B022889
:101F740038D8736A9F07F7D4BDE7DA69012542F0C0
:101F84008052DA61DB6903F080530093009B77E7AA
:101F94004A68D0037FF517AF1F4A126891037FF593
:101FA4003BAF6268002A7FF437AFD1E71A49606912
:101FB4000A6822F0F80242EAC0020A601A077FF5B2
:101FC40058AF76E7336843F480733360FEF7F4FA6E
:101FD40007463368DA053FF558AFFEF7EDFAC01B44
:101FE4006428F6D9032002B0BDE8F0810A4D2B68BD
:101FF40023F480332B602B6823F480232B60FEF7BB
:10200400DBFA064604E0FEF7D7FA801B6428E9D819
:102014002B689B03F7D4FEE6001002400000424206
:102024000070004000000020D34D6210504E41F279
:102034008838336A23F001033362336A23F00403DC
:102044003362FEF7B9FA074604E0FEF7B5FAC01B9F
:102054004045C7D8336A9807F7D4002D3FF44EAFF4
:10206400434AD36923F08053D36147E7414A404E42
:102074001360FEF7A1FA054604E0FEF79DFA401B43
:102084000228AFD833689907F7D42368EFE6384AB3
:10209400136A43F001031362FEF78EFA41F28838A3
:1020A4000646334F04E0FEF787FA801B404599D873
:1020B4003B6A9B07F7D5002D3FF420AFD0E70128FA
:1020C4003FF438AF6B68226A03F4803191427FF4A5
:1020D4003FAF606A03F47013181A18BF012029E790
:1020E40003F18043A3F53C331A6842F480221A605A
:1020F4001A6842F480321A607FE642F004021A62DF
:102104001A6A42F001021A62C6E701207047FEF71C
:1021140053FA064605E0FEF74FFA801B02283FF605
:1021240061AF2B689901F6D4236AB3F5803F05D1DA
:102134006A68A16822F400320A436A6001200C4DE7
:10214400616A6A680B4322F474120A4913436B6090
:102154000866FEF731FA044605E0FEF72DFA001B87
:1021640002283FF63FAF2B689A01F6D5E1E600BF9F
:102174000010024000004242002800F0B480604A8F
:102184002DE9F0411368044603F007038B420D4622
:1021940086B00DD2136823F007030B431360136852
:1021A40003F007038B4203D0012006B0BDE8F081A1
:1021B40023689E0714D5580704D552494A6842F447
:1021C400E0624A60190704D54E494A6842F46052F5
:1021D4004A604C49A0684A6822F0F00202434A600F
:1021E400DA0720D56268474B012A1B687DD0022A92
:1021F40076D09E07D8D5434E41F28838736823F0D1
:10220400030313437360FEF7D7F9074604E0FEF7B0
:10221400D3F9C01B40456DD87368626803F00C03A2
:10222400B3EB820FF3D1364A136803F00703AB42D2
:1022340009D9136823F007032B431360136803F0D1
:102244000703AB42B0D12368580706D52D49E0688F
:102254004A6822F4E06202434A60190722D440F239
:102264000124294B06AD0FCB05E90F002549ADF834
:1022740004404A6802F00C03042B39D0082B1AD00E
:10228400224B204A224852682249C2F30312805C3E
:10229400214AC34008681360FEF74CF9002006B0D9
:1022A400BDE8F081174A2169536823F4605343EA77
:1022B400C1035360D3E7C2F3834318336B44D2039F
:1022C40013F8103C18D54A681449C2F3404201FB84
:1022D40003F318326A4412F8142CB3FBF2F3D0E778
:1022E4009F0188D460E7012070479B0383D45BE798
:1022F4000A4BC6E7032058E7094A02FB03F3C0E789
:1023040000200240001002403443000800127A000A
:10231400244300080800002000000020001BB70030
:1023240000093D000122014BDA647047000042427B
:10233400704700BF10B5054CA3681B0600D410BD40
:10234400FFF7F6FF8023A37210BD00BF0010024008
:102354002DE9F0410446006882B0C1072CD53A4B00
:10236400DA69D2003FD5394D00262B68DF0548D500
:10237400354D2B6A13F4407311D0616801F4407237
:102384009A420DD0012700202B6A314A23F4407170
:10239400C2F84074C2F840042962D90744D4616881
:1023A400294A136A23F440730B4313621EB1D369A1
:1023B40023F08053D3612068830706D52249A3689C
:1023C4004A6822F440421A434A6010F0100007D0D1
:1023D40000201D4A6169536823F480030B43536052
:1023E40002B0BDE8F081DA69184D42F08052DA613A
:1023F400DB69012603F080530193019B2B68DF0501
:10240400B6D42B6843F480732B60FEF7D5F80746E7
:102414002B68D805ACD4FEF7CFF8C31B642BF7D9CF
:10242400032002B0BDE8F081FEF7C6F841F2883817
:10243400074604E0FEF7C0F8C01B4045F0D82B6AFD
:102444009A07F7D5ABE700BF0010024000700040C8
:102454000000424284B001A880E80E0004B00020CD
:10246400704700BF034600224FF43F41A3F84420C5
:102474001046A3F840107047034644F2FF02B3F835
:10248400401000200A40A3F8402070470020704705
:1024940084B00DF1040C8CE80E00034600220121E7
:1024A4001046A3F8401004B0A3F84020A3F8442039
:1024B400A3F85020704700BFF0B50A7891F803E004
:1024C40030F822C003462CF4EC4C2CF0700C4FEA8C
:1024D4000C4C4FEA1C4CBEF1030F00F25A81DFE8AA
:1024E4000EF0524E04024CF4C06C002048F28005F9
:1024F4004CEA050C23F822C033F822C0A64C1FFA7C
:102504008CFC0CEA040C4CEA020C45EA0C0523F89A
:1025140022500D7B002D7ED14D78002D00F0DD8002
:10252400C988B3F85050490803EB0216490006F570
:102534008066ADB2715333F822104E0609D533F8D4
:10254400221089B20C4044F4004444F0C00423F83F
:10255400224033F82210BEF1010F21F4E04121F0B2
:1025640040014FEA01414FEA11414DD081F0200171
:1025740041F4004141F0800123F82210F0BD002015
:102584004CF4806CB2E770464CF4007CAEE733F850
:1025940022104D0409D533F8221089B20C4044F4BA
:1025A400404444F0800423F8224033F822104906C2
:1025B4000DD533F8221021F4E04121F07001090413
:1025C400090C41F4004141F0C00123F8221033F812
:1025D4002210BEF1010F21F4E04121F040014FEA45
:1025E40001414FEA114118BF81F0200141F400413B
:1025F40041F0800123F8221033F8221021F48041A5
:1026040021F070010904090C41F4004141F08001FA
:1026140023F82210F0BD33F822C003EB02171FFA8F
:102624008CFC0CEA040C4CF4014C4CF0800C23F8A8
:1026340022C0B3F850C00E891FFA8CFC7608BC4443
:102644007600ACF80064B1F80AC0B3F850504FEA11
:102654005C0CADB23D444FEA4C0CA5F808C4497873
:10266400002994D133F822104F0409D533F82210ED
:1026740089B20C4044F4404444F0800423F82240DE
:1026840033F822104E060DD533F8221021F4E04120
:1026940021F070010904090C41F4004141F0C0012A
:1026A40023F8221048F2800433F8221021F48041E8
:1026B40021F070010904090C81F44051214323F8ED
:1026C400221033F8221021F4E04121F040010904E2
:1026D400090C214323F82210F0BDB3F85040CD88F3
:1026E40003EB0217A4B26D086D003C440E69A4F814
:1026F4000854B3F8501089B2394466B33E2E3CD81E
:102704007408F50748BF0134A402A4B2A1F80C442C
:1027140033F8221049040DD533F8221021F4E04196
:1027240021F070010904090C41F4404141F0800199
:1027340023F8221033F8221021F4804121F0700193
:102744000904090C81F4405141F4004141F0800135
:1027540023F82210F0BDB1F80C4424F4F844240406
:10276400240CA1F80C44B1F80C446FEA44446FEA19
:102774005444A4B2A1F80C44CAE77509F406074C02
:1027840008BF05F1FF3544EA8524A4B2A1F80C443E
:10279400BEE70120AAE600BF8F8FFFFF0080FFFF86
:1027A4002DE9F04F4B780246012B6BD0087B0028B3
:1027B40037D0C878022800F02D81012840F00A8122
:1027C40088690C69A04294BF0025051B8D6188BFF0
:1027D4002046002B40F01B81B2F850400B78A4B285
:1027E40002F204451B012C44002800F051823E28CB
:1027F40000F2F38045082E4610F0010018BF6E1C4D
:10280400B602B6B2E652B2F85040A6B202F20C4496
:10281400344400B10135AD02A8B2E05291F800C0D1
:102824001DE08C690B690D789C4284BFE01A1C463C
:10283400B2F8503088619BB202F20C402D0103447F
:10284400002C00F0B7803E2C00F229816008E407D8
:1028540048BF0130800280B2E85291F800C032F8DB
:102864002C30002023F4804323F070031B041B0C42
:1028740083F4405343F4004343F0800322F82C30A4
:10288400BDE8F08F0D6988690B7BA84228BF2846F4
:10289400002B5DD0CB78022B00F00E8191F80080E4
:1028A4000B6A32F828401B1A24F4E04424F0700424
:1028B4002404240C44F4014444F0800422F8284005
:1028C40032F828400B6214F0400FB2F850404FEA3F
:1028D4000818A6B200F04A8102F20C44344486B2CD
:1028E40024F808604C89013602F580677608D1F82F
:1028F400149007EB440408D0CC4604EB86063CF85D
:1029040002EB24F804EBA642F9D109EB00049D4242
:102914004C61C0F0B78100250D62002B36D0B2F8AF
:10292400500085B202F2044028449DB22B4620F8A0
:102934000850088901335B0807EB400026D000EB00
:10294400830534F8023B20F8043B8542F9D11DE0AD
:1029540084B24B69CD8804F1010E02F580605FEA10
:102964005E0E00EB450018BF03EB4E0E05D033F8A6
:1029740002CB734520F804CBF9D1B2F85030087873
:102984009DB202F2044300012B44C4520978002092
:1029940032F8213023F4E04323F040031B041B0CE2
:1029A40083F0300343F4004343F0800322F82130E2
:1029B400BDE8F08FE85A20F4F8400004000CE85217
:1029C400E85A6FEA40406FEA504080B2E85291F80A
:1029D40000C044E70120BDE8F08F45092F4610F000
:1029E4001F0008BF05F1FF372E46BB4D45EA87257A
:1029F400ADB2E552B2F85040A5B202F20C442C44F8
:102A040000B9013EB44840EA862080B2E05291F811
:102A140000C024E713BBB2F850000B7884B202F272
:102A2400044020440C691B01002C00F009813E2C59
:102A340000F28E8165082E4614F0010418BF6E1C46
:102A4400B602B6B2C652B2F8500002F20C4680B2D8
:102A5400064404B10135AD02A8B2F052CB69002B93
:102A6400D5D044F2400391F800C032F82C0003EAB8
:102A74000004834302D0002C7FF4F1AE32F82C30F2
:102A840023F4E04323F070031B041B0C43F40043C2
:102A940043F0C00322F82C3091F800C0DFE6660949
:102AA400E0068D4808BF06F1FF3640EA862080B272
:102AB400E85291F800C0D2E60C6AA54280F09480F6
:102AC4000E78241A32F826304FEA061923F4E0432C
:102AD40023F070031B041B0C43F4014343F08003F5
:102AE40022F8263032F826300C6213F0400FB2F888
:102AF40050309EB200F0F28002F20C4333441FFACD
:102B040080FA23F809A04E890AF1010802F58063CE
:102B14005FEA58084F6903EB460608D0BC4606EB4B
:102B2400880B3CF802EB26F804EBB345F9D10744D3
:102B3400A5424F6180F02781241AB2F850000C623C
:102B440084B202F20440204420F809A0088903EB6F
:102B54004003B8F1000F3FF419AF03EB880437F8D2
:102B6400020B23F8040B9C42F9D10FE702F2044450
:102B7400344486B224F80860B1F808C0013602F57E
:102B840080677608D1F8149007EB4C0C08D04C46BB
:102B940009EB460634F802EBB4422CF804EBF9D105
:102BA40009EB00049D424C616FD300250D62002B9C
:102BB4003FF4ECAEB2F8500085B202F20C40284467
:102BC4009DB22B4620F80850488901335B0807EB77
:102BD40040073FF4DBAE07EB830334F8020B27F81E
:102BE400040B9F42F9D1D1E6087832F8203023F45F
:102BF400E24323F070031B041B0C43F4004343F033
:102C0400800322F82030B2F8503000019DB202F265
:102C140004432B44A5B21D52A0B20D89013002F524
:102C2400806340084C6903EB45033FF4AFAE03EB0C
:102C3400800034F8025B23F8045B9842F9D1A5E6DE
:102C4400C45A24F4F8442404240CC452C55A02F28D
:102C54000C446FEA45456FEA5545ADB2C552B2F82A
:102C6400500085B220462844C45A24F4F84424046D
:102C7400240CC452C45A6FEA44446FEA5444A4B2C4
:102C8400C452EBE61D1A034646E61D1A03468DE7B9
:102C9400E05A20F4F8400004000CE052E55A02F235
:102CA4000C406FEA45456FEA5545ADB2E552B2F8BE
:102CB4005040A4B22044C45A24F4F8442404240CFC
:102CC400C452C45A6FEA44446FEA5444A4B2C4528E
:102CD40091F800C0C3E500BF0080FFFF02F2044387
:102CE40033441FFA80FA23F809A0B1F808C00AF1A6
:102CF400010802F580635FEA58084F6903EB4C0C46
:102D040008D03E4607EB480B36F802EBB3452CF8E7
:102D140004EBF9D10744A5424F613ED2241AB2F81C
:102D240050000C6284B202F20C40204420F809A046
:102D3400488903EB4003B8F1000F3FF427AE03EBDF
:102D4400880437F8020B23F8040B9C42F9D11DE6E2
:102D540065092F4614F01F0408BF05F1FF372E46FE
:102D6400134D45EA8725ADB2C552B2F8500002F2C0
:102D74000C4580B2054404B9013E0D4840EA862062
:102D840080B2E8526AE61FFA84F808F101081FFAD3
:102D940084FA4FEA58080024CFE61FFA84F808F1B1
:102DA40001081FFA84FA4FEA58080024B7E700BF65
:102DB4000080FFFF4B780A788BB130F8223023F47F
:102DC400E04323F040031B041B0C83F0100343F483
:102DD400004343F0800320F822300020704730F88D
:102DE400223023F4804323F070031B041B0C83F470
:102DF400805343F4004343F0800320F82230002042
:102E0400704700BF0B7B3BBB4B780A7833B330F879
:102E140022305B060DD530F8223023F4E04323F052
:102E240070031B041B0C43F4004343F0C00320F85D
:102E34002230CB78012B0FD030F8223023F4E0433A
:102E440023F040031B041B0C83F0200343F40043D2
:102E540043F0800320F822300020704730F82230FD
:102E64005B040DD530F8223023F4E04323F07003E3
:102E74001B041B0C43F4404343F0800320F822302E
:102E840030F8223023F4804323F070031B041B0C1E
:102E940083F4405343F4004343F0800320F822308A
:102EA4000020704711B98023A0F84C3000207047EF
:102EB4000020704700207047B0F8440080B270478B
:102EC40000207047013300EB42025B0802F5806288
:102ED40007D002EB830031F8023B22F8043B824224
:102EE400F9D1704770B500EB42005E0800F58065CB
:102EF40012D0AE46B446881C3EF8042B023092B27F
:102F0400140ABCF1010C00F8042C00F8034CF3D1B2
:102F140001EB460105EB8605DB0744BF2B880B70EC
:102F240070BD00BF03461B2201481A80704700BFD2
:102F340048000020002070470020704703460A2202
:102F440001481A80704700BF6400002030B5D0F8F3
:102F5400B842054694F8183483B0042B04D0072BE8
:102F64003AD0002003B030BDD4F80034ABB9237894
:102F7400002B42D1D4F80434012B1ED000230122AB
:102F840028466946C4F80434C4F800348DF8003087
:102F9400ADF8062000F064FE0FE0012B0DD0D0F850
:102FA400BC22D4F80814023B15692046D4F8042442
:102FB40001EB8321A84700284AD1002303214FF0C5
:102FC40040721846C4F80034C4F8043484F8181461
:102FD400C4F8112403B030BD00232B4A84F81934FB
:102FE400127D520736D506214FF0C062184684F888
:102FF4001814C4F8112403B030BD212B10D1D4F817
:103004000434052BBAD1E378A07861781B042279C3
:1030140003EB00230B4403EB0263C4F80834CCE74E
:10302400412BABD1D4F80434052BA7D1E078A37895
:103034006278000400EB032010442279D5F8BC32F6
:1030440000EB0260DB68C4F8080498470028B4D099
:10305400022087E708224FF0006384F81824C4F89C
:10306400113400F05BFAD5F8BC329B689847BFF383
:103074004F8F0649064BCA6802F4E0621343CB60E3
:10308400BFF34F8F00BFFDE74800002000ED00E0D4
:103094000400FA0538B5022200250446D0F8B832F7
:1030A40083F8182483F8105483F81424D0F8BC222D
:1030B400C3F800549268C3F804549047D4F8B80293
:1030C40001F0FAF82846C4F8B85238BD10B50446E1
:1030D40040F21C4001F0ECF8C4F8B802B0B100238F
:1030E4000222C0F81034A0F81824A0F81424D4F84C
:1030F400BC2207495268C0F80814C0F80034C0F86C
:103104000434C0F80C34904700B910BD022010BD3F
:10311400008000080020704700207047062908D866
:1031240008B5D0F8BC320449186800F0A5FD02487F
:1031340008BD0020704700BF280100200023F0B51F
:103144000C7883B014F060040546D0F8B862ADF88A
:10315400063016D0202C0DD14F78062F0AD8DFE880
:1031640007F0BFA6936FE2684E0090F89C32032BE1
:1031740000F0E780284600F073FD0224204603B0E7
:10318400F0BD4F780B2FF5D801A353F827F000BFFB
:103194006F3100087931000879310008793100086D
:1031A4007931000879310008ED31000879310008DF
:1031B4007931000879310008D9310008C531000897
:1031C4008C78002CD6D190F89C32032BD2D1C6F83F
:1031D4000C44D3E790F89C32032BCBD1012206F2A6
:1031E4000C4100F073FDC9E74B881B0A212B00F04A
:1031F400AF8000221146284600F068FDBEE796F82D
:103204001824092A00F2AA804FF41B73D340DB432D
:1032140013F0010340F0A28002221C46C6F81034C9
:10322400C6F80034C6F8043486F81824A6F8142422
:10323400A4E7012206F5836100F048FD00249DE720
:1032440096F81834032B00F0D480062B40F08C80C1
:1032540096F81934012B00F00D81002B40F0848086
:10326400944B1B7D5B077FD502224FF0007306F55C
:10327400826486F81824C6F81134214606222846AA
:1032840000F024FD002479E7CC88002C7DD096F84A
:103294001834022B00F09080092B00F08D8000245C
:1032A400C6F80444C6F8004400F0DAFC66E7CA88AD
:1032B40096F81834002A5AD0022B01D0052B6CD171
:1032C400032349882846C6F80014C6F80424314666
:1032D40086F8183486F81434002400F00FFD4DE706
:1032E40096F81824092A11D84FF41B73D340DB43F2
:1032F40013F001030AD1C6F81034C6F80034C6F836
:103304000434022386F81834A6F81434694B5C7D1F
:1033140014F0100424D0284600F000F9284600F0E8
:10332400F7F83C462AE796F818340A2B3AD00A23D1
:103334000E22002486F81834C6F81024A6F8143493
:103344001CE702220DF1060100F0C0FC3C4615E723
:10335400CA885949092A28BF09224CE700240DE7E5
:103364004888FDF72FF909E706F5826485E7052B00
:1033740001D0022B11D14FF483724FF0C0630024AB
:10338400A6F81824C6F81134F8E602224FF00073A8
:1033940086F81824C6F81134F0E6284600F060FCDC
:1033A4000024EBE60223002286F818341446C6F8FB
:1033B4001024A6F81434E1E64A88C6F80444C6F892
:1033C40000248ABB032C98BF09274FF404531446E6
:1033D40086F81124A6F8122441222846B2703146F8
:1033E400032286F8187486F81474338000F06EFC97
:1033F400C4E6D6F804349BB304224FF08063D6F8B5
:10340400001486F81824C6F8113411B93378412B06
:1034140045D0D5F8BC3206F58264224601219B6969
:10342400D6F80804984728E7012A2CD04FF01060FA
:103434000921C6F81104D6F8080486F81814931E56
:1034440000EB8320D5F8BC32224631465B699847AD
:10345400B6F8042401462846002400F037FC8DE623
:1034640005224FF0A06306F5826486F81824C6F896
:10347400113402E70723114A06F58264C6F81124C1
:1034840086F81834F9E60F224FF07063284686F860
:103494001824C6F81134002400F0E2FB6EE6D0F8DC
:1034A400BC3206F5826422469B69D6F80804984724
:1034B400E3E600BF480000205A0000200100000796
:1034C400002070470020704709B1C0F8BC120020EA
:1034D400704700BF88B108B5D0F8B43213B10023E7
:1034E400C0F8B43209B1C0F8B0120123027080F8F8
:1034F4009C3200F029FE002008BD0220704700BF66
:10350400034619B10020C3F8B41270470220704773
:1035140008B500F047FE002008BD00BF10B5044602
:10352400D0F8B43201795B689847204600F048FE31
:10353400002010BD08B5D0F8B4321BB11B68984701
:1035440000B908BD022008BD08B5D0F8B4325B68E4
:103554009847002008BD00BF38B5044600F52A7519
:10356400284600F069FB0122B4F8AE3294F8A812A0
:10357400C4F8983201F01F039342C4F8942209D08E
:10358400022B13D063B1204601F0800100F036FE17
:10359400002038BD2946204600F07EFA002038BDC0
:1035A4002946204600F0FAF8002038BD2946204676
:1035B40000F0A6FA002038BD38B5054669B91346AF
:1035C400D0F89422032A15D0052A0C460ED1C5F84A
:1035D400941200F013FE204638BDD0F8B4329B6933
:1035E40033B190F89C22032A02D19847002038BDB9
:1035F400022038BDD0E9581291420CD9891A8A4266
:1036040088BF8AB2C0F8601198BF92B2194600F020
:1036140083FB002038BDD0F8B4321B691BB190F88D
:103624009C22032A04D0284600F080FB002038BDE9
:103634009847F8E770B5044661B9D0F89432022B84
:1036440015D033F004032ED094F8A032012B31D0DE
:10365400002070BDD0F8B4325B6933B190F89C227D
:10366400032A02D19847002070BD022070BDD0E922
:1036740008639E4233D8C269B2FBF3F503FB1525F8
:10368400EDB993421BD8D0F898329A4217D22A4601
:1036940000F02AFB2B462A4629462046C4F89852B5
:1036A40000F0F8FDD0E7802100F0A8FD94F8A032E6
:1036B400012BCDD1002384F8A032184670BDD4F874
:1036C400B432DB681BB194F89C22032A15D0802104
:1036D400204600F093FD204600F034FBB4E70D468D
:1036E400F31A114603629AB200F0FEFA2B462A46F8
:1036F4002946204600F0CEFDA6E720469847E6E797
:1037040070B500224026044601251146334600F0D8
:1037140065FD3346802100222046C4F85851C4F880
:10372400646100F05BFD0021D4F8B832A5616662E3
:1037340084F89C52C4F894126160C4F8A41223B1B2
:10374400D4F8B43220465B689847002070BD00BFAF
:1037540003460020197470470346042193F89C2201
:10376400002083F89C1283F89D22704790F89C32C5
:10377400042B04BF90F89D3280F89C3200207047DF
:1037840090F89C22032A01D00020704708B5D0F895
:10379400B432DB6903B19847002008BD30B50B781B
:1037A4000D4603F06003202B044683B00DD0402B5C
:1037B4000BD09BB18021204600F020FD0021204643
:1037C40000F01CFD002003B030BDD4F8B43229460B
:1037D40020469B689847002003B030BD4B78092BE6
:1037E400E8D801A252F823F04738000873380008DB
:1037F400B937000891380008B9370008993800082B
:10380400D1380008B9370008053900081538000810
:103814008978A04D01292970CCD890F89C32022BCC
:1038240000F00C81032B00F0FA80802100F0E6FC0C
:103834000021204600F0E2FC20462978FFF784FEB0
:10384400C0E790F89C32013B022BB3D8CB88022B03
:10385400B0D10122D0F8A432C2600BB10323C360FB
:103864000222204604F10C0100F030FAAAE790F895
:103874009C32013B022B9DD84B88012BA2D1002303
:103884002046C4F8A43200F051FA9BE74B88012B80
:1038940098D1F5E78B88002B8CD1CB88002B89D16C
:1038A4004D887F2D86D890F89C32032B82D0E9B2C4
:1038B40080F89E1200F0D2FC204600F037FA002D6A
:1038C40000F0D980022384F89C327BE700216A88C7
:1038D400ADF80610130A013B062B3FF66BAF01A1AE
:1038E40051F823F0973900087F3900086D39000832
:1038F400B9370008B93700085739000829390008D2
:10390400CA88012A7FF456AF90F89C32022B71D8F2
:10391400002B3FF44FAF0146002341F8083F00F06D
:10392400D5F94FE7037C002B7FF444AFD0F8B432D1
:103934000DF106001B6B984707234370BDF8062062
:10394400002A67D0EB88002B5BD1204600F0EEF90B
:1039540038E7037C002B7FF42DAFD0F8B4320DF19F
:1039640006005B6B9847E9E7D1B2052900F287802E
:10397400DFE801F0282217342E3A037C002B6AD1A9
:10398400D0F8B4320DF106009B6A984702234370C5
:10399400D4E7D0F8B0320DF106011B68007C9847DB
:1039A400CCE7D0F8B032DB68002B3FF403AF207CC7
:1039B4000DF106019847C1E7D0F8B0329B68002B9F
:1039C400F5D1F7E6D0F8B0325B68002BEFD1F1E621
:1039D400D0F8B0325B69002BE9D1EBE6D0F8B03215
:1039E4001B69002BE3D1E5E6D0F8B0329B69002BCC
:1039F400DDD1DFE6032B7FF4DDAE011D00F066F9B7
:103A0400E0E69A4228BF1A4601462046ADF8062051
:103A140000F05CF9EB88002B7FF4D4AE95E719B382
:103A24004168012991D0C9B2FFF78EFD297820465B
:103A34006160FFF77FFD022887D1BBE6002984D0AF
:103A440001210323416080F89C32FFF773FD0228B3
:103A54007FF47BAFAEE6D0F8B4320DF10600DB6A3A
:103A640098470223437069E70223416080F89C323F
:103A7400FFF76AFD69E7012384F89C32A2E6D0F8D7
:103A8400B4329B6B002B3FF495AE0DF106029847C0
:103A940054E700BF2702002038B50B780D4603F029
:103AA4006002402A04460AD05B0608D5802100F053
:103AB400A5FB0021204600F0A1FB002038BD94F8AE
:103AC4009C32013B022B11D82B79012B0ED8D4F850
:103AD400B43229469B6820469847EB88002BECD1EA
:103AE4000028EAD1204600F021F9E6E780212046AB
:103AF40000F084FB0021204600F080FB002038BD4C
:103B040038B50B78044603F06003202B0CD0402B0F
:103B14000AD083B18021204600F070FB00212046AA
:103B240000F06CFB002038BDD4F8B43220469B680A
:103B34009847002038BD4B788A88012B5FFA82FCB5
:103B44003ED0032B2AD0002BE4D190F89C32022BD8
:103B540051D0032BDED10CF00F0303EB83031206C9
:103B640000EB830356D4D3F85831002BD2D00CF099
:103B74007F0303EB830500EB850505F5AA7533B1D7
:103B84006146204600F056FB00284FD001232B60ED
:103B940002222946204600F099F8C3E790F89C32A7
:103BA400022B1DD0032BB5D14B882BB91CF07F0FF2
:103BB40002D0CB88002B3BD0204600F0B7F8B1E709
:103BC40090F89C32022B0BD0032BA3D14B88002BF3
:103BD400A8D11CF07F0FEFD0614600F01DFBEBE78E
:103BE4001CF07F0F96D0614600F008FB8021204630
:103BF40000F004FB96E71CF07F0F8BD10023110625
:103C04004CBF00F1140100F5AA7102220B6000F010
:103C14005DF887E79B69002B3FF47CAF0CF07F03D2
:103C24005D1C05EB850500EB8505A8E72860AFE77B
:103C3400614600F0E3FABFE70B7803704B784370FA
:103C4400CA788B7803EB022343804A790B7903EB20
:103C540002238380CA798B7903EB0223C3807047E4
:103C640010B50446802100F0C9FA2046BDE8104092
:103C7400002100F0C3BA00BF18B3037830B40BB30B
:103C84000446C0F1010C04EB0C0314F8015FDBB231
:103C9400002DF8D101335B00DCB2138003230C70D8
:103CA4004B7004785CB1022300255A1CD2B2CC5468
:103CB4008D5410F8014F0233DBB2002CF5D130BC27
:103CC4007047704702242346E7E700BF10B5134648
:103CD40002240A46C0E907330021C0F8944200F0E8
:103CE400CBFA002010BD00BF8C4608B50021134656
:103CF400624600F0C1FA002008BD00BF10B51346AB
:103D040003240A46C0E957330021C0F8944200F066
:103D1400C1FA002010BD00BF8C4608B5002113462F
:103D2400624600F0B7FA002008BD00BF08B50421C0
:103D34000023C0F894121A46194600F09DFA002098
:103D440008BD00BF08B505210023C0F894121A4627
:103D5400194600F09FFA002008BD00BF08B50022F4
:103D640017491848FFF7B6FB70B917491548FFF70C
:103D7400C7FB88B915491348FFF7A6FBA0B911483A
:103D8400FFF7C6FBB8B908BDFCF75CFB0E490D484C
:103D9400FFF7B6FB0028EDD0FCF754FB0B490948AC
:103DA400FFF792FB0028EAD0FCF74CFB0548FFF72D
:103DB400AFFB0028E7D0BDE80840FCF743BB00BFD9
:103DC40070000020280200200C000020C000002009
:103DD400122301480B8070478C0000200423014803
:103DE4000B807047A000002010B5044C0A4604481C
:103DF4002146FFF741FF204610BD00BFEC04002020
:103E04004843000810B5044C0A4604482146FFF70D
:103E140033FF204610BD00BFEC0400205C430008C3
:103E240010B5044C0A4604482146FFF725FF2046F6
:103E340010BD00BFEC0400206C43000810B5044C16
:103E44000A4604482146FFF717FF204610BD00BF6D
:103E5400EC040020784300084FF01A0C444AD2F8CE
:103E6400E807D2F8F037A1F800C0C31801D14148DF
:103E740070474FF0000CD2F8EC17180F3D4AB3F11D
:103E8400204F2CBF373030309070C3F303600928C3
:103E94008CBF373030301071C3F3035009288CBF06
:103EA400373030309071C3F3034009288CBF37306A
:103EB40030301072C3F3033009288CBF37303030F0
:103EC4009072C3F3032009288CBF3730303010734D
:103ED400C3F3031009288CBF3730303082F803C095
:103EE40090734FF0000C002082F805C0D0734FF09F
:103EF400000C002082F807C050744FF0000C002022
:103F040082F809C0D0744FF0000C002003F00F03B6
:103F1400092B94BF303337331374B1F1204F4FEA78
:103F240011732CBF373330339374C1F30363092BFC
:103F34008CBF373330331375C1F30353092B8CBF54
:103F4400373330339375C1F30343092B94BF3033B4
:103F5400373382F80BC050754FF0000C00201376F5
:103F64000023D07582F80DC002485376704700BF15
:103F740000F0FF1FA400002010B5044608462AB331
:103F8400631CC91A022922D9511E07291FD92346A5
:103F9400844622F00301214453F804EB8B424CF88D
:103FA40004EBF9D122F003039A4204EB03010DD090
:103FB400E45CC4545C1CA24208D991F801C00233E9
:103FC4009A4200F804C001D98A78C25410BD411E37
:103FD400224400E0013313F8014C934201F8014FED
:103FE400F8D110BD00203223D070A2F80130704700
:103FF40012B32DE9F041074690460E46051F06E030
:1040040056F8043B2A689A4213D1A0450ED92C468F
:1040140031460023022055F8042FFCF75BFB0834DB
:10402400E41B0028ECD00120BDE8F0810020BDE8AD
:10403400F0810220BDE8F0810020704730B50023F4
:10404400F02587B0064C01A902A8CDE904450193E7
:104054000293FCF79DFC003818BF012007B030BD67
:104064000080000808B5FCF733FC002008BD00BF41
:1040740008B5FCF719FC002008BD00BF0E4B026810
:104084009A4200D0704703F5DA33D96900B541F498
:104094000001D961DB6983B003F4000301931420A8
:1040A40000220121019BFCF7B1FA142003B05DF852
:1040B40004EBFCF7E9BA00BF005C00400146D0F80D
:1040C400E80201F52C71FFF747BA00BF01EB810349
:1040D40000EBC303D3F87C21D0F8E802FFF76CBAF5
:1040E40001EB810300EBC303DA6BD0F8E802FFF7BE
:1040F400A1BA00BFD0F8E802FFF742BB836810B54D
:10410400022B044601D0FCF79DF9D4F8E802012102
:10411400FFF71EFBD4F8E802BDE81040FFF7F0BA41
:1041240010B50446D0F8E802FFF716FBA36923B1E3
:10413400024A136943F00603136110BD00ED00E069
:10414400D0F8E802FFF712BB082238B50024002596
:10415400124B02215A600022C3E9064504461A6242
:104164000F4AC3F8E8421846C4F8C03299601A608E
:10417400FCF74AFE78B9002218231146D4F8C0028D
:10418400FDF77EFD582300228021D4F8C002FDF7FC
:1041940077FD002038BDFCF755F9ECE7F006002068
:1041A400005C004008B5D0F8C002FCF7ABFE032861
:1041B40096BF024B0220185C08BD00BFCC43000828
:1041C40008B5D0F8C002FCF7B7FE032896BF024B2F
:1041D4000220185C08BD00BFCC430008944608B513
:1041E4001A46D0F8C0026346FDF756FC032896BF72
:1041F400014B0220185C08BDCC43000808B5D0F878
:10420400C002FDF7C3FC032896BF024B0220185CD2
:1042140008BD00BFCC43000808B5D0F8C002FDF7C4
:10422400F3FC032896BF024B0220185C08BD00BFB4
:10423400CC4300080A06D0F8C03206D401EB810151
:1042440003EBC10191F86A01704701F07F0101316C
:1042540001EB810103EBC1018878704708B5D0F800
:10426400C002FDF703FC032896BF024B0220185C32
:1042740008BD00BFCC43000808B5D0F8C002FDF764
:1042840061FC032896BF024B0220185C08BD00BFE6
:10429400CC43000808B5D0F8C002FDF73BFC032866
:1042A40096BF024B0220185C08BD00BFCC43000837
:1042B40000487047DC090020704700BF704700BF0A
:1042C40070B500260C4D0D4C641BA410A64209D1F8
:1042D40000F01AF800260A4D0A4C641BA410A642EA
:1042E40005D170BD55F8043B98470136EEE755F803
:1042F400043B98470136F2E7D0430008D043000856
:10430400D0430008D4430008F8B500BFF8BC08BC8B
:104314009E467047F8B500BFF8BC08BC9E4670477F
:104324000000000000000000010203040607080961
:1043340002030405060708090A0B0C0D0E0F1010E2
:1043440000000000656E6E612053797374656D73AF
:1043540020476D6248000000656E6E6120446F6303
:104364006B2044465500000044465520436F6E665A
:104374006967000044465520496E7465726661633E
:104384006500000040496E7465726E616C20466C75
:104394006173682020202F3078303830303030304E
:1043A400302F30322A31364B612C30312A313238B9
:1043B4004B672C30312A3036344B672C30322A305C
:0C43C40031364B670000000000020102CF
:0443D00009020008D6
:0443D400E5010008F7
:1043D8000024F4000100000010000000D1300008A3
:1043E8009930000841310008512F00083D2F00087E
:1043F800392F0008C534000819310008C9340008ED
:104408001D310008292F0008292F0008292F00082E
:10441800412F00082131000809021B00010102C0D8
:10442800320904000000FE01020609210BFF00000A
:10443800041A01000A060002000000400100000002
:10444800D53D0008E13D0008ED3D0008093E0008A3
:104458005D3E0008253E0008413E000812010002AA
:1044680000000040830411DF000201020301000084
:10447800040307041A030000000000000000000005
:104488000000000000000000000000000000000024
:10449800884300087540000869400008414000084A
:0C44A800F53F00087D3F0008E93F0008D8
:04000005080004C922
:00000001FF
