:020000040800F2
:100000000000032011030008810400089104000887
:10001000B5040008BD040008C50400080000000085
:10002000000000000000000000000000CD040008F7
:10003000DB0400080000000089050008970500089F
:100040005D0300085D0300085D0300085D03000810
:100050005D0300085D0300085D0300085D03000800
:100060005D0300085D0300085D0300085D030008F0
:100070005D0300085D0300085D0300085D030008E0
:100080005D0300085D0300085D0300085D030008D0
:100090005D0300085D0300085D0300085D030008C0
:1000A0005D0300085D0300085D0300085D030008B0
:1000B0005D0300085D030008FD0400085D030008FF
:1000C0005D0300085D0300085D0300085D03000890
:1000D0005D0300085D0300085D0300085D03000880
:1000E0005D0300085D030008090500085D030008C2
:1000F0005D0300085D0300085D0300085D03000860
:10010000000000005D0300085D0300085D030008B7
:100110005D0300085D0300085D0300085D0300083F
:100120005D0300085D0300085D0300085D0300082F
:100130005D03000800000000000000005D030008EF
:100140005D0300085D0300085D030008E904000882
:100150005D0300085D0300085D0300085D030008FF
:100160005D0300085D0300085D0300085D030008EF
:100170005D0300085D0300085D0300080000000047
:100180005D0300085D0300080348044B834202D06E
:10019000034B03B118477047F8040020F80400200F
:1001A000000000000548064B1B1AD90F01EBA30104
:1001B000491002D0034B03B118477047F8040020E0
:1001C000F80400200000000010B5064C237843B965
:1001D000FFF7DAFF044B13B10448AFF300800123AB
:1001E000237010BDF8040020000000002C56000809
:1001F00008B5054B1BB105490548AFF30080BDE8C4
:100200000840FFF7CFBF00BF00000000FC04002043
:100210002C560008A3F5803A704700BF174B002BFF
:1002200008BF134B9D46FFF7F5FF00218B460F4695
:100230001348144A121A00F03DF80E4B002B00D060
:1002400098470D4B002B00D0984700200021040058
:100250000D000D48002802D00C48AFF3008000F0DC
:1002600031F82000290004F03DFF00F011F800BF34
:100270000000080000000000000000000000032053
:10028000F804002088110020000000000000000099
:1002900008B5064B044613B10021AFF30080044BB0
:1002A0001B6803B19847204600F030F800000000BA
:1002B0001405002002440346934200D1704703F81E
:1002C000011BF9E770B50D4D0D4C641BA410002601
:1002D000A64209D10B4D0C4C04F0AEFF641BA410D8
:1002E0000026A64205D170BD55F8043B984701365B
:1002F000EEE755F8043B98470136F2E7E8040020A2
:10030000E8040020E8040020EC040020FEE700BF21
:100310000C488546002103E00B4B5B5843500431E9
:100320000A480B4B42189A42F6D30A4A0A4B9A42A1
:10033000FFD3002342F8043B00F034F9FFF76EFFCF
:1003400070470000000003206056000800000020F5
:10035000F8040020F804002088110020FEE70000C7
:1003600080B483B000AF03463960FB7197F9073062
:10037000002B0ADB3B68DAB20C4997F9073012010F
:10038000D2B20B4483F800230AE03B68DAB2084992
:10039000FB7903F00F03043B1201D2B20B441A762F
:1003A00000BF0C37BD465DF8047B704700E100E0FC
:1003B00000ED00E080B582B000AF78607B68013B63
:1003C000B3F1807F01D301230FE00A4A7B68013B30
:1003D00053600F214FF0FF30FFF7C2FF054B0022A3
:1003E0009A60044B07221A60002318460837BD465E
:1003F00080BD00BF10E000E080B500AF0A4B1B6875
:100400000A4AA2FB03239B091846FFF7D3FF0346C2
:10041000002B01D000BFFDE700214FF0FF30FFF7B8
:100420009FFF00BF80BD00BF00000020D34D6210C1
:1004300080B483B000AF7860074A7B68136000BF68
:10044000054B1B68002BFBD100BF00BF0C37BD461E
:100450005DF8047B704700BF1805002080B400AF32
:10046000064B1B68002B04D0044B1B68013B034A5E
:10047000136000BFBD465DF8047B7047180500207F
:1004800080B400AF00BFBD465DF8047B704700003C
:1004900080B400AF064B00221A6000BF044B1B68FB
:1004A000002BFBD000BF00BFBD465DF8047B70474A
:1004B0001C05002080B400AF00BFFDE780B400AF92
:1004C00000BFFDE780B400AF00BFFDE780B400AF20
:1004D00000BFBD465DF8047B704780B400AF00BF2D
:1004E000BD465DF8047B704780B500AF024803F05D
:1004F0008EF900BF80BD00BF480D002080B500AF61
:1005000004F0ACFA00BF80BD80B500AF0C4BDB79C6
:10051000002B0ED000F016F8002001F071F800203A
:1005200001F056F840F6075000F0D6FE044803F0FC
:1005300005F94FF4802000F051F900BF80BD00BFE5
:10054000480D002080B500AF102001F0BDF900BFBC
:10055000112001F0EDF90346002BF9D0182001F02D
:10056000B3F900BF192001F0E3F90346002BF9D0DD
:10057000022000F041FF00BF00F056FF0346082BA9
:10058000FAD100BF00BF80BD80B400AF00BFBD4640
:100590005DF8047B704780B500AFFFF75FFF00BFD9
:1005A00080BD000080B582B000AF2C4BD3F88830FE
:1005B0002A4A43F47003C2F88830294B1B68284A42
:1005C00043F00103136000BF254B1B6803F00203D7
:1005D000002BF9D0234B1B68224A43F080031360A1
:1005E00000237B6002E07B6801337B607B684F2BDC
:1005F000F9D91C4B1B681B4A43F09003136000237E
:100600007B6002E07B6801337B607B684F2BF9D90C
:10061000144B1B68134A23F003031360104B1B6831
:100620000F4A23F0847323F4803313600C4B1B6850
:100630000B4A23F4802313600A4B00221A6000BF88
:10064000084B1B68084B094A1A60094B00221A60C4
:1006500000F010F800BF0837BD4680BD00ED00E097
:1006600000380240083802400438024010300024AC
:100670000C38024080B500AF00F002F800BF80BD2A
:1006800080B584B002AF0023FB71102001F01CF98B
:10069000102000F0CDFF0346FB71FB79002B01D148
:1006A00000BFFDE74FF4E85001F00EF94FF4E850B9
:1006B00000F0BEFF0346FB71FB79002B01D100BFA8
:1006C000FDE7364B1B68354A43F08053136000202A
:1006D00000F0B8FE4FF4805000F0CCFE002000F097
:1006E000E1FE0623009304234FF490720C214FF493
:1006F000800000F0EFFE0221902000F045FF002076
:1007000000F07EFF002000F063FF182001F0DCF80D
:10071000182000F08DFF0346FB71FB79002B01D1FF
:1007200000BFFDE71A2001F0CFF81A2000F080FF8B
:100730000346FB71FB79002B01D100BFFDE7184B8D
:100740001B68174A43F48033136000BF154B1B68C6
:1007500003F48033002BF9D0114B1B68104A43F48B
:100760000033136000BF0F4B1B6803F40033002BF2
:10077000F9D0022000F040FE4FF4003000F016F8EF
:1007800000BF094B1B6803F00803002BF9D001F0F0
:10079000BFF800BF0837BD4680BD00BF40380240EB
:1007A00000700040047000400838024080B483B0FC
:1007B00000AF7860084B1B68074A23F4E0231360FE
:1007C000054B1A6804497B6813430B6000BF0C3764
:1007D000BD465DF8047B70470423014080B483B0BC
:1007E00000AF7860044A7B68136000BF0C37BD46D9
:1007F0005DF8047B704700BF143C014080B400AF3B
:10080000074B1B68002B05DA064B074A1A60054B9D
:10081000064A1A6000BFBD465DF8047B704700BF02
:10082000103C0240043C024023016745AB89EFCDF8
:1008300080B400AF054B1B68044A43F000431360CB
:1008400000BFBD465DF8047B704700BF103C02400E
:1008500080B584B000AF78600023FB736FF0304048
:1008600000F0AEF90346FB73FB7B002B25D1154B43
:100870001B68144A23F0F8031360124B1A687B6854
:100880001343104A43F0020313600E4B1B680D4ADA
:1008900043F4803313606FF0304000F091F9034669
:1008A000FB73084B1B68074A23F002031360054BD8
:1008B0001B68044A23F0F8031360FB7B18461037CB
:1008C000BD4680BD103C024080B584B000AF78606A
:1008D00039600023FB736FF0304000F071F903467C
:1008E000FB73FB7B002B20D1124B1B68114A23F4B6
:1008F000407313600F4B1B680E4A43F40073136080
:100900000C4B1B680B4A43F0010313607B683A6889
:100910001A606FF0304000F053F90346FB73054B4B
:100920001B68044A23F001031360FB7B1846103751
:10093000BD4680BD103C024080B400AF084B1B6830
:1009400003F00103002B05D0064B074A1A60054B44
:10095000064A1A6000BFBD465DF8047B704700BFC1
:10096000143C0240083C02403B2A19087F6E5D4C53
:1009700080B400AF054B1B68044A43F002031360C8
:1009800000BFBD465DF8047B704700BF143C0240C9
:1009900080B584B000AF0023FB736FF0304000F0EF
:1009A0000FF90346FB731B4B1B68BB601A4B1B689C
:1009B0007B60FB7B002B28D1BB6843F0E003BB606E
:1009C000BB6843F00C03BB60BB6823F01003BB6043
:1009D000BB6823F08043BB60BB6843F07F6343F494
:1009E0007023BB60BB6823F00043BB60094ABB684F
:1009F00013607B6843F07F6343F470237B60064A97
:100A00007B681360034ABB68136000BF1037BD46A4
:100A100080BD00BF143C0240183C024080B584B049
:100A200000AF0346FB710023FB736FF0304000F012
:100A3000C7F80346FB73FB7B002B0ED1094B1B68E9
:100A4000BB60BB6823F47F43BB60FB791B02BA68C1
:100A50001343BB60034ABB68136000BF1037BD4639
:100A600080BD00BF143C024080B586B000AFF86086
:100A7000B9607A600023FB756FF0304000F0A0F899
:100A80000346FB75FB7D002B0FD10A4B1B683B61B6
:100A90003B6923F0E0033B613A69FB681A43BB689A
:100AA0001A4304497B6813430B6000BF1837BD46E7
:100AB00080BD00BF143C024080B485B000AF7860B8
:100AC000084B1B68FB60FB6823F00C03FB600549C7
:100AD000FA687B6813430B6000BF1437BD465DF8AE
:100AE000047B7047143C024080B485B000AF78604E
:100AF000084B1B68FB60FB6823F01003FB60054993
:100B0000FA687B6813430B6000BF1437BD465DF87D
:100B1000047B7047143C024080B483B000AF78601F
:100B2000044A7B68136000BF0C37BD465DF8047B48
:100B3000704700BF0C3C024080B483B000AF00237C
:100B4000FB711E4B1B683B603B6803F48033002B3A
:100B500002D00123FB7129E03B6803F48073002B72
:100B600002D00223FB7121E03B6803F08003002BDD
:100B700002D00323FB7119E03B6803F04003002B14
:100B800002D00423FB7111E03B6803F01003002B3B
:100B900002D00523FB7109E03B6803F00203002B40
:100BA00002D00623FB7101E00023FB71FB7918469C
:100BB0000C37BD465DF8047B704700BF0C3C02401B
:100BC00080B584B000AF78600123FB73FFF7B4FFFA
:100BD0000346FB737B68013B7B60FB7B012B02D1EF
:100BE0007B68002BF2D17B68002B01D10723FB73BC
:100BF000FB7B18461037BD4680BD000080B582B033
:100C000000AF78607B684C4A934200F087807B6835
:100C1000494A934200F28B807B68484A934274D0E1
:100C20007B68464A934200F282807B68444A934242
:100C300062D07B68424A934279D87B68414A9342AA
:100C400051D07B683F4A934271D87B683E4A9342B9
:100C500040D07B683C4A934269D87B683B4A9342C8
:100C60002FD07B68394A934261D87B68384A9342D7
:100C70001ED07B68364A934259D87B68354A9342E6
:100C800004D07B68344A934209D050E04FF480602E
:100C900000F06AFB4FF4806000F089FB48E040F20E
:100CA000014000F061FB40F2014000F080FB3FE0BA
:100CB00040F2024000F058FB40F2024000F077FBA7
:100CC00036E040F2034000F04FFB40F2034000F0FA
:100CD0006EFB2DE040F2044000F046FB40F2044081
:100CE00000F065FB24E040F2054000F03DFB40F2DF
:100CF000054000F05CFB1BE040F2064000F034FBD6
:100D000040F2064000F053FB12E040F2074000F0D2
:100D10002BFB40F2074000F04AFB09E04FF48160F2
:100D200000F022FB4FF4816000F041FB00E000BFC7
:100D300000BF0837BD4680BD00200240001C0240B5
:100D4000001802400014024000100240000C024053
:100D500000080240000002400004024080B489B054
:100D600000AFF860B9607A603B60FB681B68BB61EC
:100D7000FB680C331B687B610023FB832BE0FB8B40
:100D800001229A403B681340002B21D0FB8B5B0073
:100D9000032202FA03F3DB43BA691340BB61FB8B06
:100DA0005B00BA6802FA03F3BA691343BB61FB8BB9
:100DB0005B00032202FA03F3DB437A6913407B6191
:100DC000FB8B5B007A6802FA03F37A6913437B6159
:100DD000FB8B0133FB83FB8B0F2BD0D9FB68BA69EC
:100DE0001A60FB680C331A467B69136000BF243716
:100DF000BD465DF8047B704780B487B000AFF860F3
:100E00007A603B600B46FB72FB7A012B09D1FB68D1
:100E100004331A68FB68043319463B6813430B60BC
:100E200008E0FB6804331A683B68DB43F968043167
:100E300013400B60FB6808331B683B610023FB8297
:100E40001AE0FB8A01229A403B681340002B10D025
:100E5000FB8A5B00032202FA03F3DB433A69134087
:100E60003B61FB8A5B007A6802FA03F33A69134339
:100E70003B61FB8A0133FB82FB8A0F2BE1D9FB68C4
:100E800008331A463B69136000BF1C37BD465DF846
:100E9000047B704780B483B000AF786039607B68B2
:100EA00018331A463B68136000BF0C37BD465DF827
:100EB000047B704780B483B000AF786039607B6892
:100EC00028331A463B68136000BF0C37BD465DF8F7
:100ED000047B704780B483B000AF786039607B6872
:100EE00010331A683B681340002B01D0012300E047
:100EF000002318460C37BD465DF8047B704780B46C
:100F000089B000AFF860B9607A60FB6820331B6875
:100F1000BB61FB6824331B687B610023FB831AE001
:100F2000FB8B01229A407B681340002B10D0FB8B77
:100F30009B000F2202FA03F3DB43BA691340BB6143
:100F4000FB8B9B00BA6802FA03F3BA691343BB61D7
:100F5000FB8B0133FB83FB8B072BE1D90823FB833E
:100F60001CE0FB8B01229A407B681340002B12D0BF
:100F7000FB8B083B9B000F2202FA03F3DB437A69E9
:100F800013407B61FB8B083B9B00BA6802FA03F3BA
:100F90007A6913437B61FB8B0133FB83FB8B0F2B44
:100FA000DFD9FB6820331A46BB691360FB68243322
:100FB0001A467B69136000BF2437BD465DF8047B89
:100FC000704780B483B000AF786039607B682C33A1
:100FD0001A463B68136000BF0C37BD465DF8047BC2
:100FE0007047000080B483B000AF7860064A7B6829
:100FF00043F0BF6343F40033D36000BF0C37BD46FA
:101000005DF8047B704700BF00ED00E080B586B05E
:1010100000AF0346FB710B46BB7113467B71002387
:10102000FB6000237B6100233B61394BDB6803F4E9
:10103000E063B3F5E06F04D100237B6104233B61DF
:1010400037E0334BDB6803F4E063B3F5C06F04D1E2
:1010500001237B6103233B612BE02D4BDB6803F411
:10106000E063B3F5A06F04D102237B6102233B61EF
:101070001FE0274BDB6803F4E063B3F5806F04D116
:1010800003237B6101233B6113E0214BDB6803F405
:10109000E063B3F5407F04D104237B6100233B610F
:1010A00007E04FF4A060FFF79DFF02237B6102235E
:1010B0003B61BA797B69C3F1040302FA03F3FB6075
:1010C0007A793B69C3F104030F2121FA03F313403A
:1010D000FA681343FB60FB681B01FB600D4AFB7958
:1010E000F968C9B213440A4683F80023FB7903F078
:1010F0001F030849FA795209D2B21046012202FAB6
:1011000003F341F8203000BF1837BD4680BD00BF53
:1011100000ED00E000E100E080B485B000AFF860D1
:10112000B9601346FB71374B1A683649364B13408A
:101130000B60344B1A683349FB6813430B60BB6880
:10114000B3F5402F13D1FB68002B08D12D4B1B6842
:101150002C4A43F4402343F40063136007E0294B17
:101160001B68284A43F4402343F480631360274BF1
:101170001B69264A43F004031361254B1B68254A6B
:101180001360254B1B68234A5360244B1B68214A7C
:101190009360234B1B681F4AD3601D4B1A681C4980
:1011A000204B13400B60204B204A1A60204B214AF1
:1011B0001A60214B6FF480521A60FB79002B01D129
:1011C00030BF02E040BF20BF20BF114A114B1B6857
:1011D0001360114A0F4B5B681360104A0D4B9B68FC
:1011E00013600F4A0B4BDB681360084B1B69074AFF
:1011F00023F00403136100BF1437BD465DF8047B80
:10120000704700BF00700040FCF3F3FF00ED00E00A
:1012100010E000E02005002000E100E004E100E033
:1012200008E100E00400010080E100E031F87FFF08
:1012300084E100E0FFF8FFBF88E100E080B500AF87
:101240001C4B1B681B4A43F001031360002000F095
:10125000EFF9194B1B68184A23F003031360154B71
:101260001B68144A23F0A85323F410231360114B76
:101270001B68104A23F4802313600F4B1B680E4A2F
:1012800003F4437313600D4B0D4A1A600D4B0E4A65
:101290001A600E4B0A4A1A600D4B00221A600D4B61
:1012A0001B680C4A23F0817323F48033136000BF62
:1012B00080BD00BF003802400838024004380240B8
:1012C0001030002484380240003000248838024066
:1012D0000C3802408C38024080B483B000AF034623
:1012E000FB80FB889B099BB203F1804303F50E331F
:1012F0001968FB8803F01F0301229A40FB889B09B1
:101300009BB203F1804303F50E33184641EA020312
:10131000036000BF0C37BD465DF8047B704780B4A6
:1013200083B000AF0346FB80FB889B099BB203F1AF
:10133000804303F50E331968FB8803F01F03012275
:1013400002FA03F3DA43FB889B099BB203F1804363
:1013500003F50E33184601EA0203036000BF0C37A1
:10136000BD465DF8047B704780B483B000AF034690
:10137000FB80FB889B099BB203F1804303F50E338E
:101380001968FB8803F01F0301229A40FB889B0920
:101390009BB203F1804303F50E33184641EA020382
:1013A000036000BF0C37BD465DF8047B704780B416
:1013B00083B000AF0346FB80FB889B099BB203F11F
:1013C000804303F50E331968FB8803F01F030122E5
:1013D00002FA03F3DA43FB889B099BB203F18043D3
:1013E00003F50E33184601EA0203036000BF0C3711
:1013F000BD465DF8047B704780B485B000AF78606F
:10140000084B1B68FB60FB6823F00303FB60054986
:10141000FA687B6813430B6000BF1437BD465DF864
:10142000047B70470838024080B400AF044B1B684F
:1014300003F00C031846BD465DF8047B704700BFFF
:101440000838024080B485B000AF7860084B1B6854
:10145000FB60FB6823F0F003FB600549FA687B68DA
:1014600013430B6000BF1437BD465DF8047B704723
:101470000838024080B485B000AF7860084B1B6824
:10148000FB60FB6823F4E053FB600549FA687B6866
:1014900013430B6000BF1437BD465DF8047B7047F3
:1014A0000838024080B485B000AF7860084B1B68F4
:1014B000FB60FB6823F46043FB600549FA687B68C6
:1014C00013430B6000BF1437BD465DF8047B7047C3
:1014D0000838024080B487B000AFF860B9607A6025
:1014E0003B6000237B61264B1B683B613B69002B03
:1014F0000BDA3B6903F08043002B03D07B69073391
:101500007B6102E07B6905337B61BB68012B2FD9CE
:10151000BB683F2B2CD87B6940337A689A4227D32B
:101520007B68B3F5FA7F23D83B68022B08D03B6871
:10153000042B05D03B68062B02D03B68082B17D143
:101540003B6A012B14D93B6A0F2B11D87B689A0197
:10155000BB681A433B685B08013B1B041A43FB68EA
:101560001A433B6A1B06074913430B60012300E043
:10157000002318461C37BD465DF8047B704700BF4A
:10158000803802400438024080B483B000AF7860F5
:1015900039607B68312B12D97B68B3F5FA7F0ED89E
:1015A0003B68012B0BD93B68072B08D87B689A0155
:1015B0003B681B07054913430B60012300E0002330
:1015C00018460C37BD465DF8047B704784380240EE
:1015D00080B485B000AF7860084B1B68FB60FB6887
:1015E00023F00103FB600549FA687B6813430B6035
:1015F00000BF1437BD465DF8047B7047C038024019
:1016000080B485B000AF7860084B1B68FB60FB6856
:1016100023F00203FB600549FA687B6813430B6003
:1016200000BF1437BD465DF8047B7047C0380240E8
:1016300080B584B000AF0346FB800023FB6000232D
:10164000FB720023BB72FB8843F21002934200F04E
:10165000AF8043F21002934200F31D81B3F5E85FBF
:1016600000F0C080B3F5E85F00F315811C2B43DC6C
:10167000002BC0F210811C2B00F20D8101A252F848
:1016800023F000BF7D17000897180008971800087E
:10169000971800089718000897180008971800086E
:1016A000971800089718000897180008971800085E
:1016B000971800089718000897180008971800084E
:1016C00097180008111700089718000897180008C5
:1016D000971800089718000897180008971800082E
:1016E00097180008171800089718000847180008EE
:1016F0009718000877180008B3F5E05F23D0CAE018
:10170000112000F015F90346BB72FB680133FB6042
:10171000BB7A002B04D1FB684FF6FF729342EFD1E6
:10172000112000F005F90346002B00F0B6800123DC
:10173000FB72B2E041F6014000F0FAF80346BB72DA
:10174000FB680133FB60BB7A002B04D1FB686FF0B0
:1017500070429342EED141F6014000F0E9F80346B1
:10176000002B00F09C800123FB7298E0012000F028
:10177000DFF80346BB72FB680133FB60BB7A002BCA
:1017800003D1FB68B3F5A06FF0D1012000F0D0F8D1
:101790000346002B00F085800123FB7281E043F2B9
:1017A000110000F0C5F80346BB72FB680133FB6013
:1017B000BB7A002B03D1FB68424A9342EFD143F23C
:1017C000110000F0B5F80346002B6CD00123FB722A
:1017D00069E041F6015000F0ABF80346BB72FB68CC
:1017E0000133FB60BB7A002B03D1FB68354A93427F
:1017F000EFD141F6015000F09BF80346002B54D086
:101800000123FB7251E0192000F092F80346BB72ED
:10181000FB680133FB60BB7A002B03D1FB68294ACC
:101820009342F0D1192000F083F80346002B3ED0FC
:101830000123FB723BE01B2000F07AF80346BB72E9
:10184000FB680133FB60BB7A002B03D1FB681D4AA8
:101850009342F0D11B2000F06BF80346002B28D0F8
:101860000123FB7225E01D2000F062F80346BB72E5
:10187000FB680133FB60BB7A002B03D1FB68114A84
:101880009342F0D11D2000F053F80346002B12D0F4
:101890000123FB720FE000BF0EE000BF0CE000BFB1
:1018A0000AE000BF08E000BF06E000BF04E000BFA0
:1018B00002E000BF00E000BFFB7A18461037BD46CB
:1018C00080BD00BFFFFF0F0080B483B000AF0346B0
:1018D000FB80FB889B099BB203F1804303F50E3329
:1018E0001968FB8803F01F0301229A40FB889B09BB
:1018F0009BB203F1804303F50E33184641EA02031D
:10190000036000BF0C37BD465DF8047B70470000E4
:1019100080B400AF054B1B68044A43F400231360F6
:1019200000BFBD465DF8047B704700BF0038024031
:1019300080B483B000AF0346FB80FB889B099BB259
:1019400003F1804303F50E331A68FB8803F01F038D
:1019500022FA03F303F00103002B01D0012300E07E
:10196000002318460C37BD465DF8047B7047000025
:1019700080B483B000AF786039603B681A887B68B8
:1019800028331A607B68324A934213D07B68B3F1E4
:10199000804F0FD07B682F4A93420BD07B682E4A32
:1019A000934207D07B682D4A934203D07B682C4A30
:1019B000934215D17B681A687B6822F070021A6026
:1019C0007B681A683B685B8819467B680A431A6023
:1019D0007B681A683B689B8819467B680A431A60D3
:1019E0007B682C331A463B689B6813607B681D4AF2
:1019F000934211D07B681C4A93420DD07B681A68D1
:101A00007B6822F440721A607B681A683B68DB8846
:101A100019467B680A431A607B680D4A934203D0DB
:101A20007B680F4A934204D13B681A7B7B68303352
:101A30001A607B6814331B687A68143243F0010320
:101A4000136000BF0C37BD465DF8047B704700BFD4
:101A5000000001400004004000080040000C00406D
:101A600000040140001000400014004080B483B026
:101A700000AF78607B681A687B6842F001021A60E8
:101A800000BF0C37BD465DF8047B704780B483B05F
:101A900000AF78607B681A687B6822F001021A60E8
:101AA00000BF0C37BD465DF8047B704780B483B03F
:101AB00000AF78607B681A687B6842F080021A6029
:101AC00000BF0C37BD465DF8047B704780B483B01F
:101AD00000AF786039607B680C331A687B680C3320
:101AE00019463B6813430B6000BF0C37BD465DF8D9
:101AF000047B704780B483B000AF786039607B6846
:101B00000C331A683B68DB4379680C3113400B6077
:101B100000BF0C37BD465DF8047B704780B485B0CC
:101B200000AF786039607B680C331B683A681340FB
:101B3000FB607B6810331A683B681340002B04D0AD
:101B4000FB68002B01D0012300E000231846143766
:101B5000BD465DF8047B704780B483B000AF786009
:101B600039607B6810331A463B68DB43136000BF63
:101B70000C37BD465DF8047B704780B483B000AF7E
:101B800078607B681B689A687B681B6842F001027A
:101B90009A6000BF0C37BD465DF8047B704780B487
:101BA00083B000AF78607B681B689A687B681B68AD
:101BB00022F001029A6000BF0C37BD465DF8047B3D
:101BC000704780B483B000AF78607B685B695A6807
:101BD0007B685B6942F002025A6000BF0C37BD4669
:101BE0005DF8047B704780B483B000AF78607B6899
:101BF0005B695A687B685B6922F002025A6000BF29
:101C00000C37BD465DF8047B704780B586B002AFE7
:101C1000F8607A603B600B46FB72FB687A68C3F839
:101C20002824FB683A68C3F82C24FB68D3F82834CE
:101C3000DB680C331B68184600F0C4F9F868FB68D1
:101C40001033FA7A194600F097FFFB6810331846F4
:101C5000FFF7A5FFFB6803F11002FB6800920FCBB2
:101C600001F054F8F86800F0E2F8FB681033002146
:101C7000184601F085F9F86801F0D8F9FB681033CF
:101C80001846FFF77AFFF86800F0C3F8FB680122F6
:101C900083F8CE2000BF1037BD4680BD80B586B02A
:101CA00000AFF8607A603B600B46FB72FB7A03F092
:101CB0007F021346DB009B1A9B0003F51C73FA6836
:101CC000134404337B617B697A689A607B693A6864
:101CD000DA607B6900221A61FB681B79012B02D153
:101CE0007A687B699A617969F86801F0DEFB002304
:101CF00018461837BD4680BD80B586B000AFF86085
:101D00007A603B600B46FB72FB7A03F07F0213465E
:101D1000DB009B1A9B00C833FA68134408337B61CD
:101D20007B697A689A607B693A68DA607B6900222D
:101D30001A61FB681B79012B02D17A687B699A6171
:101D40007969F86801F0FEFA002318461837BD4695
:101D500080BD80B584B000AF78600B46FB70002377
:101D6000FB6097F90330002B0CDAFB7803F07F025D
:101D70001346DB009B1A9B00C8337A681344083370
:101D8000FB600AE0FA781346DB009B1A9B0003F520
:101D90001C737A6813440433FB60FB6801229A7059
:101DA000F968786801F006FC002318461037BD4634
:101DB00080BD80B584B000AF78600B46FB70002317
:101DC000FB6097F90330002B0CDAFB7803F07F02FD
:101DD0001346DB009B1A9B00C8337A681344083310
:101DE000FB600AE0FA781346DB009B1A9B0003F5C0
:101DF0001C737A6813440433FB60FB6800229A70FA
:101E0000F968786801F010FC002318461037BD46C9
:101E100080BD80B582B000AF78607868FFF7E3FEE0
:101E2000032002F047FE00BF0837BD4680BD80B5E5
:101E300082B000AF78607868FFF7C3FE032002F03D
:101E400039FE00BF0837BD4680BD80B483B000AF07
:101E500078600B46FB707B685B691A687B685B691E
:101E600022F4FE621A607B685B691968FB781A01CC
:101E70007B685B690A431A6000BF0C37BD465DF89A
:101E8000047B704780B582B000AF78600B46FB7072
:101E9000FB7819467868FFF7D8FF00BF0837BD46C2
:101EA00080BD000080B582B000AF786039603B68CB
:101EB0005B781A46054B53F82230396878689847A2
:101EC000034618460837BD4680BD00BF0400002009
:101ED00080B582B000AF786039607B6893F8CE300F
:101EE000DBB2032B0ED13B689B889BB2DBB2012B8C
:101EF00008D87B68D3F82C34DB6839687868984751
:101F0000034600E0012318460837BD4680BD80B473
:101F100083B000AF78603960002318460C37BD46A7
:101F20005DF8047B704780B582B000AF786039609F
:101F300080217868FFF70DFF00217868FFF709FF1F
:101F4000786801F0D9FB00BF0837BD4680BD80B47A
:101F500087B000AFF860B9601346FB710023FB75D2
:101F600025E0FB681B0F092B0AD8FB681B0FDAB2B0
:101F7000FB7D5B00B9680B443032D2B21A7009E0C5
:101F8000FB681B0FDAB2FB7D5B00B9680B4437328C
:101F9000D2B21A70FB681B01FB60FB7D5B00013352
:101FA000BA68134400221A70FB7D0133FB75FA7D79
:101FB000FB799A42D5D300BF00BF1C37BD465DF800
:101FC000047B704780B586B000AF78607B681B8863
:101FD000DBB2062B1ED01A4B1B683B61194B1B68EA
:101FE000FB60194B1B68BB603A69BB6813443B61DB
:101FF0003B69002B1FD07B680233082219463869E1
:10200000FFF7A5FF7B68123304221946F868FFF733
:102010009EFF10E00D4B1B687B617B69002B0AD093
:102020007B6802337A6992B21A807B691A0C7B68EA
:10203000043392B21A8000BF1837BD4680BD00BF7E
:10204000107AFF1F147AFF1F187AFF1F003D02400D
:1020500080B483B000AF78603960012318460C3734
:10206000BD465DF8047B704780B485B000AFF86072
:102070000B467A60FB72FB68D3F828341B681B7828
:102080001A467B681A80FB68D3F828341B68184608
:102090001437BD465DF8047B704780B485B000AF4F
:1020A000F8600B467A60FB72FB68D3F828345B68F3
:1020B00002331B781AB2FB68D3F828345B68033309
:1020C0001B781B021BB213431BB29AB27B681A80A7
:1020D000FB68D3F828345B6818461437BD465DF8B2
:1020E000047B704780B485B000AFF8600B467A601F
:1020F000FB72FB68D3F828349B6802331B781A46BE
:102100007B681A80FB68D3F828349B68184614371C
:10211000BD465DF8047B704780B487B000AFF860BF
:102120000B467A60FB72FB68D3F82834DA68FB7AD6
:102130009B0013441B687B617B691B781A467B6894
:102140001A807B6918461C37BD465DF8047B7047D2
:1021500080B485B000AF786039603B689B889BB2E3
:10216000BB730123FB737B68D033BB603B681B7878
:1021700003F00303022B3DD0022B62DC002B02D0C4
:10218000012B2BD05DE07B6893F8CE30DBB2022BC5
:1021900005D07B6893F8CE30DBB2032B53D17B683C
:1021A00093F81834002B03D0314B01221A7002E04F
:1021B0002F4B00221A707B6893F81A34002B07D03B
:1021C0002B4B1B7843F00203DAB2294B1A7002E062
:1021D000274B00221A700023FB7334E07B6893F8CE
:1021E000CE30DBB2032B30D1BB7B012B2DD80023AB
:1021F000FB732AE07B6893F8CE30DBB2032B26D149
:1022000097F90E30002B0DDABB7B03F07F02796863
:102210001346DB009B1A9B000B44D2331A78144BF5
:102220001A700BE0BA7B79681346DB009B1A9B009F
:102230000B4403F276231A780D4B1A700023FB73BC
:1022400005E000BF04E000BF02E000BF00E000BF07
:10225000FB7B002B05D1BB68054A9A60BB68022254
:102260005A61FB7B18461437BD465DF8047B704706
:102270003005002080B584B000AF7860396000235D
:10228000FB733B681B7803F00303022B1DD0022B6A
:102290003EDC002B02D0012B3CD039E07B6893F868
:1022A000CE30DBB2022B05D07B6893F8CE30DBB2A8
:1022B000032B31D13B685B889BB2012B2CD17B680F
:1022C000002283F81A2400232AE03B689B889BB2F3
:1022D000FB737B6893F8CE30DBB2032B1ED13B68D7
:1022E0005B889BB2002B11D1FB7B002B0ED0FB7BBC
:1022F000802B0BD0FB7B19467868FFF75AFD7B6873
:10230000D3F82C34DB68396878689847002307E0F5
:1023100000BF04E000BF02E000BF00E000BF0123F7
:1023200018461037BD4680BD80B584B000AF7860D8
:1023300039600023FB733B681B7803F00303022B17
:102340001DD0022B37DC002B02D0012B35D032E020
:102350007B6893F8CE30DBB2022B05D07B6893F814
:10236000CE30DBB2032B2AD13B685B889BB2012BBA
:1023700003D17B68012283F81A24002323E03B6801
:102380009B889BB2FB737B6893F8CE30DBB2032B48
:1023900017D13B685B889BB2002B0AD1FB7B002BDB
:1023A00007D0FB7B802B04D0FB7B19467868FFF7B6
:1023B000D0FC002307E000BF04E000BF02E000BF44
:1023C00000E000BF012318461037BD4680BD80B530
:1023D00082B000AF786039603B689B889BB2002B6D
:1023E0002BD13B68DB889BB2002B26D13B685B88F6
:1023F0009BB2DBB203F07F03DAB27B6883F8CD20B7
:102400007B6893F8CE30DBB2032B16D07B6893F851
:10241000CD3019467868FFF735FD7B6893F8CD30ED
:10242000002B04D07B68022283F8CE2003E07B6877
:10243000012283F8CE20002300E00123184608374C
:10244000BD4680BD80B584B000AF786039600023A0
:10245000BB7300237B730123FB737B68D033BB60AA
:102460003B681B7803F00303022B00F08880022BEB
:1024700000F38780002B02D0012B76D081E03B68EF
:102480005B889BB21B0A9BB2BB733B685B889BB2A9
:102490007B73BB7B013B0E2B61D801A252F823F06A
:1024A000DD24000809250008252500085F2500080F
:1024B0005F2500085F2500085F2500085F250008EC
:1024C0005F2500085F2500085F2500085F250008DC
:1024D0005F2500085F25000847250008BB7B013BFE
:1024E000424A52F82330BA681432797B78689847A8
:1024F0000246BB689A603B68DB889BB2402B30D1B8
:10250000BB6808225A612CE0BB7B013B374A52F87A
:102510002330BA681432797B786898470246BB68E2
:102520009A6021E07B7BEE2B1DD8BB7B013B2F4AC1
:1025300052F82330BA681432797B7868984702469B
:10254000BB689A600FE0BB6803F114027B7B1946FD
:102550007868FFF7C7FD0246BB689A6004E000BFD9
:1025600010E000BF0EE000BF0CE07B68D3F82C3415
:10257000DB683968786898470346FB7302E000BF60
:1025800000E000BFBB685B69002B29D03B68DB889B
:102590009BB2002B24D0BB685B693A68D28892B2A8
:1025A000934215D2BB685B69BA689288934215D38F
:1025B000BB685B69BA689288B3FBF2F101FB02F277
:1025C0009B1A002B0AD17B68012283F8252405E0A1
:1025D0003B68DB889BB21A46BB685A610023FB73D9
:1025E000FB7B18461037BD4680BD00BF3800002079
:1025F00080B483B000AF78603960002318460C3790
:10260000BD465DF8047B704780B485B000AF78604C
:1026100039600123FB737B68D033BB607B6893F820
:10262000CE30DBB2022B02D0032B08D012E07B6845
:1026300093F8CC30002B0AD10023FB7307E07B68B2
:1026400093F8CC30002B04D00023FB7301E000BFD3
:1026500000E000BFFB7B002B07D17B6803F1CC02BD
:10266000BB689A60BB6801225A61FB7B184614372D
:10267000BD465DF8047B704780B584B000AF7860DC
:1026800039600123FB733B685B889BB2DAB2354B40
:102690001A70344B1B78012B5FD87B6893F8CE30CF
:1026A000DBB2032B1ED0032B54DC012B54D0022BA6
:1026B00050D12C4B1B78002B11D07B68D3F82C34D5
:1026C0005B68284A1278114678689847254B1A7833
:1026D0007B6883F8CC207B68032283F8CE2000231C
:1026E000FB733AE01F4B1B78002B12D17B68D3F8A9
:1026F0002C349B681B4A1278114678689847194B0E
:102700001A787B6883F8CC207B68022283F8CE207D
:102710001DE07B6893F8CC20124B1B789A4216D0B0
:102720007B68D3F82C349B680E4A1278114678687F
:1027300098470C4B1A787B6883F8CC207B68D3F8D9
:102740002C345B68074A1278114678689847002352
:10275000FB7302E000BF00E000BFFB7B18461037B0
:10276000BD4680BD3205002080B485B000AF7860E2
:1027700039607B6893F8CE30DBB2032B06D0032B95
:1027800018DC012B18D0022B18D013E03B689B8873
:102790009BB2DBB2012B13D87B68D033FB607B6824
:1027A000D3F82C345A1CFB689A60FB6801225A61EA
:1027B000002307E000BF04E000BF02E000BF00E02C
:1027C00000BF012318461437BD465DF8047B7047EF
:1027D00080B582B000AF786039607B6893F8CE3006
:1027E000DBB2032B06D0032B19DC012B19D0022BF3
:1027F00019D014E03B689B889BB2DBB2012B14D844
:102800007B68D3F82C341B69002B06D07B68D3F887
:102810002C341B69396878689847002307E000BFAB
:1028200004E000BF02E000BF00E000BF0123184643
:102830000837BD4680BD80B483B000AF7860396092
:10284000002318460C37BD465DF8047B704780B501
:1028500084B000AF78607B68D033FB60FB689A6817
:10286000FB685B6900217868FFF746FAFB685B69E3
:10287000FA689288934204D97B68012283F8242461
:1028800003E07B68022283F82424002318461037D3
:10289000BD4680BD80B584B000AF78607B6803F52D
:1028A0001D73FB60FB689A68FB685B6900217868B0
:1028B000FFF7F4F9FB685B69FA689288934204D9E0
:1028C0007B68032283F8242403E07B68042283F8D6
:1028D0002424002318461037BD4680BD80B582B041
:1028E00000AF78607B68052283F82424002300224F
:1028F00000217868FFF700FA786800F0FDFE0023F9
:1029000018460837BD4680BD80B582B000AF7860FC
:102910007B68062283F824240023002200217868A3
:10292000FFF7BCF9786800F0E7FE00231846083787
:10293000BD4680BD80B586B000AF78600123FB75D1
:102940007A6807F10C0302F21C4292E8030083E864
:1029500003003B7B03F06003402B18D0402B1FD8B3
:10296000002B02D0202B09D01AE007F10C031946E6
:102970007868FFF797FA0346FB7512E007F10C033E
:1029800019467868FFF7A4FA0346FB7509E007F1DA
:102990000C0319467868FFF7BAFA0346FB7500E0A6
:1029A00000BFFB7D002B12D17B8A002B03D17868FE
:1029B000FFF794FF11E03B7B5BB2002B03DA7868F2
:1029C000FFF745FF09E07868FFF764FF05E007F1CE
:1029D0000C0319467868FFF7A6FA00231846183743
:1029E000BD4680BD80B584B000AF78600B46FB70FB
:1029F000FB78002B3AD17B6803F51D73FB607B6885
:102A000093F82434032B02D0042B16D042E0FB6849
:102A10005B69FA6892889A1AFB685A617B681B792D
:102A2000012B06D1FB689B68FA6892881A44FB6800
:102A30009A607868FFF72EFF2CE07B6893F8CE3021
:102A4000DBB2032B0BD17B68D3F82C349B69002BB2
:102A500005D07B68D3F82C349B6978689847FB686D
:102A600000225A617868FFF739FF13E07B68D3F8DA
:102A70002C341B6A002B0DD07B6893F8CE30DBB270
:102A8000032B07D17B68D3F82C341B6AFA781146E4
:102A900078689847002318461037BD4680BD80B53A
:102AA00084B000AF78600B46FB70FB78002B49D1F7
:102AB0007B68D033FB607B6893F82434012B02D011
:102AC000022B16D052E0FB685B69FA6892889A1A6A
:102AD000FB685A617B681B79012B06D1FB689B68F8
:102AE000FA6892881A44FB689A607868FFF7AFFE2C
:102AF0003CE07B6893F82534002B0AD000230022A9
:102B000000217868FFF7F8F87B68002283F8252415
:102B10002CE07B6893F8CE30DBB2032B0BD17B68C3
:102B2000D3F82C345B69002B05D07B68D3F82C34A8
:102B30005B6978689847FB6800225A617868FFF7FC
:102B4000E3FE13E07B6893F8CE30DBB2032B0DD1AC
:102B50007B68D3F82C34DB69002B07D07B68D3F873
:102B60002C34DB69FA7811467868984700231846B8
:102B70001037BD4680BD0000F0B5B7B000AF78613A
:102B800039611346FB737B6900221A717B6902224B
:102B90005A707B69FA7B1A70FB7B002B02D0012BE9
:102BA0000DD020E07B69584ADA607B690C229A706C
:102BB0007B690622DA707B6902225A7115E07B6913
:102BC0004FF0A042DA607B6908229A707B69042288
:102BD000DA707B6902225A717B6900229A717B69E3
:102BE0000022DA7101E0012389E07B69DB68BB60C8
:102BF0007B69DB6803F500637B607B69DB6803F559
:102C000080631E467B69DB6803F588631D467B692C
:102C1000DB6803F560631C463B691846BC231A4613
:102C20000021FDF747FB3B69BA681A603B697A6887
:102C30005A603B699E603B699D673B69C3F8B84039
:102C4000002387F8D73024E07B69DB6897F8D7202A
:102C50005201134403F5106297F8D73011463A69D0
:102C600002339B00134459607B69DB6897F8D720D7
:102C70005201134403F5306297F8D73011463A6990
:102C800008339B001344596097F8D730013387F815
:102C9000D7307B69DB7897F8D7209A42D4D30023CA
:102CA00087F8D63024E07B69DB6897F8D62052019C
:102CB000134403F5A06297F8D63011463A690E33F3
:102CC0009B00134459607B69DA6897F8D6301B0380
:102CD000134403F5805297F8D63011463A691E33F3
:102CE0009B001344596097F8D630013387F8D630EB
:102CF0007B699B7897F8D6209A42D4D30023184654
:102D0000DC37BD46F0BD00BF0000044090B585B083
:102D100000AF3C4684E80F007B79012B28D13B6A49
:102D20001B689A6B3B6A1B6822F480329A63BB79FA
:102D3000002B07D03B6A1B689A6B3B6A1B6842F406
:102D400080129A633B6A1B68DB683A6A126823F454
:102D5000001323F04003D3603B6A1B68DA683B6AC8
:102D60001B6822F48012DA60386A00F034F928E037
:102D70003B6A1B68DA683B6A1B6842F04002DA6013
:102D8000386A00F028F93B6A1B689A6B3B6A1B683B
:102D900042F450229A633B6A1B689A6B3B6A1B6839
:102DA00042F400129A63BB79002B07D03B6A1B6880
:102DB0009A6B3B6A1B6842F480129A63142001F0FC
:102DC00079FE3B79012B0FD13B6A1B689A683B6AFD
:102DD0001B6822F01E029A603B6A1B689A683B6A75
:102DE0001B6842F02A029A60002318461437BD4639
:102DF00090BD80B487B000AFF860B96011461A4644
:102E00000B46FB711346BB80BB8803339B087B6179
:102E1000FB79FA681E339B0013445B683B6106E054
:102E2000BB681A683B691A60BB680433BB607B6986
:102E30005A1E7A61002BF3D1002318461C37BD4679
:102E40005DF8047B704780B487B000AFF860B9606C
:102E50001346FB80FB8803339B087B61FB68DB6FB9
:102E60003B6106E03B691A68BB681A60BB680433C3
:102E7000BB607B695A1E7A61002BF3D1BB68184690
:102E80001C37BD465DF8047B704780B582B000AF4B
:102E900078600B46FB70FB789A017B681B6842F0F8
:102EA00020021A6100BF7B681B681B6903F02003C6
:102EB000002BF8D1032001F0F1FD0023184608375C
:102EC000BD4680BD80B582B000AF78607B681B686E
:102ED00010221A6100BF7B681B681B6903F0100396
:102EE000002BF8D1032001F0D9FD00231846083744
:102EF000BD4680BD80B485B000AF78600B46FB70E6
:102F000013463B807B681B685B6AFB60FB78002B89
:102F100007D13B8819047B681B68FA680A439A62E8
:102F200028E07B681B689B6A1B0CFA681344FB60F3
:102F30000023FB720DE07B681A68FB7A40339B002C
:102F400013445B681B0CFA681344FB60FB7A013383
:102F5000FB72FA7AFB78013B9A42ECD33B88180467
:102F60007B681968FB78013BFA68024340339B0099
:102F70000B445A6000BF1437BD465DF8047B7047B0
:102F800080B483B000AF78600B46FB707B681B6831
:102F9000DA687B681B6822F0C042DA60FB78002B9D
:102FA00008D17B681B68DA687B681B6842F0804246
:102FB000DA600AE0FB78012B07D17B681B68DA68CE
:102FC0007B681B6842F00052DA6000BF0C37BD46D8
:102FD0005DF8047B704780B582B000AF78607B6895
:102FE0001B681A697B681B6842F001021A6100BF06
:102FF0007B681B681B6903F00103002BF8D10320D9
:1030000001F04CFD00BF0837BD4680BD80B483B0E1
:1030100000AF78600B467B807B681B687A885A62B9
:1030200000BF0C37BD465DF8047B704780B584B0A7
:1030300000AF78607B68D3F8C83000221A607B68E4
:103040005B691A687B685B6922F4C0521A607B680E
:103050005A697B685B6912681A607B685B691A68E9
:103060007B685B6922F003021A607B681B78012B86
:1030700021D17B685B691A687B685B6942F0030257
:103080001A607B68103380211846FFF7BFFF0023CA
:10309000FB730DE07B6803F11000FB7B534A32F8B1
:1030A0001320FB7B1946FFF725FFFB7B0133FB73E6
:1030B000FB7B032BEED97B68103310211846FFF7FA
:1030C000E4FE7B6810331846FFF7FCFE7B685B6903
:1030D00000221A617B685B6900225A617B685B6928
:1030E0004FF0FF329A617B685B690022DA6100234E
:1030F000FB7366E0FB7B7A6806339B0013445B68D6
:103100001B68002B10DAFB7B7A6806339B001344A4
:103110005B681A68FB7B796806339B000B445B682D
:1031200042F090421A6007E0FB7B7A6806339B000E
:1031300013445B6800221A60FB7B7A6806339B00AD
:1031400013445B6800221A61FB7B7A6806339B009C
:1031500013445B68FF229A60FB7B7A680C339B0008
:1031600013445B681B68002B10DAFB7B7A680C3316
:103170009B0013445B681A68FB7B79680C339B00E7
:103180000B445B6842F090421A6007E0FB7B7A6870
:103190000C339B0013445B6800221A60FB7B7A6847
:1031A0000C339B0013445B6800221A61FB7B7A6836
:1031B0000C339B0013445B68FF229A60FB7B013356
:1031C000FB737B68DB78FA7B9A4293D37B685B69FD
:1031D0001A697B685B6942F010021A61786800F036
:1031E00007F8002318461037BD4680BD4400002074
:1031F00080B483B000AF78607B681B694FF0FF320A
:103200005A607B681B696FF080425A617B681B695A
:103210000E4A9A617B681B79002B07D17B681B697A
:103220009A697B681B6942F010029A617B681B698E
:1032300099697B681A69064B0B4393610023184612
:103240000C37BD465DF8047B704700BF0008008066
:1032500008303C0080B487B000AF7860396000234C
:103260007B6100233B617B685B699B68DBB203F099
:103270000603FB733B681B78C3F30303DBB2BB732A
:103280003B681B7823F07F03DBB2002B0CD0BB7BA9
:103290007A6806339B0013445B687B61BB7B012229
:1032A00002FA03F33B610CE0BB7B7A680C339B00B2
:1032B00013445B687B61BB7B1033012202FA03F38A
:1032C0003B617B691B6803F40043002B27D17B69BA
:1032D0001A681A4B13407A691360BB7B002B08D124
:1032E0007B691B68FA7B16498A5C1A437B691A6002
:1032F00006E07B691B683A6892881A437B691A600A
:103300007B691A683B685B789904BB7B9B050B4320
:10331000134343F0805343F400437A6913607B689E
:103320005B69D9697B685B693A690A43DA610023A2
:1033300018461C37BD465DF8047B704700F833FC27
:103340005052000880B586B000AF78603960002325
:10335000FB753B681B78C3F30303DBB2BB75BB7D16
:103360007A6806339B0013445B681B683B61BB7D36
:103370007A6806339B0013445B681B69FB60FB683B
:1033800003F06043FB603B68DB68002B04D1FB6803
:1033900043F40023FB602CE0BB7D002B0ED13B6887
:1033A0009B881A463B68DB689A4228BF1A463B68EE
:1033B000DA60FB6843F40023FB600DE03B68DB68E8
:1033C0003A6892881344013B3A689288B3FBF2F35F
:1033D000DA04FB681343FB603B68DA68FB6813435D
:1033E000FB603B685B78012B03D1FB6843F0005323
:1033F000FB60BB7D7A6806339B0013445B68FA6808
:103400001A613B685B78012B0FD17B685B699B6815
:1034100003F48073002B04D03B6943F080533B617D
:1034200003E03B6943F000533B617B681B79012B50
:1034300008D1BB7D7A6806339B0013445B683A6809
:1034400092695A613B6943F004433B61BB7D7A68F2
:1034500006339B0013445B683A691A607B681B79EA
:10346000002B1DD13B685B78012B0ED03B68DB68DD
:10347000002B15D07B685B69596BBB7D01229A409C
:103480007B685B690A435A630AE07B6803F11000BA
:103490003B6899683B68DB689BB2BA7DFFF7A9FC83
:1034A000FB7D18461837BD4680BD80B487B000AF9D
:1034B000786039600023FB733B681B78C3F3030318
:1034C000DBB2BB73BB7B7A680C339B0013445B6835
:1034D0001B687B61BB7B7A680C339B0013445B6881
:1034E0001B693B613B6903F060433B613B68DB6800
:1034F000002B02D0BB7B002B0AD13B689B881A466D
:103500003B6913433B613B6943F400233B6118E093
:103510003B68DB683A6892881344013B3A689288BA
:10352000B3FBF2F3BB60BB68DB043A6913433B6156
:103530003B689B881A46BB6802FB03F33A69134356
:103540003B61BB7B7A680C339B0013445B683A6930
:103550001A617B681B79012B08D1BB7B7A680C331D
:103560009B0013445B683A6892695A613B685B78D8
:10357000012B0CD13B68DB78002B04D07B6943F036
:1035800000537B6103E07B6943F080537B617B697F
:1035900043F004437B61BB7B7A680C339B0013448C
:1035A0005B687A691A60FB7B18461C37BD465DF87C
:1035B000047B704780B485B000AF78603960002329
:1035C000FB603B681B78C3F30303DBB2FB723B6811
:1035D0001B7823F07F03DBB2002B11D0FB7A7A68D3
:1035E00006339B0013445B68FB60FB681B68002B81
:1035F0000DDAFB681B6843F08042FB681A6006E046
:10360000FB7A7A680C339B0013445B68FB60FB68B1
:103610001B6843F40012FB681A6000231846143735
:10362000BD465DF8047B704780B485B000AF78601C
:1036300039600023FB603B681B78C3F30303DBB2F4
:10364000FB723B681B7823F07F03DBB2002B07D0B3
:10365000FB7A7A6806339B0013445B68FB6006E0E4
:10366000FB7A7A680C339B0013445B68FB60FB6851
:103670001B6823F40012FB681A603B685B78032B1D
:1036800003D03B685B78022B05D1FB681B6843F0D5
:103690008052FB681A60002318461437BD465DF857
:1036A000047B704780B487B000AF78600B46FB7036
:1036B00000237B617B685B691B693B617B685B699D
:1036C0005B6BFB60FB78FA6822FA03F3DB01DBB289
:1036D0003A6913433B61FB787A6806339B001344D5
:1036E0005B689B683A6913407B617B6918461C37AD
:1036F000BD465DF8047B704780B483B000AF78604E
:103700007B685B6B0C4A1A617B681B79012B0DD1BE
:103710007B6803F21C427B685B6B5A617B685B6B66
:103720001A687B685B6B42F080221A6000BF0C371E
:10373000BD465DF8047B70471800086080B483B014
:1037400000AF78607B68DB79002B10D07B685B6909
:103750009B6803F00103002B09D07B68D3F8C830C5
:103760001A687B68D3F8C83022F003021A6000BFE1
:103770000C37BD465DF8047B704780B485B000AF60
:1037800078607B685B699B69FB607B685B69DB6970
:10379000FA681340FB60FB681B0C03F03F031846FC
:1037A0001437BD465DF8047B704780B485B000AF28
:1037B00078600B46FB70FB787A680C339B001344EF
:1037C0005B689B68FB607B685B695B69FA681340B8
:1037D000FB60FB6818461437BD465DF8047B7047F4
:1037E00080B485B000AF78607B685B699B69FB60E3
:1037F0007B685B69DB69FA681340FB60FB6803F078
:103800003F0318461437BD465DF8047B704780B50A
:1038100084B000AF78607B681B695B6903F00103CB
:10382000012B00F08C807B681B695B69FB607B6807
:103830001B699B69FA681340FB60FB68002B7DD015
:10384000FB6803F40023002B02D0786800F07AF8BC
:10385000FB6803F48023002B02D0786800F0EFF8B7
:10386000FB6803F40063002B02D0786800F0B0FA24
:10387000FB68002B08DA7B68032283F8CE207B6884
:103880001B694FF000425A61FB6803F00803002BEC
:103890000FD07B68D3F82C345B6A002B05D07B6893
:1038A000D3F82C345B6A786898477B681B690822D8
:1038B0005A61FB6803F01003002B02D0786800F017
:1038C00019F9FB6803F48053002B02D0786800F0EC
:1038D000A7F9FB6803F40053002B02D0786800F0CE
:1038E00029FAFB6803F48013002B10D07B68D3F80F
:1038F0002C349B6A002B05D07B68D3F82C349B6A50
:10390000786898477B681B694FF480125A61FB689E
:1039100003F40013002B12D07B68D3F82C34DB6A3D
:10392000002B05D07B68D3F82C34DB6A7868984785
:103930007B681B694FF400125A6100E000BF10372A
:10394000BD4680BD80B586B000AF786000237B6146
:103950000023FB747868FFF710FF786167E07B69EC
:1039600003F00103002B5CD0FB7C19467868FFF75D
:103970001CFF0346FB60FB6803F00103002B40D0F3
:10398000FB7C7A680C339B0013445B6801229A60CD
:103990007B681B79012B20D1FB7C7A680C339B0060
:1039A00013445B681B69BB60FA7C79681346DB00D3
:1039B0009B1A9B000B4403F51E731B881946BB68BA
:1039C000C3F31203FA7CC91A78681346DB009B1A0A
:1039D0009B00034403F521731960FB7C194678684A
:1039E000FFF700F87B681B79012B0AD1FB7C002BC9
:1039F00007D17B6893F82434062B02D17868FFF74F
:103A00007BFEFB6803F00803002B0AD07868FEF702
:103A100091FFFB7C7A680C339B0013445B6808229F
:103A20009A607B695B087B61FB7C0133FB747B697B
:103A3000002B94D1012318461837BD4680BD80B5B0
:103A400086B000AF786000237B610023FB74786848
:103A5000FFF7C6FE786144E07B6903F00103002BA9
:103A600039D0FB7C19467868FFF71CFE0346FB60E3
:103A7000FB6803F00103002B1BD0FB7C7A68063344
:103A80009B0013445B6801229A60FB7C19467868AE
:103A9000FFF705F87B681B79012B0AD1FB7C002B13
:103AA00007D17B6893F82434052B02D17868FFF79F
:103AB00023FEFB6803F08003002B0CD0FB7C19462F
:103AC000786800F0CEF9FB7C7A6806339B001344DB
:103AD0005B6880229A607B695B087B61FB7C0133B9
:103AE000FB747B69002BB7D1012318461837BD46FC
:103AF00080BD000080B588B000AF78600023FB6116
:103B00000023FB7600237B610023FB607B681B693D
:103B10009A697B681B6922F010029A617B681B69B5
:103B20001B6AFB60FB68DBB203F00F03FB74FA7CDB
:103B30001346DB009B1A9B0003F51C737A68134441
:103B40000433FB61FB681B09C3F30A037B61FB6859
:103B5000DB0BDBB203F00303FB76FB685B0C03F0CB
:103B60000F03013B052B48D801A252F823F000BFF8
:103B7000FB3B0008893B0008FB3B0008FB3B0008BF
:103B8000FB3B0008BD3B00087B69002B37D07B68FE
:103B900003F11000FB699B687A6992B21946FFF73E
:103BA00052F9FB699A687B691A44FB699A60FB6960
:103BB0001A697B691A44FB691A6120E0FB691B786A
:103BC00003F00F03DBB2002B1BD17B69082B18D14C
:103BD000FB7E002B15D17B6803F110007B6803F29C
:103BE0001C437A6992B21946FFF72DF9FB691A69ED
:103BF0007B691A44FB691A6103E000BF02E000BF61
:103C000000E000BF7B681B699A697B681B6942F012
:103C100010029A61012318462037BD4680BD00BFBF
:103C200080B592B000AF78607B685B695A687B684A
:103C30005B6922F001025A607B681033002118464C
:103C4000FFF723F900237B6412E07A687B6C06336C
:103C50009B0013445B68FF229A607A687B6C0C338C
:103C60009B0013445B68FF229A607B6C01337B648A
:103C70007B68DB781A467B6C9342E6D37B685B6992
:103C80004FF0FF329A617B685B694FF00112DA6195
:103C90007B685B6909225A617B685B6901221A6152
:103CA0007B685B691A687B685B6922F4FE621A6054
:103CB0007868FFF721FD7B681B694FF480525A61D9
:103CC0007B6803F51D7300221A605A609A60DA60FF
:103CD0001A615A619A617B684022A3F878227B6856
:103CE00003F51D7319467868FFF7B4FA7B68D03383
:103CF00000221A605A609A60DA601A615A619A6109
:103D00007A6892F8D03043F0800382F8D0307B6834
:103D10004022A3F8D4207B68D03319467868FFF797
:103D200099FA7B68012283F8CE2001231846483790
:103D3000BD4680BD80B485B000AF78607B685B69AC
:103D40009B685B08DBB203F00303FB737B685B6972
:103D50005A687B685B6922F480725A607B685B6991
:103D60005A687B685B6942F480725A607B681B69A1
:103D7000DA687B681B6922F47052DA60FB7B134AB5
:103D8000D35C032B0BD17B6803225A707B681B69C1
:103D9000DA687B681B6942F41052DA600AE07B68DB
:103DA00002225A707B681B69DA687B681B6942F4DF
:103DB000A052DA607B681B694FF400525A610123FC
:103DC00018461437BD465DF8047B7047545200080E
:103DD00080B584B000AF78607B68DB79FB737B686B
:103DE0005B699B68DBB203F00103DBB2BB737B68EA
:103DF00093F8CE30DBB2032B01D1012300E0002386
:103E00007B737B6893F8CE30DAB27B6883F8CF207F
:103E10007B68042283F8CE20FB7BDBB2002B16D01C
:103E2000BB7BDBB2002B12D07B7BDBB2002B0ED036
:103E30007B68D3F8C8301A687B68D3F8C83042F082
:103E400003021A60002200210120FDF765F97B685A
:103E50001B694FF400625A61012318461037BD46B2
:103E600080BD80B586B000AF786039603A6813468F
:103E7000DB009B1A9B00C8337A6813440833FB604D
:103E8000FB68DA68FB681B69D31A7B61FB689B8857
:103E90001A467B69934202D9FB689B887B617B69E8
:103EA00003339B083B613BE0FB68DA68FB681B69F6
:103EB000D31A7B61FB689B881A467B69934202D9BF
:103EC000FB689B887B617B6903339B083B617B6854
:103ED00003F11000FB6899683B68DAB27B699BB21A
:103EE000FEF787FFFB689A687B691A44FB689A6053
:103EF000FB681A697B691A44FB681A61FB681A69D6
:103F0000FB68DB689A420BD17B685B69596B0122C5
:103F10003B6802FA03F3DA437B685B690A405A6341
:103F20007A683B6806339B0013445B689B699BB2CD
:103F30003A699A4205D8FB681A69FB68DB689A42BD
:103F4000B2D3012318461837BD4680BD80B400AFF8
:103F5000BFF34F8F00BF064BDB6803F4E0620449F8
:103F6000044B1343CB60BFF34F8F00BF00BFFDE78F
:103F700000ED00E00400FA0580B582B000AF786083
:103F80000B46FB7000F002FB40F6140200211048C3
:103F9000FCF790F90E4B00229A710D4B02221A7118
:103FA0000B4B00221A707B68094AC3F83024094B76
:103FB0001A687B68D3F82834DB6814331B68194609
:103FC000104600F099FA002318460837BD4680BD18
:103FD00034050020C004002080B584B000AF7860B4
:103FE0000B46FB707B68D3F83034FB607B68D3F8FA
:103FF000303440F6140200211846FCF75BF9FB68E8
:1040000002221A71FB6800221A7000F0E1FA002304
:1040100018461037BD4680BD80B582B000AF7860CD
:1040200039603B685B78062B0AD83B685B781A4698
:10403000064B53F82230396878689847002300E02F
:10404000022318460837BD4680BD00BF4C00002043
:1040500080B582B000AF7860786800F023F8002364
:1040600018460837BD4680BD80B584B000AF786083
:104070007B68D3F83034FB60FB6800229A710B2315
:1040800003F00403002B03D0FB6806221A7106E03C
:10409000FB6808221A7100F09BFAFFF757FF1037F0
:1040A000BD4680BD80B584B000AF78607B68D3F832
:1040B0003034FB60FB681B79042B46D1FB689B897D
:1040C000002B22D1FB689B68012B36D0FB689B68D4
:1040D000052B32D1FB681B7D212B06D1FB681433E5
:1040E00001331A68FB681A6127E0FB681B7D412BCE
:1040F00023D1FB68143301331A68FB681A61FB682B
:104100001B69184600F086FA17E0FB689B89012BB3
:1041100013D9FB689B89023BDA02FB681B691344D5
:10412000BB60FB6803F11400FB689B681A46B96822
:1041300000F0A2FAFB6800229A81FB6800229A60D4
:10414000FB6803221A71002307E0FB681B79072B29
:1041500002D17868FFF788FF002318461037BD4664
:1041600080BD80B584B000AF786039607B68D3F8DB
:104170003034FB60FB681B79092B8CBF01220022C5
:10418000D2B2002A1CD14FF41B7222FA03F303F0BF
:104190000103002B14BF01230023DBB2002B0FD03F
:1041A000FB6800221A70FB6802221A71FB68002269
:1041B0005A71FB6800229A81FB6800229A6000E035
:1041C00000BFFF2303F01003002B06D07868FDF733
:1041D0002EFE7868FDF71DFE02E0042000F06AFC68
:1041E00000BF1037BD4680BD80B485B000AF786099
:1041F00039607B6803F51D73FB607B68D3F830344E
:10420000BB60BB681B79022B01D0052B23D13B6817
:10421000DB889BB2002B17D03B685B889AB2BB68E7
:104220009A813B68DB889BB21A46BB689A60BB6880
:1042300003221A71BB689A68FB685A61BB6803F174
:104240001402FB689A6007E0BB6801229A71BB68A0
:1042500006221A7100E000BF00BF1437BD465DF8AA
:10426000047B704780B586B000AF7860396000236A
:104270007B6100233B617B68D3F83034FB607B6853
:10428000D033BB603B68DB889BB2002B03D1FB685B
:1042900002221A715BE0FB681B79022B01D0092B0B
:1042A0004ED13B685B889AB2FB689A813B68DB8899
:1042B0009BB21A46FB689A60FB689B89002B1AD157
:1042C000FB689B68032B01D9022200E00922FB68EE
:1042D0001A71FB6800221A75FB6821225A75FB6867
:1042E00041229A75FB6803F11402BB689A60BB68AF
:1042F00003225A612BE0FB689B89012B1CD9FB68C8
:1043000009221A71FB689B89023BDA02FB681B6970
:1043100013443B61FB6803F11400FB689B681A4679
:10432000396900F0EDF97861BB687A699A60FB68D9
:104330009A68BB685A610AE0FB680F221A7106E0AE
:10434000FB6800229A60FB6800229A8100BF183740
:10435000BD4680BD80B584B000AF786039607B68B1
:10436000D033FB607B68D3F83034BB60BB681B790B
:10437000032B02D0062B25D042E0BB689B68002BA4
:104380001CD0BB6804221A71BB689B89002B34D1F6
:10439000BB681B7D412B08D1BB681869BB68013322
:1043A0001A46002100F0E4F927E0BB681869BB68F1
:1043B00001331A46012100F0DBF91EE0BB6805223B
:1043C0001A711AE0BB689B79012B06D1BB680722E2
:1043D0001A71BB6801225A7011E0BB689B79002BEF
:1043E0000DD10B2303F00403002B08D0BB6802227D
:1043F0001A71BB6800225A7001E000BF00E000BFE4
:10440000BA68FB689A60FB6806225A6100BF1037E1
:10441000BD4680BD80B485B000AF786039607B68F0
:10442000D3F83034FB60FB681B790A2B06D1FB689C
:1044300000221A70FB6802221A7105E0FB680E2246
:104440001A70FB680A221A71FB6800225A7100BFB9
:104450001437BD465DF8047B704780B485B000AF6B
:10446000786039607B68D033FB607B68D3F8303488
:10447000BB60BB681A1DFB689A60FB6801225A6129
:1044800000BF1437BD465DF8047B704780B485B02B
:1044900000AF786039607B68D3F83034FB60FB682C
:1044A0001B79092B8CBF01220022D2B2002A1CD119
:1044B0004FF41B7222FA03F303F00103002B14BF25
:1044C00001230023DBB2002B0FD0FB6800221A70FF
:1044D000FB6802221A71FB6800225A71FB680022F5
:1044E0009A81FB6800229A6000E000BF00BF143789
:1044F000BD465DF8047B704780B584B000AF78603E
:1045000039600023FB737B68002B24D0786800F0AF
:104510008BFE034601339BB25B009BB2DBB29AB2C7
:10452000FB7B591CF9735B0039680B4442F4407201
:1045300092B21A800BE07B685A1C7A601978FB7B78
:104540005A1CFA735B003A6813440A461A807B6867
:104550001B78002BEFD100BF1037BD4680BD000097
:1045600080B400AFBFF34F8F00BF064BDB6803F48E
:10457000E0620449044B1343CB60BFF34F8F00BF8D
:1045800000BFFDE700ED00E00400FA0580B582B051
:1045900000AF00237B6000237B600FE00B4A7B6849
:1045A00052F823305B68002B05D0084A7B6852F82C
:1045B00023305B6898477B6801337B607B68002B06
:1045C000ECD0002318460837BD4680BDB804002053
:1045D00080B582B000AF00237B6000237B600FE0DA
:1045E0000B4A7B6852F823309B68002B05D0084AA1
:1045F0007B6852F823309B6898477B6801337B6067
:104600007B68002BECD0002318460837BD4680BDE0
:10461000B804002080B584B000AF7860786800F0FE
:10462000FDF80346FB607B68B3F1006F05D37B6840
:104630000F4A934201D2012315E0FB68002B11D1F0
:104640000C4AFB6852F82330DB68002B08D0094A7B
:10465000FB6852F82330DB6878689847034602E02D
:10466000012300E0012318461037BD4680BD00BF7E
:1046700000800008B804002080B586B000AFF86064
:10468000B9607A60B86800F0C9F803467B61BB681E
:10469000B3F1006F05D3BB68164A934201D20123E0
:1046A00023E0BB6823F0FF03134A934205D1F96866
:1046B000B86800F01DFAFFF753FF7B69002B13D198
:1046C0000E4A7B6952F823301B69002B0AD00B4A33
:1046D0007B6952F823301B697A68B968F868984793
:1046E000034602E0012300E0012318461837BD46C7
:1046F00080BD00BF0080000800C0FF1FB80400207C
:1047000080B586B000AFF860B9607A6000237B6145
:10471000BB68144A934208D0BB68134A934204D042
:10472000B86800F07BF803467B617B69002B13D1EE
:104730000E4A7B6952F823305B69002B0AD00B4A82
:104740007B6952F823305B697A68B968F8689847E2
:10475000034602E0FB6800E0FB6818461837BD46D8
:1047600080BD00BF00C0FF1F00C0FE1FB8040020B6
:1047700080B586B000AFF8600B467A60FB72F868CF
:1047800000F04CF803467B617B69002B3FD1FB7A3C
:1047900003F00103002B1CD01F4A7B6952F8233021
:1047A0001B6ADAB27B681A701B4A7B6952F82330A5
:1047B0001B6A1A0A7B680133D2B21A70164A7B69E7
:1047C00052F823301B6A1A0C7B680233D2B21A707B
:1047D0001BE0114A7B6952F82330DB69DAB27B684F
:1047E0001A700D4A7B6952F82330DB691A0A7B681C
:1047F0000133D2B21A70084A7B6952F82330DB6960
:104800001A0C7B680233D2B21A70002300E0012335
:1048100018461837BD4680BDB804002080B584B066
:1048200000AF78600023FB730023FB730EE0FB7B7B
:104830000A4A52F823309B69786898470346002B50
:1048400001D1FB7B06E0FB7B0133FB73FB7B002B81
:10485000EDD0012318461037BD4680BDB8040020B6
:1048600080B500AF00F024F840F60750FCF734FDA7
:1048700000F02CF90A4B0B4A01210B48FDF7C5F952
:1048800000F07CF820210948FCF704FB00BF064B30
:1048900093F8CE30DBB2032BF9D100BF00BF80BD4F
:1048A0008804002078040020480D00200004024005
:1048B00080B500AF41F20E10FCF70EFD4FF44060E2
:1048C000FCF70AFD4FF40063002202212948FCF79F
:1048D00045FA4FF40063032200212648FCF78CFAC6
:1048E0004FF400620A214FF44060FCF708FB4FF4DC
:1048F0004060FCF7F1FC4FF48053002202211D4878
:10490000FCF72CFA4FF48053032200211948FCF7DE
:1049100073FA4FF480520A214FF44060FCF7EFFA2B
:1049200040F60140FCF7D8FC202300220121124868
:10493000FCF714FA2023032200210F48FCF75CFA4D
:1049400020210D48FCF7B6FA40F60140FCF7C4FC04
:104950004023002201210848FCF700FA40230322EB
:1049600000210548FCF748FA40210348FCF7A2FA69
:1049700000BF80BD000002400004024080B500AFCF
:104980004FF4A060FCF72EFB002203214320FCF72C
:104990003DFB00BF80BD000080B586B000AF034680
:1049A000FB711D4B05221A801C48FDF76FF8012191
:1049B0001A48FDF79FF8FB79022B02D10B233B61CC
:1049C00005E0FB79012B02D142F6DF633B61124B1C
:1049D0001B889BB23B8100237B810023BB8100238A
:1049E000FB8100233B7507F1080319460B48FCF7D0
:1049F000BFFF01210948FDF7AFF80848FDF756F859
:104A000001210648FDF762F80448FDF72FF800BFC2
:104A10001837BD4680BD00BFBC0400200008004020
:104A200080B582B000AF78600B46FB70094A7B68A6
:104A30001360FB781846FFF7AFFF00BF054B1B68FC
:104A4000002BFBD10448FDF721F800BF0837BD4615
:104A500080BD00BF841100200008004080B500AF79
:104A600001210C48FDF75AF80346002B10D0012114
:104A70000848FDF771F8084B1B68002B05D0064B62
:104A80001B68013B044A136002E00248FCF7FEFF8A
:104A900000BF80BD000800408411002080B582B0B6
:104AA00000AF786002217868FFF7BAFF00BF0837CF
:104AB000BD4680BD80B582B000AF786001217868C6
:104AC000FFF7AEFF00BF0837BD4680BD80B500AF21
:104AD0004FF4A060FCF786FA002201211E20FCF7AB
:104AE00095FA41F20200FCF7F7FB00BF80BD000021
:104AF00080B58EB000AF78603960FBF77FFED320C1
:104B0000FCF70AF86FF03040FCF75AF8034687F8D4
:104B10002330FBF711FFFBF73BFF00237B630023F0
:104B20003B630023FB620023BB6200237B62002304
:104B30003B840023FB83664B1B68BB61654B1B6892
:104B40007B6100233B610023FB73FBF711FF3B6894
:104B50001B78DB09DBB203F00103002B02D08023BA
:104B60007B6301E000237B633B681B789B09DBB21E
:104B700003F00103002B02D040233B6301E000233C
:104B80003B633B681B785B09DBB203F00103002B3E
:104B900002D02023FB6201E00023FB627A6B396BB9
:104BA000F86AFBF761FF3B6801331B781846FBF797
:104BB00035FF474B1B68BB61464B1B687B613B68FD
:104BC0001B789B08DBB203F00303002B02D1002308
:104BD0007B6217E03B681B789B08DBB203F00303A2
:104BE000012B02D104237B620CE03B681B789B08FD
:104BF000DBB203F00303022B02D108237B6201E046
:104C00000C237B62786AFBF757FF3B681B781B0914
:104C1000DBB203F00103002B02D01023BB6201E0E2
:104C20000023BB62B86AFBF75FFF3B6808331B7861
:104C30001AB23B6809331B781B021BB213431BB229
:104C40009BB2C3F30B033B843B6818331B781AB247
:104C50003B6819331B781B021BB213431BB29BB278
:104C6000C3F30B03FB831A4B1B68002B01DA00BF55
:104C7000FDE76FF03040FBF7A3FF0346FB73BB6912
:104C800023F07F6323F47023BB617B6923F07F6390
:104C900023F470237B61FB7B002B0FD13B8C1B0427
:104CA0003B610B49BA693B6913430B60FB8B1B04E7
:104CB0003B6108497A693B6913430B60FBF758FE77
:104CC000FBF7B6FD97F8233018463837BD4680BD50
:104CD000143C0240183C024080B500AFFBF78EFD4B
:104CE0000023184680BD80B500AFFBF7A1FD00236F
:104CF000184680BD80B584B000AF78600023FB60AB
:104D0000786800F085F8F860F86800F068F800232B
:104D100018461037BD4680BD80B586B000AFF8603C
:104D2000B9607A6000237B61FBF768FDD320FBF755
:104D3000F3FE7B6803F00303002B12D07B687B61DA
:104D400007E0FA687B691344FF221A707B6901331C
:104D50007B617A684FF6FC73134004337A699A4298
:104D6000EFD300237B610DE0FA687B6913441B6875
:104D70001946B868FBF7A8FDBB680433BB607B69C4
:104D800004337B617A697B689A42EDD3FBF750FD6F
:104D9000002318461837BD4680BD80B485B000AFEB
:104DA000F860B9607A60BB6818461437BD465DF894
:104DB000047B704780B483B000AF78607B68B3F148
:104DC000006F05D37B68B3F1036F01D2002300E0CD
:104DD000012318460C37BD465DF8047B704780B54B
:104DE00084B000AF7860FBF709FDD320FBF794FE99
:104DF0007868FBF72DFD0346FB73FB7B002B01D08E
:104E000000BFFDE7FBF714FD00BF1037BD4680BDB6
:104E100080B485B000AF78600023FB607B68834A74
:104E2000934206D27B68B3F1006F02D30023FB608C
:104E30004BE17B687E4A934206D27B687B4A934271
:104E400002D30823FB6040E17B687A4A934206D292
:104E50007B68774A934202D31023FB6035E17B687D
:104E6000754A934206D87B68724A934202D318234C
:104E7000FB602AE17B68714A934206D87B686E4AE0
:104E8000934202D92023FB601FE17B686C4A934266
:104E900006D87B68694A934202D92823FB6014E153
:104EA0007B68684A934206D87B68654A934202D978
:104EB0003023FB6009E17B68634A934206D87B6834
:104EC000604A934202D93823FB60FEE07B685F4A68
:104ED000934206D87B685C4A934202D94023FB6028
:104EE000F3E07B685A4A934206D87B68574A93425C
:104EF00002D94823FB60E8E07B68564A934206D813
:104F00007B68534A934202D95023FB60DDE07B6803
:104F1000B3F1016F06D27B684E4A934202D95823FF
:104F2000FB60D2E07B684C4A934206D27B68B3F1C7
:104F3000016F02D38023FB60C7E07B68474A93423E
:104F400006D27B68444A934202D38823FB60BCE0CC
:104F50007B68434A934206D27B68404A934202D31D
:104F60009023FB60B1E07B683E4A934206D87B68A1
:104F70003B4A934202D39823FB60A6E07B683A4AFF
:104F8000934206D87B68374A934202D9A023FB603C
:104F90009BE07B68354A934206D87B68324A93424D
:104FA00002D9A823FB6090E07B68314A934206D87F
:104FB0007B682E4A934202D9B023FB6085E07B6870
:104FC0002C4A934206D87B68294A934202D9B823D7
:104FD000FB607AE07B68284A934206D87B68254AC2
:104FE000934202D9C023FB606FE07B68234A93425F
:104FF00006D87B68204A934202D9C823FB6064E04C
:105000007B681F4A934206D87B681C4A934202D9A8
:10501000D023FB6059E07B68B3F1026F32D27B682A
:10502000174A93422ED9D823FB604EE00040000877
:105030000080000800C00008FFFF0008FFFF010813
:10504000FFFF0308FFFF0508FFFF0708FFFF090830
:10505000FFFF0B08FFFF0D0800401008008010083C
:1050600000C01008FFFF1008FFFF1108FFFF130822
:10507000FFFF1508FFFF1708FFFF1908FFFF1B08B8
:10508000FFFF1D087B68144A934206D87B68B3F182
:10509000026F02D36023FB6017E07B680F4A9342E4
:1050A00006D87B680C4A934202D96823FB600CE067
:1050B0007B680B4A934206D87B68084A934202D920
:1050C0007023FB6001E07823FB60FB68184614370F
:1050D000BD465DF8047B7047FFFF2308FFFF2708EC
:1050E000FFFF2B0880B584B000AF2E4B1B68FB6020
:1050F00000F064F800F068F802212B48FBF7EAFEA4
:105100000346002B06D101212748FBF7E3FE0346A7
:10511000002B3AD02448FBF771FD2348FBF76EFDC6
:105120002248FBF76BFD40F60140FCF7F8F840F62B
:105130000140FCF7F4F84FF44060FCF7F0F8FCF79E
:105140007DF81B4B00221A60194B00225A60184B45
:1051500000229A60FB68B3F1005F16D3154B1B6801
:105160009BB203F500239B02FA689A420DD2124BC0
:105170001B68BB60BB687B600A4B1B683B603B687D
:1051800083F3088800BF7B689847FFF769FB4FF4FB
:1051900080610648FBF715FF4FF47A70FBF748F97A
:1051A00000BFF4E700800008000402400000024055
:1051B00010E000E0207AFF1F0480000880B500AFF7
:1051C000FBF71AF900BF80BD80B500AF40F6014083
:1051D000FCF782F80123012200211148FBF7BEFDF4
:1051E0000223012200210E48FBF7B8FD4FF4406076
:1051F000FCF772F84FF48063002201210948FBF7A5
:10520000ADFD4FF48063022200210648FBF7F4FD58
:105210004FF480610348FBF74DFE00BF80BD00BF27
:105220000004024000000240034613F8012B002A4C
:10523000FBD1181A01387047F8B500BFF8BC08BC9C
:105240009E467047F8B500BFF8BC08BC9E46704744
:1052500000000300030201021201000200000040EE
:10526000E9288901000101020301000009022D0063
:10527000010100C0320904000000FE01020509041A
:10528000000100FE0102060904000200FE010207FF
:1052900009210BFF000008100100000004030904AD
:1052A000240365006E006E00610020007300790029
:1052B0007300740065006D007300200047006D00EE
:1052C0006200480000000000000000000000000034
:1052D00000000000000000000000000000000000CE
:1052E00000000000000000000000000000000000BE
:1052F00000000000000000000000000000000000AE
:10530000000000000000000000000000000000009D
:10531000000000000000000000000000000000008D
:10532000000000000000000000000000000000007D
:10533000000000000000000000000000000000006D
:10534000000000000000000000000000000000005D
:10535000000000000000000000000000000000004D
:10536000000000000000000000000000000000003D
:10537000000000000000000000000000000000002D
:10538000000000000000000000000000000000001D
:10539000000000000000000000000000000000000D
:1053A000000000001C0365006E006E00610020001C
:1053B00044006F0063006B0020004400460055006D
:1053C00000000000000000000000000000000000DD
:1053D00000000000000000000000000000000000CD
:1053E00000000000000000000000000000000000BD
:1053F00000000000000000000000000000000000AD
:10540000000000000000000000000000000000009C
:10541000000000000000000000000000000000008C
:10542000000000000000000000000000000000007C
:10543000000000000000000000000000000000006C
:10544000000000000000000000000000000000005C
:10545000000000000000000000000000000000004C
:10546000000000000000000000000000000000003C
:10547000000000000000000000000000000000002C
:10548000000000000000000000000000000000001C
:10549000000000000000000000000000000000000C
:1054A000000000000000000020034700440033001B
:1054B00032002000550053004200200043004F00FE
:1054C0004E004600490047000000000000000000B8
:1054D00000000000000000000000000000000000CC
:1054E00000000000000000000000000000000000BC
:1054F00000000000000000000000000000000000AC
:10550000000000000000000000000000000000009B
:10551000000000000000000000000000000000008B
:10552000000000000000000000000000000000007B
:10553000000000000000000000000000000000006B
:10554000000000000000000000000000000000005B
:10555000000000000000000000000000000000004B
:10556000000000000000000000000000000000003B
:10557000000000000000000000000000000000002B
:10558000000000000000000000000000000000001B
:10559000000000000000000000000000000000000B
:1055A0000000000000000000000000009C52000805
:1055B000A0520008A453000868000020A854000866
:1055C0006C010020700200207403002040496E74BA
:1055D00065726E616C20466C6173682020202F30EC
:1055E0007830383030303030302F322A3031364B4E
:1055F000612C322A3031364B672C312A3036344B0D
:10560000672C372A3132384B672C342A3031364BED
:10561000672C312A3036344B672C372A3132384BDD
:10562000672C342A3235364B67000000100000002A
:1056300000000000017A5200027C0E011B0C0D00DC
:105640001000000018000000E0FBFFFF1000000049
:08565000000000000000000052
:08565800BCABFF7F0100000064
:1056600000A24A04512100087522000851200008B8
:105670002923000851200008CF23000845240008F2
:10568000F125000809260008792600086927000886
:10569000D127000837280008692000089B2000084F
:1056A000192100084000800000000000634100084C
:1056B000E941000865420008554300081544000808
:1056C0005B4400088D440008060300000000000051
:1056D00000000000000000000000000000000000CA
:1056E00000000000000000000000000000000000BA
:1056F00000000000000000000000000000000000AA
:105700000000000000000000000000000000000099
:105710000000000000000000000000000000000089
:105720000000000000000000000000000000000079
:105730000000000000000000000000000000000069
:105740000000000000000000000000000000000059
:105750000000000000000000000000000000000049
:105760000000000000000000000000000000000039
:105770000000000000000000000000000000000029
:105780000000000000000000000000000000000019
:105790000000000000000000000000000000000009
:1057A00000000000000000000000000000000000F9
:1057B00000000000000000000000000000000000E9
:1057C00000000000000000000000000006030000D0
:1057D00000000000000000000000000000000000C9
:1057E00000000000000000000000000000000000B9
:1057F00000000000000000000000000000000000A9
:105800000000000000000000000000000000000098
:105810000000000000000000000000000000000088
:105820000000000000000000000000000000000078
:105830000000000000000000000000000000000068
:105840000000000000000000000000000000000058
:105850000000000000000000000000000000000048
:105860000000000000000000000000000000000038
:105870000000000000000000000000000000000028
:105880000000000000000000000000000000000018
:105890000000000000000000000000000000000008
:1058A00000000000000000000000000000000000F8
:1058B00000000000000000000000000000000000E8
:1058C00000000000000000000000000000000000D8
:1058D00006030000000000000000000000000000BF
:1058E00000000000000000000000000000000000B8
:1058F00000000000000000000000000000000000A8
:105900000000000000000000000000000000000097
:105910000000000000000000000000000000000087
:105920000000000000000000000000000000000077
:105930000000000000000000000000000000000067
:105940000000000000000000000000000000000057
:105950000000000000000000000000000000000047
:105960000000000000000000000000000000000037
:105970000000000000000000000000000000000027
:105980000000000000000000000000000000000017
:105990000000000000000000000000000000000007
:1059A00000000000000000000000000000000000F7
:1059B00000000000000000000000000000000000E7
:1059C00000000000000000000000000000000000D7
:1059D00000000000060300000000000000000000BE
:1059E00000000000000000000000000000000000B7
:1059F00000000000000000000000000000000000A7
:105A00000000000000000000000000000000000096
:105A10000000000000000000000000000000000086
:105A20000000000000000000000000000000000076
:105A30000000000000000000000000000000000066
:105A40000000000000000000000000000000000056
:105A50000000000000000000000000000000000046
:105A60000000000000000000000000000000000036
:105A70000000000000000000000000000000000026
:105A80000000000000000000000000000000000016
:105A90000000000000000000000000000000000006
:105AA00000000000000000000000000000000000F6
:105AB00000000000000000000000000000000000E6
:105AC00000000000000000000000000000000000D6
